{
  "contractName": "Assets",
  "abi": [
    {
      "inputs": [
        {
          "internalType": "address",
          "name": "juiceAddress",
          "type": "address"
        },
        {
          "internalType": "address",
          "name": "publisherAddress",
          "type": "address"
        },
        {
          "internalType": "address",
          "name": "consortiumAddress",
          "type": "address"
        }
      ],
      "stateMutability": "nonpayable",
      "type": "constructor"
    },
    {
      "anonymous": false,
      "inputs": [
        {
          "indexed": true,
          "internalType": "bytes32",
          "name": "id",
          "type": "bytes32"
        },
        {
          "indexed": false,
          "internalType": "address",
          "name": "network",
          "type": "address"
        }
      ],
      "name": "Issued",
      "type": "event"
    },
    {
      "inputs": [
        {
          "internalType": "bytes32",
          "name": "",
          "type": "bytes32"
        }
      ],
      "name": "assets",
      "outputs": [
        {
          "internalType": "bool",
          "name": "active",
          "type": "bool"
        },
        {
          "internalType": "bool",
          "name": "root",
          "type": "bool"
        },
        {
          "internalType": "uint256",
          "name": "quantity",
          "type": "uint256"
        },
        {
          "internalType": "uint256",
          "name": "nfaLimit",
          "type": "uint256"
        },
        {
          "internalType": "uint256",
          "name": "nfaQuantity",
          "type": "uint256"
        },
        {
          "internalType": "uint256",
          "name": "created",
          "type": "uint256"
        },
        {
          "internalType": "address",
          "name": "network",
          "type": "address"
        }
      ],
      "stateMutability": "view",
      "type": "function",
      "constant": true
    },
    {
      "inputs": [
        {
          "internalType": "bytes32",
          "name": "id",
          "type": "bytes32"
        },
        {
          "internalType": "bool",
          "name": "root",
          "type": "bool"
        },
        {
          "internalType": "uint256",
          "name": "quantity",
          "type": "uint256"
        },
        {
          "internalType": "address",
          "name": "network",
          "type": "address"
        }
      ],
      "name": "issue",
      "outputs": [
        {
          "internalType": "bool",
          "name": "",
          "type": "bool"
        }
      ],
      "stateMutability": "nonpayable",
      "type": "function"
    },
    {
      "inputs": [
        {
          "internalType": "bytes32",
          "name": "assetId",
          "type": "bytes32"
        },
        {
          "internalType": "address",
          "name": "receiver",
          "type": "address"
        }
      ],
      "name": "issueNFA",
      "outputs": [
        {
          "internalType": "bool",
          "name": "",
          "type": "bool"
        }
      ],
      "stateMutability": "nonpayable",
      "type": "function"
    },
    {
      "inputs": [
        {
          "internalType": "bytes32",
          "name": "id",
          "type": "bytes32"
        },
        {
          "internalType": "bool",
          "name": "active",
          "type": "bool"
        }
      ],
      "name": "setActive",
      "outputs": [],
      "stateMutability": "payable",
      "type": "function",
      "payable": true
    },
    {
      "inputs": [
        {
          "internalType": "bytes32",
          "name": "id",
          "type": "bytes32"
        }
      ],
      "name": "get",
      "outputs": [
        {
          "components": [
            {
              "internalType": "bool",
              "name": "active",
              "type": "bool"
            },
            {
              "internalType": "bool",
              "name": "root",
              "type": "bool"
            },
            {
              "internalType": "uint256",
              "name": "quantity",
              "type": "uint256"
            },
            {
              "internalType": "uint256",
              "name": "nfaLimit",
              "type": "uint256"
            },
            {
              "internalType": "uint256",
              "name": "nfaQuantity",
              "type": "uint256"
            },
            {
              "internalType": "uint256",
              "name": "created",
              "type": "uint256"
            },
            {
              "internalType": "address",
              "name": "network",
              "type": "address"
            }
          ],
          "internalType": "struct Assets.Asset",
          "name": "",
          "type": "tuple"
        }
      ],
      "stateMutability": "view",
      "type": "function",
      "constant": true
    },
    {
      "inputs": [
        {
          "internalType": "bytes32",
          "name": "id",
          "type": "bytes32"
        }
      ],
      "name": "exists",
      "outputs": [
        {
          "internalType": "bool",
          "name": "",
          "type": "bool"
        }
      ],
      "stateMutability": "view",
      "type": "function",
      "constant": true
    },
    {
      "inputs": [
        {
          "internalType": "bytes32",
          "name": "id",
          "type": "bytes32"
        }
      ],
      "name": "isRoot",
      "outputs": [
        {
          "internalType": "bool",
          "name": "",
          "type": "bool"
        }
      ],
      "stateMutability": "view",
      "type": "function",
      "constant": true
    },
    {
      "inputs": [
        {
          "internalType": "bytes32",
          "name": "id",
          "type": "bytes32"
        }
      ],
      "name": "isActive",
      "outputs": [
        {
          "internalType": "bool",
          "name": "",
          "type": "bool"
        }
      ],
      "stateMutability": "view",
      "type": "function",
      "constant": true
    }
  ],
  "bytecode": "0x60806040523480156200001157600080fd5b506040516200203438038062002034833981810160405281019062000037919062000119565b826000806101000a81548173ffffffffffffffffffffffffffffffffffffffff021916908373ffffffffffffffffffffffffffffffffffffffff16021790555080600260006101000a81548173ffffffffffffffffffffffffffffffffffffffff021916908373ffffffffffffffffffffffffffffffffffffffff16021790555081600160006101000a81548173ffffffffffffffffffffffffffffffffffffffff021916908373ffffffffffffffffffffffffffffffffffffffff160217905550505050620001bd565b6000815190506200011381620001a3565b92915050565b6000806000606084860312156200012f57600080fd5b60006200013f8682870162000102565b9350506020620001528682870162000102565b9250506040620001658682870162000102565b9150509250925092565b60006200017c8262000183565b9050919050565b600073ffffffffffffffffffffffffffffffffffffffff82169050919050565b620001ae816200016f565b8114620001ba57600080fd5b50565b611e6780620001cd6000396000f3fe60806040526004361061007b5760003560e01c80638eaa6ac01161004e5780638eaa6ac0146101535780639fda5b6614610190578063caadea17146101d3578063dc0f97df146102105761007b565b806338a699a4146100805780635c36901c146100bd5780636485d678146100fa5780636c68549f14610116575b600080fd5b34801561008c57600080fd5b506100a760048036038101906100a291906113fe565b61024d565b6040516100b49190611a0c565b60405180910390f35b3480156100c957600080fd5b506100e460048036038101906100df91906113fe565b610270565b6040516100f19190611a0c565b60405180910390f35b610114600480360381019061010f919061148c565b6102c4565b005b34801561012257600080fd5b5061013d60048036038101906101389190611450565b610533565b60405161014a9190611a0c565b60405180910390f35b34801561015f57600080fd5b5061017a600480360381019061017591906113fe565b610a2b565b6040516101879190611ccc565b60405180910390f35b34801561019c57600080fd5b506101b760048036038101906101b291906113fe565b610b0c565b6040516101ca9796959493929190611a27565b60405180910390f35b3480156101df57600080fd5b506101fa60048036038101906101f591906113fe565b610b88565b6040516102079190611a0c565b60405180910390f35b34801561021c57600080fd5b50610237600480360381019061023291906114c8565b610bb5565b6040516102449190611a0c565b60405180910390f35b600080600360008481526020019081526020016000206004015414159050919050565b600061027b8261024d565b156102ba57600115156003600084815260200190815260200160002060000160009054906101000a900460ff16151514156102b957600190506102bf565b5b600090505b919050565b816000600115156102d48361024d565b151514610316576040517f08c379a000000000000000000000000000000000000000000000000000000000815260040161030d90611c6c565b60405180910390fd5b600073__Shared________________________________6339f05272846040518263ffffffff1660e01b815260040161034f9190611a96565b60206040518083038186803b15801561036757600080fd5b505af415801561037b573d6000803e3d6000fd5b505050506040513d601f19601f8201168201806040525081019061039f919061152b565b9050600160009054906101000a900473ffffffffffffffffffffffffffffffffffffffff1673ffffffffffffffffffffffffffffffffffffffff1663b2acbc1382336040518363ffffffff1660e01b81526004016103fe929190611b63565b60206040518083038186803b15801561041657600080fd5b505afa15801561042a573d6000803e3d6000fd5b505050506040513d601f19601f8201168201806040525081019061044e91906113d5565b61048d576040517f08c379a000000000000000000000000000000000000000000000000000000000815260040161048490611b8c565b60405180910390fd5b81156104fe57600115156003600085815260200190815260200160002060000160009054906101000a900460ff161515146104fd576040517f08c379a00000000000000000000000000000000000000000000000000000000081526004016104f490611bec565b60405180910390fd5b5b836003600087815260200190815260200160002060000160006101000a81548160ff0219169083151502179055505050505050565b60008233600073__Shared________________________________6339f05272846040518263ffffffff1660e01b81526004016105709190611a96565b60206040518083038186803b15801561058857600080fd5b505af415801561059c573d6000803e3d6000fd5b505050506040513d601f19601f820116820180604052508101906105c0919061152b565b905060011515600160009054906101000a900473ffffffffffffffffffffffffffffffffffffffff1673ffffffffffffffffffffffffffffffffffffffff1663121e9cda836040518263ffffffff1660e01b81526004016106219190611b1f565b60206040518083038186803b15801561063957600080fd5b505afa15801561064d573d6000803e3d6000fd5b505050506040513d601f19601f8201168201806040525081019061067191906113d5565b1515146106b3576040517f08c379a00000000000000000000000000000000000000000000000000000000081526004016106aa90611cac565b60405180910390fd5b600160009054906101000a900473ffffffffffffffffffffffffffffffffffffffff1673ffffffffffffffffffffffffffffffffffffffff1663b2acbc1382846040518363ffffffff1660e01b8152600401610710929190611b3a565b60206040518083038186803b15801561072857600080fd5b505afa15801561073c573d6000803e3d6000fd5b505050506040513d601f19601f8201168201806040525081019061076091906113d5565b61079f576040517f08c379a000000000000000000000000000000000000000000000000000000000815260040161079690611bac565b60405180910390fd5b600073__Shared________________________________639776ec5b886040518263ffffffff1660e01b81526004016107d89190611a96565b60206040518083038186803b1580156107f057600080fd5b505af4158015610804573d6000803e3d6000fd5b505050506040513d601f19601f820116820180604052508101906108289190611427565b905061083381610b88565b610872576040517f08c379a000000000000000000000000000000000000000000000000000000000815260040161086990611c8c565b60405180910390fd5b6000151561087f8861024d565b1515146108c1576040517f08c379a00000000000000000000000000000000000000000000000000000000081526004016108b890611c4c565b60405180910390fd5b60006003600083815260200190815260200160002090508060030160008154809291906001019190505550806002015481600301541115610937576040517f08c379a000000000000000000000000000000000000000000000000000000000815260040161092e90611bcc565b60405180910390fd5b61096988600060018460050160009054906101000a900473ffffffffffffffffffffffffffffffffffffffff16611154565b508060050160009054906101000a900473ffffffffffffffffffffffffffffffffffffffff1673ffffffffffffffffffffffffffffffffffffffff16635127c4ae898960016040518463ffffffff1660e01b81526004016109cc93929190611ae8565b602060405180830381600087803b1580156109e657600080fd5b505af11580156109fa573d6000803e3d6000fd5b505050506040513d601f19601f82011682018060405250810190610a1e91906113d5565b9550505050505092915050565b610a336112d6565b600360008381526020019081526020016000206040518060e00160405290816000820160009054906101000a900460ff161515151581526020016000820160019054906101000a900460ff16151515158152602001600182015481526020016002820154815260200160038201548152602001600482015481526020016005820160009054906101000a900473ffffffffffffffffffffffffffffffffffffffff1673ffffffffffffffffffffffffffffffffffffffff1673ffffffffffffffffffffffffffffffffffffffff16815250509050919050565b60036020528060005260406000206000915090508060000160009054906101000a900460ff16908060000160019054906101000a900460ff16908060010154908060020154908060030154908060040154908060050160009054906101000a900473ffffffffffffffffffffffffffffffffffffffff16905087565b60006003600083815260200190815260200160002060000160019054906101000a900460ff169050919050565b60008433600073__Shared________________________________6339f05272846040518263ffffffff1660e01b8152600401610bf29190611a96565b60206040518083038186803b158015610c0a57600080fd5b505af4158015610c1e573d6000803e3d6000fd5b505050506040513d601f19601f82011682018060405250810190610c42919061152b565b905060011515600160009054906101000a900473ffffffffffffffffffffffffffffffffffffffff1673ffffffffffffffffffffffffffffffffffffffff1663121e9cda836040518263ffffffff1660e01b8152600401610ca39190611b1f565b60206040518083038186803b158015610cbb57600080fd5b505afa158015610ccf573d6000803e3d6000fd5b505050506040513d601f19601f82011682018060405250810190610cf391906113d5565b151514610d35576040517f08c379a0000000000000000000000000000000000000000000000000000000008152600401610d2c90611cac565b60405180910390fd5b600160009054906101000a900473ffffffffffffffffffffffffffffffffffffffff1673ffffffffffffffffffffffffffffffffffffffff1663b2acbc1382846040518363ffffffff1660e01b8152600401610d92929190611b3a565b60206040518083038186803b158015610daa57600080fd5b505afa158015610dbe573d6000803e3d6000fd5b505050506040513d601f19601f82011682018060405250810190610de291906113d5565b610e21576040517f08c379a0000000000000000000000000000000000000000000000000000000008152600401610e1890611bac565b60405180910390fd5b60008611610e64576040517f08c379a0000000000000000000000000000000000000000000000000000000008152600401610e5b90611c0c565b60405180910390fd5b8615610eb15763ffffffff8610610eb0576040517f08c379a0000000000000000000000000000000000000000000000000000000008152600401610ea790611c2c565b60405180910390fd5b5b60001515610ebe8961024d565b151514610f00576040517f08c379a0000000000000000000000000000000000000000000000000000000008152600401610ef790611c4c565b60405180910390fd5b610f0c88888888611154565b5060008573ffffffffffffffffffffffffffffffffffffffff16635127c4ae8a338b610f38578a610f3b565b60015b6040518463ffffffff1660e01b8152600401610f5993929190611ab1565b602060405180830381600087803b158015610f7357600080fd5b505af1158015610f87573d6000803e3d6000fd5b505050506040513d601f19601f82011682018060405250810190610fab91906113d5565b90508015611143576000809054906101000a900473ffffffffffffffffffffffffffffffffffffffff1673ffffffffffffffffffffffffffffffffffffffff1663a3ffa9cd33600260009054906101000a900473ffffffffffffffffffffffffffffffffffffffff1673ffffffffffffffffffffffffffffffffffffffff16632a9133c16040518163ffffffff1660e01b815260040160206040518083038186803b15801561105957600080fd5b505afa15801561106d573d6000803e3d6000fd5b505050506040513d601f19601f820116820180604052508101906110919190611554565b6040518363ffffffff1660e01b81526004016110ae9291906119e3565b602060405180830381600087803b1580156110c857600080fd5b505af11580156110dc573d6000803e3d6000fd5b505050506040513d601f19601f8201168201806040525081019061110091906113d5565b50887f01f32dc6ec5e82e259f9638b97afae4aa0ddd34dc0098d238672f51a9f31f4728760405161113191906119c8565b60405180910390a26001945050611149565b60009450505b505050949350505050565b600061115e6112d6565b848160200190151590811515815250506001816000019015159081151581525050428160a0018181525050828160c0019073ffffffffffffffffffffffffffffffffffffffff16908173ffffffffffffffffffffffffffffffffffffffff16815250508381604001818152505084156111f25760018160400181815250508381606001818152505060008160800181815250505b806003600088815260200190815260200160002060008201518160000160006101000a81548160ff02191690831515021790555060208201518160000160016101000a81548160ff02191690831515021790555060408201518160010155606082015181600201556080820151816003015560a0820151816004015560c08201518160050160006101000a81548173ffffffffffffffffffffffffffffffffffffffff021916908373ffffffffffffffffffffffffffffffffffffffff16021790555090505060046000815480929190600101919050555085915050949350505050565b6040518060e0016040528060001515815260200160001515815260200160008152602001600081526020016000815260200160008152602001600073ffffffffffffffffffffffffffffffffffffffff1681525090565b60008135905061133c81611dbe565b92915050565b60008135905061135181611dd5565b92915050565b60008151905061136681611dd5565b92915050565b60008135905061137b81611dec565b92915050565b60008151905061139081611dec565b92915050565b6000815190506113a581611e03565b92915050565b6000813590506113ba81611e1a565b92915050565b6000815190506113cf81611e1a565b92915050565b6000602082840312156113e757600080fd5b60006113f584828501611357565b91505092915050565b60006020828403121561141057600080fd5b600061141e8482850161136c565b91505092915050565b60006020828403121561143957600080fd5b600061144784828501611381565b91505092915050565b6000806040838503121561146357600080fd5b60006114718582860161136c565b92505060206114828582860161132d565b9150509250929050565b6000806040838503121561149f57600080fd5b60006114ad8582860161136c565b92505060206114be85828601611342565b9150509250929050565b600080600080608085870312156114de57600080fd5b60006114ec8782880161136c565b94505060206114fd87828801611342565b935050604061150e878288016113ab565b925050606061151f8782880161132d565b91505092959194509250565b60006020828403121561153d57600080fd5b600061154b84828501611396565b91505092915050565b60006020828403121561156657600080fd5b6000611574848285016113c0565b91505092915050565b61158681611d76565b82525050565b61159581611cf8565b82525050565b6115a481611cf8565b82525050565b6115b381611d0a565b82525050565b6115c281611d0a565b82525050565b6115d181611d16565b82525050565b6115e081611d16565b82525050565b6115ef81611d20565b82525050565b6115fe81611d88565b82525050565b6000611611602383611ce7565b91507f4f6e6c79207075626c697368657220697320616c6c6f77656420746f206d6f6460008301527f69667900000000000000000000000000000000000000000000000000000000006020830152604082019050919050565b6000611677601f83611ce7565b91507f4f6e6c79205075626c69736865722063616e20697373756520617373657473006000830152602082019050919050565b60006116b7601d83611ce7565b91507f4c696d6974206f66204e4641207175616e7469747920726561636865640000006000830152602082019050919050565b60006116f7602983611ce7565b91507f41737365742064697361626c65642c206d6f64696669636174696f6e73206e6f60008301527f7420616c6c6f77656400000000000000000000000000000000000000000000006020830152604082019050919050565b600061175d601583611ce7565b91507f4d696e696d756d207175616e74697479206973203100000000000000000000006000830152602082019050919050565b600061179d603583611ce7565b91507f526f6f74206173736574732063616e206f6e6c7920686176652034323934393660008301527f37323935206d6178696d756d206368696c6472656e00000000000000000000006020830152604082019050919050565b6000611803601483611ce7565b91507f417373657420616c7265616479206973737565640000000000000000000000006000830152602082019050919050565b6000611843600d83611ce7565b91507f556e6b6e6f776e206173736574000000000000000000000000000000000000006000830152602082019050919050565b6000611883602383611ce7565b91507f496e76616c6964206f72206e6f6e6520726f6f742061737365742070726f766960008301527f64656400000000000000000000000000000000000000000000000000000000006020830152604082019050919050565b60006118e9601583611ce7565b91507f5075626c697368657220697320696e61637469766500000000000000000000006000830152602082019050919050565b60e08201600082015161193260008501826115aa565b50602082015161194560208501826115aa565b50604082015161195860408501826119aa565b50606082015161196b60608501826119aa565b50608082015161197e60808501826119aa565b5060a082015161199160a08501826119aa565b5060c08201516119a460c085018261158c565b50505050565b6119b381611d6c565b82525050565b6119c281611d6c565b82525050565b60006020820190506119dd600083018461159b565b92915050565b60006040820190506119f8600083018561157d565b611a0560208301846119b9565b9392505050565b6000602082019050611a2160008301846115b9565b92915050565b600060e082019050611a3c600083018a6115b9565b611a4960208301896115b9565b611a5660408301886119b9565b611a6360608301876119b9565b611a7060808301866119b9565b611a7d60a08301856119b9565b611a8a60c083018461159b565b98975050505050505050565b6000602082019050611aab60008301846115d7565b92915050565b6000606082019050611ac660008301866115c8565b611ad3602083018561157d565b611ae060408301846119b9565b949350505050565b6000606082019050611afd60008301866115c8565b611b0a602083018561159b565b611b1760408301846115f5565b949350505050565b6000602082019050611b3460008301846115e6565b92915050565b6000604082019050611b4f60008301856115e6565b611b5c602083018461159b565b9392505050565b6000604082019050611b7860008301856115e6565b611b85602083018461157d565b9392505050565b60006020820190508181036000830152611ba581611604565b9050919050565b60006020820190508181036000830152611bc58161166a565b9050919050565b60006020820190508181036000830152611be5816116aa565b9050919050565b60006020820190508181036000830152611c05816116ea565b9050919050565b60006020820190508181036000830152611c2581611750565b9050919050565b60006020820190508181036000830152611c4581611790565b9050919050565b60006020820190508181036000830152611c65816117f6565b9050919050565b60006020820190508181036000830152611c8581611836565b9050919050565b60006020820190508181036000830152611ca581611876565b9050919050565b60006020820190508181036000830152611cc5816118dc565b9050919050565b600060e082019050611ce1600083018461191c565b92915050565b600082825260208201905092915050565b6000611d0382611d4c565b9050919050565b60008115159050919050565b6000819050919050565b60007fffffffffffffffff00000000000000000000000000000000000000000000000082169050919050565b600073ffffffffffffffffffffffffffffffffffffffff82169050919050565b6000819050919050565b6000611d8182611d9a565b9050919050565b6000611d9382611d6c565b9050919050565b6000611da582611dac565b9050919050565b6000611db782611d4c565b9050919050565b611dc781611cf8565b8114611dd257600080fd5b50565b611dde81611d0a565b8114611de957600080fd5b50565b611df581611d16565b8114611e0057600080fd5b50565b611e0c81611d20565b8114611e1757600080fd5b50565b611e2381611d6c565b8114611e2e57600080fd5b5056fea264697066735822122086f44c1660bcea13ae3eabd75e234938aa8ca296c8d66991df5e37f694fa7b0064736f6c63430006040033",
  "source": "pragma solidity 0.6.4;\npragma experimental ABIEncoderV2;\n\nimport \"../libs/Shared.sol\";\n\nimport \"../Juice.sol\";\nimport \"../Consortium.sol\";\n\nimport \"./Publishers.sol\";\nimport \"./INetwork.sol\";\n\ncontract Assets {\n\n    // When asset issued\n    event Issued(bytes32 indexed id, address network);\n\n    /**\n    *   Asset Model\n    *   -active: Asset is enabled for trading\n    *   -root: Root assets are parents of NFA's\n\n    *   -quantity: Total amount of issued of this asset\n    *   -nfaLimit: Total allowed amount of nfa's to be issued\n    *   -nftQuantity: Total amount of nfa's issued\n    *\n    *   -created: timestamp issued (block-time)\n    *   -network: network the asset was allocated to\n    */\n    struct Asset {\n        bool active;\n        bool root;\n\n        uint256 quantity;\n        uint256 nfaLimit;\n        uint256 nfaQuantity;\n\n        uint256 created;\n\n        address network;\n    }\n\n    // Juice contract reference\n    Juice internal juice;\n\n    // Publishers contract reference\n    Publishers internal publishers;\n\n    // Consortium contract reference\n    Consortium internal consortium;\n\n    constructor(address juiceAddress, address publisherAddress, address consortiumAddress) public {\n        juice = Juice(juiceAddress);\n        consortium = Consortium(consortiumAddress);\n        publishers = Publishers(publisherAddress);\n    }\n\n    /**\n     * Array with all assets\n     */\n    mapping(bytes32 => Asset) public assets;\n    uint256 assetCounter;\n\n\n    // ----------------------------------------------------------------------------------------------------------\n    // ----------------------------------------------- MODIFIERS ------------------------------------------------\n    // ----------------------------------------------------------------------------------------------------------\n\n\n    /**\n      *  Verify Asset exists, and sender is owner\n      *  additionally require the asset to be active.\n      *\n      *  active: true when assets needs to be active to proceed\n      */\n    modifier isOwnerAndExists(bytes32 id, bool active) {\n\n        // verify asset exists\n        require(exists(id) == true, \"Unknown asset\");\n\n        // verify publisher is calling\n        bytes8 publisher = Shared.extractPublisher(id);\n        require(publishers.isOwner(publisher, msg.sender), \"Only publisher is allowed to modify\");\n\n        // check (optional) if asset was disabled\n        if (active)\n            require(assets[id].active == true, \"Asset disabled, modifications not allowed\");\n\n        _;\n    }\n\n    /**\n     *  Check if user is allowed publisher for issuing the asset\n     */\n    modifier _isValidIssuer(bytes32 assetId, address sender){\n        bytes8 publisher = Shared.extractPublisher(assetId);\n        require(publishers.isAvailable(publisher) == true, \"Publisher is inactive\");\n        require(publishers.isOwner(publisher, sender), \"Only Publisher can issue assets\");\n        _;\n    }\n\n    // ----------------------------------------------------------------------------------------------------------\n    // ------------------------------------------------ INTERNAL ------------------------------------------------\n    // ----------------------------------------------------------------------------------------------------------\n\n    function storeAsset(bytes32 id, bool root, uint256 quantity, address network) internal returns (bytes32) {\n\n        Asset memory a;\n        a.root = root;\n        a.active = true;\n        a.created = block.timestamp;\n        a.network = network;\n\n        a.quantity = quantity;\n\n        if (root){\n            a.quantity = 1;\n            a.nfaLimit = quantity;\n            a.nfaQuantity = 0;\n        }\n\n        assets[id] = a;\n        assetCounter++;\n\n        return id;\n    }\n\n    // ----------------------------------------------------------------------------------------------------------\n    // ------------------------------------------------- PUBLIC -------------------------------------------------\n    // ----------------------------------------------------------------------------------------------------------\n\n\n    /**\n     *  Issue new asset\n     */\n    function issue(bytes32 id, bool root, uint256 quantity, address network)\n        public _isValidIssuer(id, msg.sender) returns (bool) {\n\n        // Check quantity\n        require(quantity > 0, \"Minimum quantity is 1\");\n\n        // if root then only uint32 allowed as anount\n        if (root)\n            require(quantity < 4294967295, \"Root assets can only have 4294967295 maximum children\");\n\n        // check if not exists\n        require(exists(id) == false, \"Asset already issued\");\n\n        storeAsset(id, root, quantity, network);\n\n        // deposit new asset into account\n        bool result = INetwork(network).allocate(id, msg.sender, root ? 1 : quantity);\n\n        if (result){\n            // charge publisher the fee\n            juice.charge(msg.sender, consortium.issueFee());\n            emit Issued(id, network);\n            return true;\n        }\n\n        return false;\n    }\n\n\n    /**\n     *  Issue and transfer nfa\n     */\n    function issueNFA(bytes32 assetId, address receiver)\n        public _isValidIssuer(assetId,msg.sender) returns (bool) {\n\n        // extract master-assets id\n        bytes32 rootAssetId = Shared.extractRootId(assetId);\n        require(isRoot(rootAssetId), \"Invalid or none root asset provided\");\n\n        // Check if asset is existing\n        require(exists(assetId) == false, \"Asset already issued\");\n\n        // load master-asset\n        Asset storage rootAsset = assets[rootAssetId];\n        rootAsset.nfaQuantity++;   // increase count\n\n        // check if more nfa's can be issued\n        require(rootAsset.nfaQuantity <= rootAsset.nfaLimit, \"Limit of NFA quantity reached\");\n\n        // create nfa\n        storeAsset(assetId, false, 1, rootAsset.network);\n\n        // deposit new asset into account\n        return INetwork(rootAsset.network).allocate(assetId, receiver, 1);\n    }\n\n    // ----------------------------------------------------------------------------------------------------------\n    // ------------------------------------------------ SETTERS -------------------------------------------------\n    // ----------------------------------------------------------------------------------------------------------\n\n\n    /**\n     * Enable and disable the asset (globally)\n     */\n    function setActive(bytes32 id, bool active) public payable isOwnerAndExists(id, false) {\n        assets[id].active = active;\n    }\n\n    // ----------------------------------------------------------------------------------------------------------\n    // ------------------------------------------------ GETTERS -------------------------------------------------\n    // ----------------------------------------------------------------------------------------------------------\n\n    /**\n     *  Get asset\n     */\n    function get(bytes32 id) public view returns (Asset memory) {\n        return assets[id];\n    }\n\n    // ----------------------------------------------------------------------------------------------------------\n    // ------------------------------------------------ HELPERS -------------------------------------------------\n    // ----------------------------------------------------------------------------------------------------------\n\n    /*\n     *  Check if asset exists\n     */\n    function exists(bytes32 id) public view returns (bool) {\n        return assets[id].created != 0;\n    }\n\n    /*\n     *  Check if asset is root asset\n     */\n    function isRoot(bytes32 id) public view returns (bool) {\n        return assets[id].root;\n    }\n\n    /*\n     *  Check if asset exists and is active\n     */\n    function isActive(bytes32 id) public view returns (bool) {\n        if (exists(id))\n            if (assets[id].active == true) return true;\n\n        return false;\n    }\n\n}\n",
  "sourcePath": "/home/monsi/Documents/Projects/juicechain-contracts/contracts/core/Assets.sol",
  "compiler": {
    "name": "solc",
    "version": "0.6.4+commit.1dca32f3.Emscripten.clang"
  },
  "schemaVersion": "3.0.23",
  "updatedAt": "2020-05-08T13:23:38.155Z",
  "networkType": "ethereum",
  "devdoc": {
    "methods": {}
  },
  "userdoc": {
    "methods": {
      "get(bytes32)": {
        "notice": "Get asset"
      },
      "issue(bytes32,bool,uint256,address)": {
        "notice": "Issue new asset"
      },
      "issueNFA(bytes32,address)": {
        "notice": "Issue and transfer nfa"
      },
      "setActive(bytes32,bool)": {
        "notice": "Enable and disable the asset (globally)"
      }
    }
  }
}