{
  "contractName": "Publishers",
  "abi": [
    {
      "inputs": [
        {
          "internalType": "address",
          "name": "_consortium",
          "type": "address"
        },
        {
          "internalType": "address",
          "name": "_juice",
          "type": "address"
        }
      ],
      "stateMutability": "payable",
      "type": "constructor",
      "payable": true
    },
    {
      "anonymous": false,
      "inputs": [
        {
          "indexed": true,
          "internalType": "bytes8",
          "name": "id",
          "type": "bytes8"
        },
        {
          "indexed": true,
          "internalType": "address",
          "name": "owner",
          "type": "address"
        }
      ],
      "name": "PublisherCreated",
      "type": "event"
    },
    {
      "inputs": [
        {
          "internalType": "bytes8",
          "name": "id",
          "type": "bytes8"
        },
        {
          "internalType": "address",
          "name": "owner",
          "type": "address"
        }
      ],
      "name": "create",
      "outputs": [],
      "stateMutability": "payable",
      "type": "function",
      "payable": true
    },
    {
      "inputs": [
        {
          "internalType": "bytes8",
          "name": "id",
          "type": "bytes8"
        },
        {
          "internalType": "bool",
          "name": "active",
          "type": "bool"
        }
      ],
      "name": "setActive",
      "outputs": [],
      "stateMutability": "payable",
      "type": "function",
      "payable": true
    },
    {
      "inputs": [
        {
          "internalType": "bytes8",
          "name": "id",
          "type": "bytes8"
        },
        {
          "internalType": "bytes32[2]",
          "name": "checksum",
          "type": "bytes32[2]"
        }
      ],
      "name": "setChecksum",
      "outputs": [],
      "stateMutability": "payable",
      "type": "function",
      "payable": true
    },
    {
      "inputs": [
        {
          "internalType": "bytes8",
          "name": "id",
          "type": "bytes8"
        },
        {
          "internalType": "bytes32",
          "name": "host1",
          "type": "bytes32"
        },
        {
          "internalType": "bytes32",
          "name": "host2",
          "type": "bytes32"
        }
      ],
      "name": "setHosts",
      "outputs": [],
      "stateMutability": "payable",
      "type": "function",
      "payable": true
    },
    {
      "inputs": [
        {
          "internalType": "bytes8",
          "name": "id",
          "type": "bytes8"
        },
        {
          "internalType": "address",
          "name": "newOwner",
          "type": "address"
        }
      ],
      "name": "transfer",
      "outputs": [
        {
          "internalType": "bool",
          "name": "",
          "type": "bool"
        }
      ],
      "stateMutability": "payable",
      "type": "function",
      "payable": true
    },
    {
      "inputs": [
        {
          "internalType": "bytes8",
          "name": "id",
          "type": "bytes8"
        }
      ],
      "name": "isAvailable",
      "outputs": [
        {
          "internalType": "bool",
          "name": "",
          "type": "bool"
        }
      ],
      "stateMutability": "view",
      "type": "function",
      "constant": true
    },
    {
      "inputs": [
        {
          "internalType": "bytes8",
          "name": "id",
          "type": "bytes8"
        },
        {
          "internalType": "address",
          "name": "ownerAddress",
          "type": "address"
        }
      ],
      "name": "isOwner",
      "outputs": [
        {
          "internalType": "bool",
          "name": "",
          "type": "bool"
        }
      ],
      "stateMutability": "view",
      "type": "function",
      "constant": true
    },
    {
      "inputs": [
        {
          "internalType": "bytes8",
          "name": "id",
          "type": "bytes8"
        }
      ],
      "name": "getOwner",
      "outputs": [
        {
          "internalType": "address",
          "name": "",
          "type": "address"
        }
      ],
      "stateMutability": "view",
      "type": "function",
      "constant": true
    },
    {
      "inputs": [
        {
          "internalType": "bytes8",
          "name": "id",
          "type": "bytes8"
        }
      ],
      "name": "get",
      "outputs": [
        {
          "components": [
            {
              "internalType": "bytes8",
              "name": "id",
              "type": "bytes8"
            },
            {
              "internalType": "bool",
              "name": "active",
              "type": "bool"
            },
            {
              "internalType": "uint256",
              "name": "created",
              "type": "uint256"
            },
            {
              "internalType": "bytes32[2]",
              "name": "checksum",
              "type": "bytes32[2]"
            },
            {
              "internalType": "bytes32[2]",
              "name": "hosts",
              "type": "bytes32[2]"
            }
          ],
          "internalType": "struct Publishers.Publisher",
          "name": "",
          "type": "tuple"
        }
      ],
      "stateMutability": "view",
      "type": "function",
      "constant": true
    }
  ],
  "bytecode": "0x608060405260405162001845380380620018458339818101604052810190620000299190620000c9565b806000806101000a81548173ffffffffffffffffffffffffffffffffffffffff021916908373ffffffffffffffffffffffffffffffffffffffff16021790555081600160006101000a81548173ffffffffffffffffffffffffffffffffffffffff021916908373ffffffffffffffffffffffffffffffffffffffff160217905550505062000158565b600081519050620000c3816200013e565b92915050565b60008060408385031215620000dd57600080fd5b6000620000ed85828601620000b2565b92505060206200010085828601620000b2565b9150509250929050565b600062000117826200011e565b9050919050565b600073ffffffffffffffffffffffffffffffffffffffff82169050919050565b62000149816200010a565b81146200015557600080fd5b50565b6116dd80620001686000396000f3fe6080604052600436106100865760003560e01c806347ba65d21161005957806347ba65d21461011c57806351c8aa9914610159578063888fa29214610196578063b2acbc13146101c6578063cdce01ef1461020357610086565b8063121e9cda1461008b578063333d0b12146100c8578063381665bf146100e45780633eb0efbc14610100575b600080fd5b34801561009757600080fd5b506100b260048036038101906100ad9190611115565b61021f565b6040516100bf919061147d565b60405180910390f35b6100e260048036038101906100dd91906111b6565b6102e1565b005b6100fe60048036038101906100f991906111f2565b610424565b005b61011a6004803603810190610115919061117a565b6105c0565b005b34801561012857600080fd5b50610143600480360381019061013e9190611115565b6106fb565b60405161015091906114d8565b60405180910390f35b34801561016557600080fd5b50610180600480360381019061017b9190611115565b61085a565b60405161018d9190611439565b60405180910390f35b6101b060048036038101906101ab919061113e565b6108cd565b6040516101bd919061147d565b60405180910390f35b3480156101d257600080fd5b506101ed60048036038101906101e8919061113e565b610a3c565b6040516101fa919061147d565b60405180910390f35b61021d6004803603810190610218919061113e565b610ade565b005b600080600360008477ffffffffffffffffffffffffffffffffffffffffffffffff191677ffffffffffffffffffffffffffffffffffffffffffffffff1916815260200190815260200160002060010154141580156102da575060011515600360008477ffffffffffffffffffffffffffffffffffffffffffffffff191677ffffffffffffffffffffffffffffffffffffffffffffffff1916815260200190815260200160002060000160089054906101000a900460ff161515145b9050919050565b81338073ffffffffffffffffffffffffffffffffffffffff16600260008477ffffffffffffffffffffffffffffffffffffffffffffffff191677ffffffffffffffffffffffffffffffffffffffffffffffff1916815260200190815260200160002060009054906101000a900473ffffffffffffffffffffffffffffffffffffffff1673ffffffffffffffffffffffffffffffffffffffff16146103ba576040517f08c379a00000000000000000000000000000000000000000000000000000000081526004016103b190611498565b60405180910390fd5b82600360008677ffffffffffffffffffffffffffffffffffffffffffffffff191677ffffffffffffffffffffffffffffffffffffffffffffffff1916815260200190815260200160002060000160086101000a81548160ff02191690831515021790555050505050565b82338073ffffffffffffffffffffffffffffffffffffffff16600260008477ffffffffffffffffffffffffffffffffffffffffffffffff191677ffffffffffffffffffffffffffffffffffffffffffffffff1916815260200190815260200160002060009054906101000a900473ffffffffffffffffffffffffffffffffffffffff1673ffffffffffffffffffffffffffffffffffffffff16146104fd576040517f08c379a00000000000000000000000000000000000000000000000000000000081526004016104f490611498565b60405180910390fd5b83600360008777ffffffffffffffffffffffffffffffffffffffffffffffff191677ffffffffffffffffffffffffffffffffffffffffffffffff1916815260200190815260200160002060040160006002811061055657fe5b018190555082600360008777ffffffffffffffffffffffffffffffffffffffffffffffff191677ffffffffffffffffffffffffffffffffffffffffffffffff191681526020019081526020016000206004016001600281106105b457fe5b01819055505050505050565b81338073ffffffffffffffffffffffffffffffffffffffff16600260008477ffffffffffffffffffffffffffffffffffffffffffffffff191677ffffffffffffffffffffffffffffffffffffffffffffffff1916815260200190815260200160002060009054906101000a900473ffffffffffffffffffffffffffffffffffffffff1673ffffffffffffffffffffffffffffffffffffffff1614610699576040517f08c379a000000000000000000000000000000000000000000000000000000000815260040161069090611498565b60405180910390fd5b82600360008677ffffffffffffffffffffffffffffffffffffffffffffffff191677ffffffffffffffffffffffffffffffffffffffffffffffff191681526020019081526020016000206002019060026106f4929190610edb565b5050505050565b610703610f1b565b600360008377ffffffffffffffffffffffffffffffffffffffffffffffff191677ffffffffffffffffffffffffffffffffffffffffffffffff191681526020019081526020016000206040518060a00160405290816000820160009054906101000a900460c01b77ffffffffffffffffffffffffffffffffffffffffffffffff191677ffffffffffffffffffffffffffffffffffffffffffffffff191681526020016000820160089054906101000a900460ff161515151581526020016001820154815260200160028201600280602002604051908101604052809291908260028015610805576020028201915b8154815260200190600101908083116107f1575b505050505081526020016004820160028060200260405190810160405280929190826002801561084a576020028201915b815481526020019060010190808311610836575b5050505050815250509050919050565b6000600260008377ffffffffffffffffffffffffffffffffffffffffffffffff191677ffffffffffffffffffffffffffffffffffffffffffffffff1916815260200190815260200160002060009054906101000a900473ffffffffffffffffffffffffffffffffffffffff169050919050565b600082338073ffffffffffffffffffffffffffffffffffffffff16600260008477ffffffffffffffffffffffffffffffffffffffffffffffff191677ffffffffffffffffffffffffffffffffffffffffffffffff1916815260200190815260200160002060009054906101000a900473ffffffffffffffffffffffffffffffffffffffff1673ffffffffffffffffffffffffffffffffffffffff16146109a8576040517f08c379a000000000000000000000000000000000000000000000000000000000815260040161099f90611498565b60405180910390fd5b83600260008777ffffffffffffffffffffffffffffffffffffffffffffffff191677ffffffffffffffffffffffffffffffffffffffffffffffff1916815260200190815260200160002060006101000a81548173ffffffffffffffffffffffffffffffffffffffff021916908373ffffffffffffffffffffffffffffffffffffffff16021790555060019250505092915050565b60008173ffffffffffffffffffffffffffffffffffffffff16600260008577ffffffffffffffffffffffffffffffffffffffffffffffff191677ffffffffffffffffffffffffffffffffffffffffffffffff1916815260200190815260200160002060009054906101000a900473ffffffffffffffffffffffffffffffffffffffff1673ffffffffffffffffffffffffffffffffffffffff1614905092915050565b6000600360008477ffffffffffffffffffffffffffffffffffffffffffffffff191677ffffffffffffffffffffffffffffffffffffffffffffffff191681526020019081526020016000206001015414610b6d576040517f08c379a0000000000000000000000000000000000000000000000000000000008152600401610b64906114b8565b60405180910390fd5b610b75610f1b565b82816000019077ffffffffffffffffffffffffffffffffffffffffffffffff1916908177ffffffffffffffffffffffffffffffffffffffffffffffff19168152505060018160200190151590811515815250504281604001818152505080600360008577ffffffffffffffffffffffffffffffffffffffffffffffff191677ffffffffffffffffffffffffffffffffffffffffffffffff1916815260200190815260200160002060008201518160000160006101000a81548167ffffffffffffffff021916908360c01c021790555060208201518160000160086101000a81548160ff02191690831515021790555060408201518160010155606082015181600201906002610c85929190610f73565b50608082015181600401906002610c9d929190610f73565b5090505081600260008577ffffffffffffffffffffffffffffffffffffffffffffffff191677ffffffffffffffffffffffffffffffffffffffffffffffff1916815260200190815260200160002060006101000a81548173ffffffffffffffffffffffffffffffffffffffff021916908373ffffffffffffffffffffffffffffffffffffffff1602179055508173ffffffffffffffffffffffffffffffffffffffff168377ffffffffffffffffffffffffffffffffffffffffffffffff19167fbd2c7d08aa332e3e44a3c42455ef6dd98fa9900f146292c6637aa438ddf64cf360405160405180910390a36000809054906101000a900473ffffffffffffffffffffffffffffffffffffffff1673ffffffffffffffffffffffffffffffffffffffff1663a3ffa9cd33600160009054906101000a900473ffffffffffffffffffffffffffffffffffffffff1673ffffffffffffffffffffffffffffffffffffffff1663b42274bc6040518163ffffffff1660e01b815260040160206040518083038186803b158015610e2e57600080fd5b505afa158015610e42573d6000803e3d6000fd5b505050506040513d601f19601f82011682018060405250810190610e669190611241565b6040518363ffffffff1660e01b8152600401610e83929190611454565b602060405180830381600087803b158015610e9d57600080fd5b505af1158015610eb1573d6000803e3d6000fd5b505050506040513d601f19601f82011682018060405250810190610ed591906110ec565b50505050565b8260028101928215610f0a579160200282015b82811115610f09578251825591602001919060010190610eee565b5b509050610f179190610fb3565b5090565b6040518060a00160405280600077ffffffffffffffffffffffffffffffffffffffffffffffff1916815260200160001515815260200160008152602001610f60610fd8565b8152602001610f6d610fd8565b81525090565b8260028101928215610fa2579160200282015b82811115610fa1578251825591602001919060010190610f86565b5b509050610faf9190610fb3565b5090565b610fd591905b80821115610fd1576000816000905550600101610fb9565b5090565b90565b6040518060400160405280600290602082028036833780820191505090505090565b60008135905061100981611634565b92915050565b600082601f83011261102057600080fd5b600261103361102e82611520565b6114f3565b9150818385602084028201111561104957600080fd5b60005b83811015611079578161105f88826110ad565b84526020840193506020830192505060018101905061104c565b5050505092915050565b6000813590506110928161164b565b92915050565b6000815190506110a78161164b565b92915050565b6000813590506110bc81611662565b92915050565b6000813590506110d181611679565b92915050565b6000815190506110e681611690565b92915050565b6000602082840312156110fe57600080fd5b600061110c84828501611098565b91505092915050565b60006020828403121561112757600080fd5b6000611135848285016110c2565b91505092915050565b6000806040838503121561115157600080fd5b600061115f858286016110c2565b925050602061117085828601610ffa565b9150509250929050565b6000806060838503121561118d57600080fd5b600061119b858286016110c2565b92505060206111ac8582860161100f565b9150509250929050565b600080604083850312156111c957600080fd5b60006111d7858286016110c2565b92505060206111e885828601611083565b9150509250929050565b60008060006060848603121561120757600080fd5b6000611215868287016110c2565b9350506020611226868287016110ad565b9250506040611237868287016110ad565b9150509250925092565b60006020828403121561125357600080fd5b6000611261848285016110d7565b91505092915050565b60006112768383611315565b60208301905092915050565b61128b816115fe565b82525050565b61129a81611580565b82525050565b6112a98161154c565b6112b38184611564565b92506112be82611542565b8060005b838110156112ef5781516112d6878261126a565b96506112e183611557565b9250506001810190506112c2565b505050505050565b61130081611592565b82525050565b61130f81611592565b82525050565b61131e8161159e565b82525050565b61132d816115a8565b82525050565b6000611340601f8361156f565b91507f4f6e6c79206f776e657220697320616c6c6f77656420746f206d6f64696679006000830152602082019050919050565b600061138060188361156f565b91507f5075626c697368657220616c72656164792065786973747300000000000000006000830152602082019050919050565b60e0820160008201516113c96000850182611324565b5060208201516113dc60208501826112f7565b5060408201516113ef604085018261141b565b50606082015161140260608501826112a0565b50608082015161141560a08501826112a0565b50505050565b611424816115f4565b82525050565b611433816115f4565b82525050565b600060208201905061144e6000830184611291565b92915050565b60006040820190506114696000830185611282565b611476602083018461142a565b9392505050565b60006020820190506114926000830184611306565b92915050565b600060208201905081810360008301526114b181611333565b9050919050565b600060208201905081810360008301526114d181611373565b9050919050565b600060e0820190506114ed60008301846113b3565b92915050565b6000604051905081810181811067ffffffffffffffff8211171561151657600080fd5b8060405250919050565b600067ffffffffffffffff82111561153757600080fd5b602082029050919050565b6000819050919050565b600060029050919050565b6000602082019050919050565b600081905092915050565b600082825260208201905092915050565b600061158b826115d4565b9050919050565b60008115159050919050565b6000819050919050565b60007fffffffffffffffff00000000000000000000000000000000000000000000000082169050919050565b600073ffffffffffffffffffffffffffffffffffffffff82169050919050565b6000819050919050565b600061160982611610565b9050919050565b600061161b82611622565b9050919050565b600061162d826115d4565b9050919050565b61163d81611580565b811461164857600080fd5b50565b61165481611592565b811461165f57600080fd5b50565b61166b8161159e565b811461167657600080fd5b50565b611682816115a8565b811461168d57600080fd5b50565b611699816115f4565b81146116a457600080fd5b5056fea2646970667358221220be025493d2b80966ffc6e7a943ce3ef6cf049e1c32d4cc0e9db9412d78f53f8064736f6c63430006040033",
  "source": "pragma solidity 0.6.4;\npragma experimental ABIEncoderV2;\n\nimport \"../Consortium.sol\";\nimport \"../Juice.sol\";\n\ncontract Publishers {\n\n    // When new publisher was created\n    event PublisherCreated(bytes8 indexed id, address indexed owner);\n\n    /*\n     *  Publisher Model\n     */\n    struct Publisher {\n        bytes8 id;                  // unique id of publisher\n        bool active;                // only active publishers can issue (Owner can modify)\n        uint256 created;            // block-time when created\n        bytes32[2] checksum;        // hash checksum of identity\n        bytes32[2] hosts;           // domain / target entries to off-chain data provider\n    }\n\n    // Reference to consortium\n    Juice private juice;\n    Consortium private consortium;\n\n    bool private locked;            // if true references can't be changed anymore\n\n    // mapping 8bytes key to Publisher\n    mapping(bytes8 => address) internal owners;\n    mapping(bytes8 => Publisher) internal publishers;\n\n    /**\n     *  Requires current consortium address as reference\n     */\n    constructor(address _consortium, address _juice) public payable {\n        juice = Juice(_juice);\n        consortium = Consortium(_consortium);\n    }\n\n    // ------------------------------------------------------------------------------------------------\n    // ------------------------------------------------------------------------------------------------\n\n    /**\n      * Create new publisher\n      */\n    function create(bytes8 id, address owner) public payable {\n        require(publishers[id].created == 0, \"Publisher already exists\");\n\n        Publisher memory b;\n        b.id = id;\n        b.active = true;\n        b.created = block.timestamp;\n\n        publishers[id] = b;\n        owners[id] = owner;\n\n        emit PublisherCreated(id, owner);\n        juice.charge(msg.sender, consortium.publisherFee());\n    }\n\n    modifier _isOwner(bytes8 id, address ownerAddress) {\n        require(\n            owners[id] == ownerAddress,\n            \"Only owner is allowed to modify\"\n        );\n        _;\n    }\n\n    // ------------------------------------------------------------------------------------------------\n    // ------------------------------------------------------------------------------------------------\n\n    /**\n     * Set active state\n     */\n    function setActive(bytes8 id, bool active) public payable _isOwner(id, msg.sender) {\n        publishers[id].active = active;\n    }\n\n    /**\n     * Set checksum of identity (or content)\n     */\n    function setChecksum(bytes8 id, bytes32[2] memory checksum) public payable _isOwner(id, msg.sender) {\n        publishers[id].checksum = checksum;\n    }\n\n    /**\n     * Set hosts\n     */\n    function setHosts(bytes8 id, bytes32 host1, bytes32 host2) public payable _isOwner(id, msg.sender) {\n        publishers[id].hosts[0] = host1;\n        publishers[id].hosts[1] = host2;\n    }\n\n    /**\n      * Transfer Publisher to another owner\n      */\n    function transfer(bytes8 id, address newOwner) public payable _isOwner(id, msg.sender)  returns (bool) {\n        owners[id] = newOwner;\n    \treturn true;\n    }\n\n    // ------------------------------------------------------------------------------------------------\n    // ------------------------------------------------------------------------------------------------\n\n    /**\n      * Verify the publisher is existing, active and not disabled\n      */\n    function isAvailable(bytes8 id) public view returns (bool){\n        return publishers[id].created != 0 && publishers[id].active == true;\n    }\n\n    /**\n      * Verify the given account is owning the publisher\n      */\n    function isOwner(bytes8 id, address ownerAddress) public view returns (bool){\n        return owners[id] == ownerAddress;\n    }\n\n    /**\n     * Return address of Publisher owner\n     */\n    function getOwner(bytes8 id) public view returns (address) {\n        return owners[id];\n    }\n\n    /**\n     * Get Publisher data\n     */\n    function get(bytes8 id) public view  returns (Publisher memory){\n        return publishers[id];\n    }\n\n}\n",
  "sourcePath": "/home/monsi/Documents/Projects/juicechain-contracts/contracts/core/Publishers.sol",
  "compiler": {
    "name": "solc",
    "version": "0.6.4+commit.1dca32f3.Emscripten.clang"
  },
  "schemaVersion": "3.0.23",
  "updatedAt": "2020-05-08T13:23:38.134Z",
  "networkType": "ethereum",
  "devdoc": {
    "methods": {}
  },
  "userdoc": {
    "methods": {
      "constructor": "Requires current consortium address as reference",
      "create(bytes8,address)": {
        "notice": "Create new publisher"
      },
      "get(bytes8)": {
        "notice": "Get Publisher data"
      },
      "getOwner(bytes8)": {
        "notice": "Return address of Publisher owner"
      },
      "isAvailable(bytes8)": {
        "notice": "Verify the publisher is existing, active and not disabled"
      },
      "isOwner(bytes8,address)": {
        "notice": "Verify the given account is owning the publisher"
      },
      "setActive(bytes8,bool)": {
        "notice": "Set active state"
      },
      "setChecksum(bytes8,bytes32[2])": {
        "notice": "Set checksum of identity (or content)"
      },
      "setHosts(bytes8,bytes32,bytes32)": {
        "notice": "Set hosts"
      },
      "transfer(bytes8,address)": {
        "notice": "Transfer Publisher to another owner"
      }
    }
  }
}