{
  "contractName": "Consortium",
  "abi": [
    {
      "inputs": [
        {
          "internalType": "address[10]",
          "name": "inital",
          "type": "address[10]"
        }
      ],
      "stateMutability": "payable",
      "type": "constructor",
      "payable": true
    },
    {
      "inputs": [],
      "name": "issueFee",
      "outputs": [
        {
          "internalType": "uint256",
          "name": "",
          "type": "uint256"
        }
      ],
      "stateMutability": "view",
      "type": "function",
      "constant": true
    },
    {
      "inputs": [],
      "name": "openFee",
      "outputs": [
        {
          "internalType": "uint256",
          "name": "",
          "type": "uint256"
        }
      ],
      "stateMutability": "view",
      "type": "function",
      "constant": true
    },
    {
      "inputs": [],
      "name": "publisherFee",
      "outputs": [
        {
          "internalType": "uint256",
          "name": "",
          "type": "uint256"
        }
      ],
      "stateMutability": "view",
      "type": "function",
      "constant": true
    },
    {
      "inputs": [],
      "name": "transferFee",
      "outputs": [
        {
          "internalType": "uint256",
          "name": "",
          "type": "uint256"
        }
      ],
      "stateMutability": "view",
      "type": "function",
      "constant": true
    },
    {
      "inputs": [],
      "name": "updateFee",
      "outputs": [
        {
          "internalType": "uint256",
          "name": "",
          "type": "uint256"
        }
      ],
      "stateMutability": "view",
      "type": "function",
      "constant": true
    },
    {
      "inputs": [
        {
          "internalType": "address",
          "name": "member",
          "type": "address"
        },
        {
          "internalType": "bool",
          "name": "voting",
          "type": "bool"
        }
      ],
      "name": "vote",
      "outputs": [
        {
          "internalType": "bool",
          "name": "",
          "type": "bool"
        }
      ],
      "stateMutability": "payable",
      "type": "function",
      "payable": true
    },
    {
      "inputs": [],
      "name": "getSize",
      "outputs": [
        {
          "internalType": "uint256",
          "name": "",
          "type": "uint256"
        }
      ],
      "stateMutability": "view",
      "type": "function",
      "constant": true
    },
    {
      "inputs": [],
      "name": "getMembers",
      "outputs": [
        {
          "internalType": "address[10]",
          "name": "",
          "type": "address[10]"
        }
      ],
      "stateMutability": "view",
      "type": "function",
      "constant": true
    },
    {
      "inputs": [
        {
          "internalType": "address",
          "name": "member",
          "type": "address"
        }
      ],
      "name": "getMemberVote",
      "outputs": [
        {
          "internalType": "uint8",
          "name": "",
          "type": "uint8"
        }
      ],
      "stateMutability": "view",
      "type": "function",
      "constant": true
    },
    {
      "inputs": [
        {
          "internalType": "address",
          "name": "member",
          "type": "address"
        }
      ],
      "name": "isMember",
      "outputs": [
        {
          "internalType": "bool",
          "name": "",
          "type": "bool"
        }
      ],
      "stateMutability": "view",
      "type": "function",
      "constant": true
    },
    {
      "inputs": [
        {
          "internalType": "uint16",
          "name": "amount",
          "type": "uint16"
        }
      ],
      "name": "voteOpenFee",
      "outputs": [],
      "stateMutability": "nonpayable",
      "type": "function"
    },
    {
      "inputs": [
        {
          "internalType": "uint16",
          "name": "amount",
          "type": "uint16"
        }
      ],
      "name": "voteIssueFee",
      "outputs": [],
      "stateMutability": "nonpayable",
      "type": "function"
    },
    {
      "inputs": [
        {
          "internalType": "uint16",
          "name": "amount",
          "type": "uint16"
        }
      ],
      "name": "voteTransferFee",
      "outputs": [],
      "stateMutability": "nonpayable",
      "type": "function"
    },
    {
      "inputs": [
        {
          "internalType": "uint16",
          "name": "amount",
          "type": "uint16"
        }
      ],
      "name": "voteUpdateFee",
      "outputs": [],
      "stateMutability": "nonpayable",
      "type": "function"
    },
    {
      "inputs": [
        {
          "internalType": "uint16",
          "name": "amount",
          "type": "uint16"
        }
      ],
      "name": "votePublisherFee",
      "outputs": [],
      "stateMutability": "nonpayable",
      "type": "function"
    }
  ],
  "bytecode": "0x608060405260326000556064600155600a6002556001600355600160045560405162001e3a38038062001e3a8339818101604052810190620000429190620003c0565b80600790600a6200005592919062000244565b50600a600660006101000a81548160ff021916908360ff16021790555060008090505b600a8160ff1610156200023c576200008f620002c6565b6001816000019015159081151581525050600a816020019060ff16908160ff16815250508060116000858560ff16600a8110620000c857fe5b602002015173ffffffffffffffffffffffffffffffffffffffff1673ffffffffffffffffffffffffffffffffffffffff16815260200190815260200160002060008201518160000160006101000a81548160ff02191690831515021790555060208201518160000160016101000a81548160ff021916908360ff16021790555090505060008090505b600a8160ff1610156200022c57600160116000868660ff16600a81106200017457fe5b602002015173ffffffffffffffffffffffffffffffffffffffff1673ffffffffffffffffffffffffffffffffffffffff1681526020019081526020016000206001016000868460ff16600a8110620001c857fe5b602002015173ffffffffffffffffffffffffffffffffffffffff1673ffffffffffffffffffffffffffffffffffffffff16815260200190815260200160002060006101000a81548160ff021916908315150217905550808060010191505062000151565b5050808060010191505062000078565b50506200048c565b82600a8101928215620002b3579160200282015b82811115620002b25782518260006101000a81548173ffffffffffffffffffffffffffffffffffffffff021916908373ffffffffffffffffffffffffffffffffffffffff1602179055509160200191906001019062000258565b5b509050620002c29190620002e5565b5090565b6040518060400160405280600015158152602001600060ff1681525090565b6200032891905b808211156200032457600081816101000a81549073ffffffffffffffffffffffffffffffffffffffff021916905550600101620002ec565b5090565b90565b6000815190506200033c8162000472565b92915050565b600082601f8301126200035457600080fd5b600a6200036b62000365826200041b565b620003ed565b915081838560208402820111156200038257600080fd5b60005b83811015620003b657816200039b88826200032b565b84526020840193506020830192505060018101905062000385565b5050505092915050565b60006101408284031215620003d457600080fd5b6000620003e48482850162000342565b91505092915050565b6000604051905081810181811067ffffffffffffffff821117156200041157600080fd5b8060405250919050565b600067ffffffffffffffff8211156200043357600080fd5b602082029050919050565b60006200044b8262000452565b9050919050565b600073ffffffffffffffffffffffffffffffffffffffff82169050919050565b6200047d816200043e565b81146200048957600080fd5b50565b61199e806200049c6000396000f3fe6080604052600436106100e85760003560e01c8063acb2ad6f1161008a578063ce32600011610059578063ce326000146102d7578063d5945b0b14610300578063dd6ca25914610329578063de8fa43114610366576100e8565b8063acb2ad6f14610226578063b42274bc14610251578063b78450731461027c578063bd041c4d146102a7576100e8565b8063758cdcf0116100c6578063758cdcf01461016a57806378e29f0a146101955780639eab5253146101be578063a230c524146101e9576100e8565b80632a9133c1146100ed5780632ae1293d146101185780636d72531214610141575b600080fd5b3480156100f957600080fd5b50610102610391565b60405161010f919061184c565b60405180910390f35b34801561012457600080fd5b5061013f600480360381019061013a919061154f565b610397565b005b34801561014d57600080fd5b506101686004803603810190610163919061154f565b61043d565b005b34801561017657600080fd5b5061017f6104e3565b60405161018c919061184c565b60405180910390f35b3480156101a157600080fd5b506101bc60048036038101906101b7919061154f565b6104e9565b005b3480156101ca57600080fd5b506101d361058f565b6040516101e09190611795565b60405180910390f35b3480156101f557600080fd5b50610210600480360381019061020b91906114ea565b610610565b60405161021d91906117b1565b60405180910390f35b34801561023257600080fd5b5061023b6106b5565b604051610248919061184c565b60405180910390f35b34801561025d57600080fd5b506102666106bb565b604051610273919061184c565b60405180910390f35b34801561028857600080fd5b506102916106c1565b60405161029e919061184c565b60405180910390f35b6102c160048036038101906102bc9190611513565b6106c7565b6040516102ce91906117b1565b60405180910390f35b3480156102e357600080fd5b506102fe60048036038101906102f9919061154f565b610f42565b005b34801561030c57600080fd5b506103276004803603810190610322919061154f565b610fe8565b005b34801561033557600080fd5b50610350600480360381019061034b91906114ea565b61108e565b60405161035d9190611867565b60405180910390f35b34801561037257600080fd5b5061037b6110e7565b604051610388919061184c565b60405180910390f35b60015481565b3360006103a382610610565b9050806103e5576040517f08c379a00000000000000000000000000000000000000000000000000000000081526004016103dc9061182c565b60405180910390fd5b8261ffff16600560003373ffffffffffffffffffffffffffffffffffffffff1673ffffffffffffffffffffffffffffffffffffffff16815260200190815260200160002060040181905550610438611101565b505050565b33600061044982610610565b90508061048b576040517f08c379a00000000000000000000000000000000000000000000000000000000081526004016104829061182c565b60405180910390fd5b8261ffff16600560003373ffffffffffffffffffffffffffffffffffffffff1673ffffffffffffffffffffffffffffffffffffffff168152602001908152602001600020600501819055506104de611101565b505050565b60025481565b3360006104f582610610565b905080610537576040517f08c379a000000000000000000000000000000000000000000000000000000000815260040161052e9061182c565b60405180910390fd5b8261ffff16600560003373ffffffffffffffffffffffffffffffffffffffff1673ffffffffffffffffffffffffffffffffffffffff1681526020019081526020016000206001018190555061058a611101565b505050565b610597611431565b6007600a806020026040519081016040528092919082600a8015610606576020028201915b8160009054906101000a900473ffffffffffffffffffffffffffffffffffffffff1673ffffffffffffffffffffffffffffffffffffffff16815260200190600101908083116105bc575b5050505050905090565b6000806000905060008090505b600660009054906101000a900460ff1660ff168110156106ab57600781600a811061064457fe5b0160009054906101000a900473ffffffffffffffffffffffffffffffffffffffff1673ffffffffffffffffffffffffffffffffffffffff168473ffffffffffffffffffffffffffffffffffffffff16141561069e57600191505b808060010191505061061d565b5080915050919050565b60035481565b60045481565b60005481565b6000806106d333610610565b905080610715576040517f08c379a000000000000000000000000000000000000000000000000000000000815260040161070c906117cc565b60405180910390fd5b6007600660009054906101000a900460ff1660ff1610801561073b575060001515831515145b1561077b576040517f08c379a00000000000000000000000000000000000000000000000000000000081526004016107729061180c565b60405180910390fd5b60001515601160008673ffffffffffffffffffffffffffffffffffffffff1673ffffffffffffffffffffffffffffffffffffffff16815260200190815260200160002060000160009054906101000a900460ff1615151415610876576107df611454565b600181600001901515908115158152505080601160008773ffffffffffffffffffffffffffffffffffffffff1673ffffffffffffffffffffffffffffffffffffffff16815260200190815260200160002060008201518160000160006101000a81548160ff02191690831515021790555060208201518160000160016101000a81548160ff021916908360ff160217905550905050505b6000601160008673ffffffffffffffffffffffffffffffffffffffff1673ffffffffffffffffffffffffffffffffffffffff16815260200190815260200160002060010160003373ffffffffffffffffffffffffffffffffffffffff1673ffffffffffffffffffffffffffffffffffffffff16815260200190815260200160002060009054906101000a900460ff16905083601160008773ffffffffffffffffffffffffffffffffffffffff1673ffffffffffffffffffffffffffffffffffffffff16815260200190815260200160002060010160003373ffffffffffffffffffffffffffffffffffffffff1673ffffffffffffffffffffffffffffffffffffffff16815260200190815260200160002060006101000a81548160ff0219169083151502179055508380156109a9575080155b15610a2557601160008673ffffffffffffffffffffffffffffffffffffffff1673ffffffffffffffffffffffffffffffffffffffff168152602001908152602001600020600001600181819054906101000a900460ff168092919060010191906101000a81548160ff021916908360ff16021790555050610aaa565b83158015610a305750805b15610aa957601160008673ffffffffffffffffffffffffffffffffffffffff1673ffffffffffffffffffffffffffffffffffffffff168152602001908152602001600020600001600181819054906101000a900460ff16809291906001900391906101000a81548160ff021916908360ff160217905550505b5b60008090505b600660009054906101000a900460ff1660ff16811015610d0557600560116000600784600a8110610add57fe5b0160009054906101000a900473ffffffffffffffffffffffffffffffffffffffff1673ffffffffffffffffffffffffffffffffffffffff1673ffffffffffffffffffffffffffffffffffffffff16815260200190815260200160002060000160019054906101000a900460ff1660ff161015610cf8576001600660009054906101000a900460ff160360ff168114610c7d5760076001600660009054906101000a900460ff160360ff16600a8110610b9157fe5b0160009054906101000a900473ffffffffffffffffffffffffffffffffffffffff16600782600a8110610bc057fe5b0160006101000a81548173ffffffffffffffffffffffffffffffffffffffff021916908373ffffffffffffffffffffffffffffffffffffffff16021790555060076001600660009054906101000a900460ff160360ff16600a8110610c2157fe5b0160006101000a81549073ffffffffffffffffffffffffffffffffffffffff02191690556006600081819054906101000a900460ff16809291906001900391906101000a81548160ff021916908360ff16021790555050610cf7565b60076001600660009054906101000a900460ff160360ff16600a8110610c9f57fe5b0160006101000a81549073ffffffffffffffffffffffffffffffffffffffff02191690556006600081819054906101000a900460ff16809291906001900391906101000a81548160ff021916908360ff160217905550505b5b8080600101915050610ab0565b506005601160008773ffffffffffffffffffffffffffffffffffffffff1673ffffffffffffffffffffffffffffffffffffffff16815260200190815260200160002060000160019054906101000a900460ff1660ff1610610f36576000610d6b86610610565b905080610f3457600a600660009054906101000a900460ff1660ff161415610dc8576040517f08c379a0000000000000000000000000000000000000000000000000000000008152600401610dbf906117ec565b60405180910390fd5b856007600660009054906101000a900460ff1660ff16600a8110610de857fe5b0160006101000a81548173ffffffffffffffffffffffffffffffffffffffff021916908373ffffffffffffffffffffffffffffffffffffffff1602179055506006600081819054906101000a900460ff168092919060010191906101000a81548160ff021916908360ff16021790555050610e61611473565b6000548160200181815250506001548160400181815250506002548160600181815250506003548160800181815250506004548160a001818152505080600560003373ffffffffffffffffffffffffffffffffffffffff1673ffffffffffffffffffffffffffffffffffffffff16815260200190815260200160002060008201518160000160006101000a81548160ff0219169083151502179055506020820151816001015560408201518160020155606082015181600301556080820151816004015560a08201518160050155905050505b505b60019250505092915050565b336000610f4e82610610565b905080610f90576040517f08c379a0000000000000000000000000000000000000000000000000000000008152600401610f879061182c565b60405180910390fd5b8261ffff16600560003373ffffffffffffffffffffffffffffffffffffffff1673ffffffffffffffffffffffffffffffffffffffff16815260200190815260200160002060030181905550610fe3611101565b505050565b336000610ff482610610565b905080611036576040517f08c379a000000000000000000000000000000000000000000000000000000000815260040161102d9061182c565b60405180910390fd5b8261ffff16600560003373ffffffffffffffffffffffffffffffffffffffff1673ffffffffffffffffffffffffffffffffffffffff16815260200190815260200160002060020181905550611089611101565b505050565b6000601160008373ffffffffffffffffffffffffffffffffffffffff1673ffffffffffffffffffffffffffffffffffffffff16815260200190815260200160002060000160019054906101000a900460ff169050919050565b6000600660009054906101000a900460ff1660ff16905090565b600080600080600080600090505b600660009054906101000a900460ff1660ff1681101561137f5760056000600783600a811061113a57fe5b0160009054906101000a900473ffffffffffffffffffffffffffffffffffffffff1673ffffffffffffffffffffffffffffffffffffffff1673ffffffffffffffffffffffffffffffffffffffff168152602001908152602001600020600101548601955060056000600783600a81106111af57fe5b0160009054906101000a900473ffffffffffffffffffffffffffffffffffffffff1673ffffffffffffffffffffffffffffffffffffffff1673ffffffffffffffffffffffffffffffffffffffff168152602001908152602001600020600201548501945060056000600783600a811061122457fe5b0160009054906101000a900473ffffffffffffffffffffffffffffffffffffffff1673ffffffffffffffffffffffffffffffffffffffff1673ffffffffffffffffffffffffffffffffffffffff168152602001908152602001600020600301548401935060056000600783600a811061129957fe5b0160009054906101000a900473ffffffffffffffffffffffffffffffffffffffff1673ffffffffffffffffffffffffffffffffffffffff1673ffffffffffffffffffffffffffffffffffffffff168152602001908152602001600020600401548301925060056000600783600a811061130e57fe5b0160009054906101000a900473ffffffffffffffffffffffffffffffffffffffff1673ffffffffffffffffffffffffffffffffffffffff1673ffffffffffffffffffffffffffffffffffffffff1681526020019081526020016000206005015482019150808060010191505061110f565b50600660009054906101000a900460ff1660ff16858161139b57fe5b04600081905550600660009054906101000a900460ff1660ff1684816113bd57fe5b04600181905550600660009054906101000a900460ff1660ff1683816113df57fe5b04600281905550600660009054906101000a900460ff1660ff16828161140157fe5b04600381905550600660009054906101000a900460ff1660ff16818161142357fe5b046004819055505050505050565b604051806101400160405280600a90602082028036833780820191505090505090565b6040518060400160405280600015158152602001600060ff1681525090565b6040518060c0016040528060001515815260200160008152602001600081526020016000815260200160008152602001600081525090565b6000813590506114ba81611923565b92915050565b6000813590506114cf8161193a565b92915050565b6000813590506114e481611951565b92915050565b6000602082840312156114fc57600080fd5b600061150a848285016114ab565b91505092915050565b6000806040838503121561152657600080fd5b6000611534858286016114ab565b9250506020611545858286016114c0565b9150509250929050565b60006020828403121561156157600080fd5b600061156f848285016114d5565b91505092915050565b60006115848383611590565b60208301905092915050565b611599816118c0565b82525050565b6115a88161188c565b6115b281846118a4565b92506115bd82611882565b8060005b838110156115ee5781516115d58782611578565b96506115e083611897565b9250506001810190506115c1565b505050505050565b6115ff816118d2565b82525050565b60006116126020836118af565b91507f4f6e6c79206d656d626572732061726520616c6c6f77656420746f20766f74656000830152602082019050919050565b60006116526033836118af565b91507f5570766f746564206d656d6265722063616e27742062652061646465642c206160008301527f6c72656164792031302064656c656761746564000000000000000000000000006020830152604082019050919050565b60006116b8603a836118af565b91507f4c657373207468656e203720616374697665206d656d626572732c20646f776e60008301527f2d766f746573206e6f7420616e796d6f726520616c6c6f7765640000000000006020830152604082019050919050565b600061171e6028836118af565b91507f4f6e6c79206d656d626572732061726520616c6c6f77656420746f206368616e60008301527f67652066656527730000000000000000000000000000000000000000000000006020830152604082019050919050565b6117808161190c565b82525050565b61178f81611916565b82525050565b6000610140820190506117ab600083018461159f565b92915050565b60006020820190506117c660008301846115f6565b92915050565b600060208201905081810360008301526117e581611605565b9050919050565b6000602082019050818103600083015261180581611645565b9050919050565b60006020820190508181036000830152611825816116ab565b9050919050565b6000602082019050818103600083015261184581611711565b9050919050565b60006020820190506118616000830184611777565b92915050565b600060208201905061187c6000830184611786565b92915050565b6000819050919050565b6000600a9050919050565b6000602082019050919050565b600081905092915050565b600082825260208201905092915050565b60006118cb826118ec565b9050919050565b60008115159050919050565b600061ffff82169050919050565b600073ffffffffffffffffffffffffffffffffffffffff82169050919050565b6000819050919050565b600060ff82169050919050565b61192c816118c0565b811461193757600080fd5b50565b611943816118d2565b811461194e57600080fd5b50565b61195a816118de565b811461196557600080fd5b5056fea26469706673582212202a28ecce1ceec9b29e4919641d67124ac86c6afee36e3e62b586dc7668c0eb7964736f6c63430006040033",
  "source": "pragma solidity 0.6.4;\npragma experimental ABIEncoderV2;\n\ncontract Consortium {\n\n    struct Vote {\n        bool exists;\n        uint8 count;\n        mapping(address => bool) votes;\n    }\n\n    struct FeeVote {\n        bool exists;\n        uint256 openFee;\n        uint256 issueFee;\n        uint256 updateFee;\n        uint256 transferFee;\n        uint256 publisherFee;\n    }\n\n    // global fee's\n    uint256 public openFee = 50;\n    uint256 public issueFee = 100;\n    uint256 public updateFee = 10;\n    uint256 public transferFee = 1;\n    uint256 public publisherFee = 1;\n\n    // fee vote\n    mapping(address => FeeVote) private feeVotes;\n\n    uint8 private memberCount;\n    address[10] private members;\n    mapping(address => Vote) private proposals;\n\n    constructor(address[10] memory inital) public payable{\n        members = inital;\n        memberCount = 10;\n        // generate inital votes\n        for (uint8 i = 0; i < 10; i++) {\n\n            Vote memory newVote;\n            newVote.exists = true;\n            newVote.count = 10;\n            proposals[inital[i]] = newVote;\n\n            for (uint8 d = 0; d < 10; d++) {\n                proposals[inital[i]].votes[inital[d]] = true;\n            }\n        }\n    }\n\n    function vote(address member, bool voting) public payable returns (bool){\n\n        // check if voter is part of current members\n        bool _isMember = isMember(msg.sender);\n        require(_isMember, \"Only members are allowed to vote\");\n\n        // check if less then 7 active members then ignore down-vote\n        // only up-votes are allowed\n        require(\n            !(memberCount < 7 && voting == false),\n            \"Less then 7 active members, down-votes not anymore allowed\"\n        );\n\n        // add vote for member\n        if (proposals[member].exists == false) {\n            Vote memory newVote;\n            newVote.exists = true;\n            proposals[member] = newVote;\n        }\n\n        // check if voter already voted\n        bool voted = proposals[member].votes[msg.sender];\n        proposals[member].votes[msg.sender] = voting;\n        if (voting && !voted) {\n            proposals[member].count++;\n        } else if (!voting && voted) {\n            proposals[member].count--;\n        }\n\n        // if member has more then 5 positive votes add to members\n        // only works if before some member was removed because less then\n        // 5 votes left\n\n        // check which of the current members has less then 5 votes\n        // and remove him from the list\n        for (uint i = 0; i < memberCount; i++) {\n            if (proposals[members[i]].count < 5) {\n                if (i != (memberCount - 1)) {\n                    members[i] = members[memberCount - 1];\n                    delete members[memberCount - 1];\n                    memberCount--;\n                } else {\n                    delete members[memberCount - 1];\n                    memberCount--;\n                }\n            }\n        }\n\n        // check if the current voted member reached more then 5\n        if (proposals[member].count >= 5) {\n            // check if he is maybe already member ?\n            bool __isMember = isMember(member);\n            if (!__isMember) {// he is not a member => add him now\n\n                // check if there might be no space (nobody was down-voted)\n                if (memberCount == 10) revert(\"Upvoted member can't be added, already 10 delegated\");\n                //require()\n\n                // add new member\n                members[memberCount] = member;\n                memberCount++;\n\n                // add fee vote to average\n                FeeVote memory newFeeVote;\n                newFeeVote.openFee = openFee;\n                newFeeVote.issueFee = issueFee;\n                newFeeVote.updateFee = updateFee;\n                newFeeVote.transferFee = transferFee;\n                newFeeVote.publisherFee = publisherFee;\n                feeVotes[msg.sender] = newFeeVote;\n            }\n        }\n\n        return true;\n    }\n\n    function getSize() public view returns (uint256){\n        return memberCount;\n    }\n\n    // get current members\n    function getMembers() public view returns (address[10] memory){\n        return members;\n    }\n\n    // check current vote of a member / future member\n    function getMemberVote(address member) public view returns (uint8){\n        return proposals[member].count;\n    }\n\n    // check if an address is in the members array\n    function isMember(address member) public view returns (bool){\n        bool found = false;\n        for (uint i = 0; i < memberCount; i++) {\n            if (member == members[i])\n                found = true;\n        }\n        return found;\n    }\n\n    // check if an address is in the members array\n    modifier _isMember(address member) {\n        bool memberFound = isMember(member);\n        require(memberFound, \"Only members are allowed to change fee's\");\n        _;\n    }\n\n\n    // ----------------------------------------------------------------------------------------------------------\n    // --------------------------------------------- FEE'S CONTROL ----------------------------------------------\n    // ----------------------------------------------------------------------------------------------------------\n\n    // set open fee\n    function voteOpenFee(uint16 amount) public _isMember(msg.sender) {\n        feeVotes[msg.sender].openFee = amount;\n        recalculateFees();\n    }\n\n    // set issue fee\n    function voteIssueFee(uint16 amount) public _isMember(msg.sender) {\n        feeVotes[msg.sender].issueFee = amount;\n        recalculateFees();\n    }\n\n    // set transfer fee\n    function voteTransferFee(uint16 amount) public _isMember(msg.sender) {\n        feeVotes[msg.sender].transferFee = amount;\n        recalculateFees();\n    }\n\n    // set update fee\n    function voteUpdateFee(uint16 amount) public _isMember(msg.sender) {\n        feeVotes[msg.sender].updateFee = amount;\n        recalculateFees();\n    }\n\n    // set publiser fee\n    function votePublisherFee(uint16 amount) public _isMember(msg.sender) {\n        feeVotes[msg.sender].publisherFee = amount;\n        recalculateFees();\n    }\n\n    // Calculate average of all members fee votes\n    function recalculateFees() internal {\n        uint256 _openFee;\n        uint256 _issueFee;\n        uint256 _updateFee;\n        uint256 _transferFee;\n        uint256 _publisherFee;\n\n        for (uint i = 0; i < memberCount; i++) {\n            _openFee += feeVotes[members[i]].openFee;\n            _issueFee += feeVotes[members[i]].issueFee;\n            _updateFee += feeVotes[members[i]].updateFee;\n            _transferFee += feeVotes[members[i]].transferFee;\n            _publisherFee += feeVotes[members[i]].publisherFee;\n        }\n\n        openFee = _openFee / memberCount;\n        issueFee = _issueFee / memberCount;\n        updateFee = _updateFee / memberCount;\n        transferFee = _transferFee / memberCount;\n        publisherFee = _publisherFee / memberCount;\n    }\n\n}\n",
  "sourcePath": "/home/monsi/Documents/Projects/juicechain-contracts/contracts/Consortium.sol",
  "compiler": {
    "name": "solc",
    "version": "0.6.4+commit.1dca32f3.Emscripten.clang"
  },
  "schemaVersion": "3.0.23",
  "updatedAt": "2020-05-08T13:23:38.114Z",
  "networkType": "ethereum",
  "devdoc": {
    "methods": {}
  },
  "userdoc": {
    "methods": {}
  }
}