{
  "contractName": "Accounts",
  "abi": [
    {
      "inputs": [
        {
          "internalType": "address",
          "name": "publishersAddress",
          "type": "address"
        },
        {
          "internalType": "address",
          "name": "assetsAddress",
          "type": "address"
        }
      ],
      "stateMutability": "nonpayable",
      "type": "constructor"
    },
    {
      "anonymous": false,
      "inputs": [
        {
          "indexed": true,
          "internalType": "address",
          "name": "owner",
          "type": "address"
        },
        {
          "indexed": true,
          "internalType": "bytes8",
          "name": "publisher",
          "type": "bytes8"
        }
      ],
      "name": "OpenAccount",
      "type": "event"
    },
    {
      "inputs": [
        {
          "internalType": "bytes32",
          "name": "id",
          "type": "bytes32"
        }
      ],
      "name": "getAsset",
      "outputs": [
        {
          "components": [
            {
              "internalType": "bool",
              "name": "exists",
              "type": "bool"
            },
            {
              "internalType": "bool",
              "name": "chargeable",
              "type": "bool"
            },
            {
              "internalType": "uint8",
              "name": "transferLock",
              "type": "uint8"
            },
            {
              "internalType": "bytes32[2]",
              "name": "checksum",
              "type": "bytes32[2]"
            },
            {
              "internalType": "uint32",
              "name": "validation",
              "type": "uint32"
            },
            {
              "internalType": "bool",
              "name": "active",
              "type": "bool"
            },
            {
              "internalType": "bool",
              "name": "root",
              "type": "bool"
            },
            {
              "internalType": "uint256",
              "name": "quantity",
              "type": "uint256"
            },
            {
              "internalType": "uint256",
              "name": "nfaLimit",
              "type": "uint256"
            },
            {
              "internalType": "uint256",
              "name": "nfaQuantity",
              "type": "uint256"
            },
            {
              "internalType": "uint256",
              "name": "created",
              "type": "uint256"
            },
            {
              "internalType": "address",
              "name": "network",
              "type": "address"
            }
          ],
          "internalType": "struct ExtendedAssets.AssetInfo",
          "name": "",
          "type": "tuple"
        }
      ],
      "stateMutability": "view",
      "type": "function"
    },
    {
      "inputs": [
        {
          "internalType": "bytes32",
          "name": "id",
          "type": "bytes32"
        },
        {
          "internalType": "uint8",
          "name": "transferLock",
          "type": "uint8"
        }
      ],
      "name": "setAssetTransferLock",
      "outputs": [],
      "stateMutability": "payable",
      "type": "function"
    },
    {
      "inputs": [
        {
          "internalType": "bytes32",
          "name": "id",
          "type": "bytes32"
        },
        {
          "internalType": "bytes32[2]",
          "name": "checksum",
          "type": "bytes32[2]"
        }
      ],
      "name": "setChecksum",
      "outputs": [],
      "stateMutability": "payable",
      "type": "function"
    },
    {
      "inputs": [
        {
          "internalType": "bytes32",
          "name": "id",
          "type": "bytes32"
        },
        {
          "internalType": "uint32",
          "name": "validation",
          "type": "uint32"
        }
      ],
      "name": "setValidation",
      "outputs": [],
      "stateMutability": "payable",
      "type": "function"
    },
    {
      "inputs": [
        {
          "internalType": "bytes8",
          "name": "publisher",
          "type": "bytes8"
        },
        {
          "internalType": "address",
          "name": "account",
          "type": "address"
        },
        {
          "internalType": "uint8",
          "name": "transferLock",
          "type": "uint8"
        }
      ],
      "name": "open",
      "outputs": [
        {
          "internalType": "bool",
          "name": "",
          "type": "bool"
        }
      ],
      "stateMutability": "payable",
      "type": "function"
    },
    {
      "inputs": [
        {
          "internalType": "address",
          "name": "account",
          "type": "address"
        },
        {
          "internalType": "uint8",
          "name": "transferLock",
          "type": "uint8"
        }
      ],
      "name": "setAccountTransferLock",
      "outputs": [],
      "stateMutability": "payable",
      "type": "function"
    },
    {
      "inputs": [
        {
          "internalType": "address",
          "name": "account",
          "type": "address"
        },
        {
          "internalType": "bytes8",
          "name": "targetPublisher",
          "type": "bytes8"
        },
        {
          "internalType": "bool",
          "name": "listed",
          "type": "bool"
        }
      ],
      "name": "whitelist",
      "outputs": [],
      "stateMutability": "payable",
      "type": "function"
    },
    {
      "inputs": [
        {
          "internalType": "address",
          "name": "account",
          "type": "address"
        },
        {
          "internalType": "bytes8",
          "name": "targetPublisher",
          "type": "bytes8"
        },
        {
          "internalType": "bool",
          "name": "listed",
          "type": "bool"
        }
      ],
      "name": "blacklist",
      "outputs": [],
      "stateMutability": "payable",
      "type": "function"
    },
    {
      "inputs": [
        {
          "internalType": "address",
          "name": "account",
          "type": "address"
        },
        {
          "internalType": "bool",
          "name": "active",
          "type": "bool"
        }
      ],
      "name": "setActive",
      "outputs": [],
      "stateMutability": "nonpayable",
      "type": "function"
    },
    {
      "inputs": [
        {
          "internalType": "address",
          "name": "account",
          "type": "address"
        },
        {
          "internalType": "uint256",
          "name": "offset",
          "type": "uint256"
        }
      ],
      "name": "getBalance",
      "outputs": [
        {
          "components": [
            {
              "internalType": "bytes32",
              "name": "asset",
              "type": "bytes32"
            },
            {
              "internalType": "uint256",
              "name": "balance",
              "type": "uint256"
            }
          ],
          "internalType": "struct Accounts.Balance[10]",
          "name": "",
          "type": "tuple[10]"
        },
        {
          "internalType": "uint256",
          "name": "",
          "type": "uint256"
        }
      ],
      "stateMutability": "view",
      "type": "function"
    },
    {
      "inputs": [
        {
          "internalType": "address",
          "name": "account",
          "type": "address"
        }
      ],
      "name": "getAccount",
      "outputs": [
        {
          "components": [
            {
              "internalType": "bool",
              "name": "active",
              "type": "bool"
            },
            {
              "internalType": "bytes8",
              "name": "publisher",
              "type": "bytes8"
            },
            {
              "internalType": "uint256",
              "name": "created",
              "type": "uint256"
            },
            {
              "internalType": "uint256",
              "name": "assets",
              "type": "uint256"
            },
            {
              "internalType": "uint8",
              "name": "transferLock",
              "type": "uint8"
            }
          ],
          "internalType": "struct Accounts.AccountInfo",
          "name": "",
          "type": "tuple"
        }
      ],
      "stateMutability": "view",
      "type": "function"
    }
  ],
  "bytecode": "0x60806040523480156200001157600080fd5b5060405162003728380380620037288339818101604052810190620000379190620000db565b818181600160006101000a81548173ffffffffffffffffffffffffffffffffffffffff021916908373ffffffffffffffffffffffffffffffffffffffff160217905550806000806101000a81548173ffffffffffffffffffffffffffffffffffffffff021916908373ffffffffffffffffffffffffffffffffffffffff160217905550505050506200016a565b600081519050620000d58162000150565b92915050565b60008060408385031215620000ef57600080fd5b6000620000ff85828601620000c4565b92505060206200011285828601620000c4565b9150509250929050565b6000620001298262000130565b9050919050565b600073ffffffffffffffffffffffffffffffffffffffff82169050919050565b6200015b816200011c565b81146200016757600080fd5b50565b6135ae806200017a6000396000f3fe60806040526004361061009c5760003560e01c8063776ba7a611610064578063776ba7a61461017d57806383f163ee14610199578063b2abfe8f146101b5578063d2c82eeb146101e5578063d4d0f1dd14610201578063fbcbc0f11461021d5761009c565b806305e5a92c146100a15780632b04e840146100bd5780632cc3ce80146100fb5780632ce962cf146101385780634e7c410114610161575b600080fd5b6100bb60048036038101906100b69190612789565b61025a565b005b3480156100c957600080fd5b506100e460048036038101906100df91906126bf565b610561565b6040516100f292919061308c565b60405180910390f35b34801561010757600080fd5b50610122600480360381019061011d9190612760565b6106f1565b60405161012f9190613330565b60405180910390f35b34801561014457600080fd5b5061015f600480360381019061015a9190612634565b610992565b005b61017b60048036038101906101769190612670565b610b65565b005b610197600480360381019061019291906127c5565b61100b565b005b6101b360048036038101906101ae9190612670565b611321565b005b6101cf60048036038101906101ca9190612866565b61153c565b6040516101dc91906130b7565b60405180910390f35b6101ff60048036038101906101fa9190612801565b611994565b005b61021b600480360381019061021691906126fb565b611cea565b005b34801561022957600080fd5b50610244600480360381019061023f91906125e2565b611ef6565b6040516102519190613315565b60405180910390f35b8160018015156002600084815260200190815260200160002060000160009054906101000a900460ff161515146102c6576040517f08c379a00000000000000000000000000000000000000000000000000000000081526004016102bd906132b5565b60405180910390fd5b600073__Shared________________________________6339f05272846040518263ffffffff1660e01b81526004016102ff91906130ed565b60206040518083038186803b15801561031757600080fd5b505af415801561032b573d6000803e3d6000fd5b505050506040513d601f19601f8201168201806040525081019061034f919061283d565b9050600160009054906101000a900473ffffffffffffffffffffffffffffffffffffffff1673ffffffffffffffffffffffffffffffffffffffff1663b2acbc1382336040518363ffffffff1660e01b81526004016103ae92919061314c565b60206040518083038186803b1580156103c657600080fd5b505afa1580156103da573d6000803e3d6000fd5b505050506040513d601f19601f820116820180604052508101906103fe9190612737565b61043d576040517f08c379a000000000000000000000000000000000000000000000000000000000815260040161043490613175565b60405180910390fd5b811561053457600115156000809054906101000a900473ffffffffffffffffffffffffffffffffffffffff1673ffffffffffffffffffffffffffffffffffffffff16635c36901c856040518263ffffffff1660e01b81526004016104a191906130d2565b60206040518083038186803b1580156104b957600080fd5b505afa1580156104cd573d6000803e3d6000fd5b505050506040513d601f19601f820116820180604052508101906104f19190612737565b151514610533576040517f08c379a000000000000000000000000000000000000000000000000000000000815260040161052a90613275565b60405180910390fd5b5b8360026000878152602001908152602001600020600101906002610559929190612118565b505050505050565b610569612158565b6000610573612158565b6000600360008773ffffffffffffffffffffffffffffffffffffffff1673ffffffffffffffffffffffffffffffffffffffff168152602001908152602001600020600101805490509050600080905060008090505b828110156106e057808711156105dd576106d3565b6105e5612186565b600360008a73ffffffffffffffffffffffffffffffffffffffff1673ffffffffffffffffffffffffffffffffffffffff168152602001908152602001600020600101828154811061063257fe5b9060005260206000200154816000018181525050600360008a73ffffffffffffffffffffffffffffffffffffffff1673ffffffffffffffffffffffffffffffffffffffff16815260200190815260200160002060060160008260000151815260200190815260200160002054816020018181525050808584806001019550600a81106106ba57fe5b6020020181905250600a8314156106d157506106e0565b505b80806001019150506105c8565b508282945094505050509250929050565b6106f96121a3565b610701612231565b6000809054906101000a900473ffffffffffffffffffffffffffffffffffffffff1673ffffffffffffffffffffffffffffffffffffffff16638eaa6ac0846040518263ffffffff1660e01b815260040161075b91906130d2565b60e06040518083038186803b15801561077357600080fd5b505afa158015610787573d6000803e3d6000fd5b505050506040513d601f19601f820116820180604052508101906107ab91906128b5565b90506107b56121a3565b81602001518160c001901515908115158152505081600001518160a001901515908115158152505081604001518160e00181815250508160600151816101000181815250508160800151816101200181815250506002600085815260200190815260200160002060030160009054906101000a900463ffffffff16816080019063ffffffff16908163ffffffff16815250508160a00151816101400181815250506002600085815260200190815260200160002060000160009054906101000a900460ff168160000190151590811515815250506002600085815260200190815260200160002060000160019054906101000a900460ff168160200190151590811515815250506002600085815260200190815260200160002060000160029054906101000a900460ff16816040019060ff16908160ff16815250506002600085815260200190815260200160002060010160028060200260405190810160405280929190826002801561093e576020028201915b81548152602001906001019080831161092a575b505050505081606001819052508160c0015181610160019073ffffffffffffffffffffffffffffffffffffffff16908173ffffffffffffffffffffffffffffffffffffffff16815250508092505050919050565b8133600160009054906101000a900473ffffffffffffffffffffffffffffffffffffffff1673ffffffffffffffffffffffffffffffffffffffff1663b2acbc13600360008573ffffffffffffffffffffffffffffffffffffffff1673ffffffffffffffffffffffffffffffffffffffff16815260200190815260200160002060000160019054906101000a900460c01b836040518363ffffffff1660e01b8152600401610a40929190613123565b60206040518083038186803b158015610a5857600080fd5b505afa158015610a6c573d6000803e3d6000fd5b505050506040513d601f19601f82011682018060405250810190610a909190612737565b80610ac657508073ffffffffffffffffffffffffffffffffffffffff168273ffffffffffffffffffffffffffffffffffffffff16145b610b05576040517f08c379a0000000000000000000000000000000000000000000000000000000008152600401610afc906132f5565b60405180910390fd5b82600360008673ffffffffffffffffffffffffffffffffffffffff1673ffffffffffffffffffffffffffffffffffffffff16815260200190815260200160002060000160006101000a81548160ff02191690831515021790555050505050565b8233600160009054906101000a900473ffffffffffffffffffffffffffffffffffffffff1673ffffffffffffffffffffffffffffffffffffffff1663b2acbc13600360008573ffffffffffffffffffffffffffffffffffffffff1673ffffffffffffffffffffffffffffffffffffffff16815260200190815260200160002060000160019054906101000a900460c01b836040518363ffffffff1660e01b8152600401610c13929190613123565b60206040518083038186803b158015610c2b57600080fd5b505afa158015610c3f573d6000803e3d6000fd5b505050506040513d601f19601f82011682018060405250810190610c639190612737565b80610c9957508073ffffffffffffffffffffffffffffffffffffffff168273ffffffffffffffffffffffffffffffffffffffff16145b610cd8576040517f08c379a0000000000000000000000000000000000000000000000000000000008152600401610ccf906132f5565b60405180910390fd5b6000600360008773ffffffffffffffffffffffffffffffffffffffff1673ffffffffffffffffffffffffffffffffffffffff16815260200190815260200160002060030160009054906101000a900460ff1660ff1614158015610d8d575060038060008773ffffffffffffffffffffffffffffffffffffffff1673ffffffffffffffffffffffffffffffffffffffff16815260200190815260200160002060030160009054906101000a900460ff1660ff1614155b610dcc576040517f08c379a0000000000000000000000000000000000000000000000000000000008152600401610dc390613235565b60405180910390fd5b6002600360008773ffffffffffffffffffffffffffffffffffffffff1673ffffffffffffffffffffffffffffffffffffffff16815260200190815260200160002060030160009054906101000a900460ff1660ff161415610f6357600160009054906101000a900473ffffffffffffffffffffffffffffffffffffffff1673ffffffffffffffffffffffffffffffffffffffff1663b2acbc13600360008873ffffffffffffffffffffffffffffffffffffffff1673ffffffffffffffffffffffffffffffffffffffff16815260200190815260200160002060000160019054906101000a900460c01b336040518363ffffffff1660e01b8152600401610ed392919061314c565b60206040518083038186803b158015610eeb57600080fd5b505afa158015610eff573d6000803e3d6000fd5b505050506040513d601f19601f82011682018060405250810190610f239190612737565b610f62576040517f08c379a0000000000000000000000000000000000000000000000000000000008152600401610f59906131f5565b60405180910390fd5b5b82600360008773ffffffffffffffffffffffffffffffffffffffff1673ffffffffffffffffffffffffffffffffffffffff16815260200190815260200160002060040160008677ffffffffffffffffffffffffffffffffffffffffffffffff191677ffffffffffffffffffffffffffffffffffffffffffffffff1916815260200190815260200160002060006101000a81548160ff0219169083151502179055505050505050565b8160018015156002600084815260200190815260200160002060000160009054906101000a900460ff16151514611077576040517f08c379a000000000000000000000000000000000000000000000000000000000815260040161106e906132b5565b60405180910390fd5b600073__Shared________________________________6339f05272846040518263ffffffff1660e01b81526004016110b091906130ed565b60206040518083038186803b1580156110c857600080fd5b505af41580156110dc573d6000803e3d6000fd5b505050506040513d601f19601f82011682018060405250810190611100919061283d565b9050600160009054906101000a900473ffffffffffffffffffffffffffffffffffffffff1673ffffffffffffffffffffffffffffffffffffffff1663b2acbc1382336040518363ffffffff1660e01b815260040161115f92919061314c565b60206040518083038186803b15801561117757600080fd5b505afa15801561118b573d6000803e3d6000fd5b505050506040513d601f19601f820116820180604052508101906111af9190612737565b6111ee576040517f08c379a00000000000000000000000000000000000000000000000000000000081526004016111e590613175565b60405180910390fd5b81156112e557600115156000809054906101000a900473ffffffffffffffffffffffffffffffffffffffff1673ffffffffffffffffffffffffffffffffffffffff16635c36901c856040518263ffffffff1660e01b815260040161125291906130d2565b60206040518083038186803b15801561126a57600080fd5b505afa15801561127e573d6000803e3d6000fd5b505050506040513d601f19601f820116820180604052508101906112a29190612737565b1515146112e4576040517f08c379a00000000000000000000000000000000000000000000000000000000081526004016112db90613275565b60405180910390fd5b5b836002600087815260200190815260200160002060030160006101000a81548163ffffffff021916908363ffffffff1602179055505050505050565b8233600160009054906101000a900473ffffffffffffffffffffffffffffffffffffffff1673ffffffffffffffffffffffffffffffffffffffff1663b2acbc13600360008573ffffffffffffffffffffffffffffffffffffffff1673ffffffffffffffffffffffffffffffffffffffff16815260200190815260200160002060000160019054906101000a900460c01b836040518363ffffffff1660e01b81526004016113cf929190613123565b60206040518083038186803b1580156113e757600080fd5b505afa1580156113fb573d6000803e3d6000fd5b505050506040513d601f19601f8201168201806040525081019061141f9190612737565b8061145557508073ffffffffffffffffffffffffffffffffffffffff168273ffffffffffffffffffffffffffffffffffffffff16145b611494576040517f08c379a000000000000000000000000000000000000000000000000000000000815260040161148b906132f5565b60405180910390fd5b82600360008773ffffffffffffffffffffffffffffffffffffffff1673ffffffffffffffffffffffffffffffffffffffff16815260200190815260200160002060050160008677ffffffffffffffffffffffffffffffffffffffffffffffff191677ffffffffffffffffffffffffffffffffffffffffffffffff1916815260200190815260200160002060006101000a81548160ff0219169083151502179055505050505050565b6000600160009054906101000a900473ffffffffffffffffffffffffffffffffffffffff1673ffffffffffffffffffffffffffffffffffffffff1663121e9cda856040518263ffffffff1660e01b81526004016115999190613108565b60206040518083038186803b1580156115b157600080fd5b505afa1580156115c5573d6000803e3d6000fd5b505050506040513d601f19601f820116820180604052508101906115e99190612737565b611628576040517f08c379a000000000000000000000000000000000000000000000000000000000815260040161161f90613195565b60405180910390fd5b600160009054906101000a900473ffffffffffffffffffffffffffffffffffffffff1673ffffffffffffffffffffffffffffffffffffffff1663b2acbc1385336040518363ffffffff1660e01b815260040161168592919061314c565b60206040518083038186803b15801561169d57600080fd5b505afa1580156116b1573d6000803e3d6000fd5b505050506040513d601f19601f820116820180604052508101906116d59190612737565b611714576040517f08c379a000000000000000000000000000000000000000000000000000000000815260040161170b906132d5565b60405180910390fd5b6000600360008573ffffffffffffffffffffffffffffffffffffffff1673ffffffffffffffffffffffffffffffffffffffff1681526020019081526020016000206002015414611799576040517f08c379a0000000000000000000000000000000000000000000000000000000008152600401611790906131d5565b60405180910390fd5b60048260ff16106117df576040517f08c379a00000000000000000000000000000000000000000000000000000000081526004016117d690613215565b60405180910390fd5b6117e7612288565b42816060018181525050600181600001901515908115158152505082816080019060ff16908160ff168152505084816020019077ffffffffffffffffffffffffffffffffffffffffffffffff1916908177ffffffffffffffffffffffffffffffffffffffffffffffff19168152505080600360008673ffffffffffffffffffffffffffffffffffffffff1673ffffffffffffffffffffffffffffffffffffffff16815260200190815260200160002060008201518160000160006101000a81548160ff02191690831515021790555060208201518160000160016101000a81548167ffffffffffffffff021916908360c01c021790555060408201518160010190805190602001906118fa9291906122d7565b506060820151816002015560808201518160030160006101000a81548160ff021916908360ff1602179055509050508477ffffffffffffffffffffffffffffffffffffffffffffffff19168473ffffffffffffffffffffffffffffffffffffffff167fddc047324f676cad248d072e655be9091e92e78ea4e344a3fb0ce7855128933460405160405180910390a360019150509392505050565b8160018015156002600084815260200190815260200160002060000160009054906101000a900460ff16151514611a00576040517f08c379a00000000000000000000000000000000000000000000000000000000081526004016119f7906132b5565b60405180910390fd5b600073__Shared________________________________6339f05272846040518263ffffffff1660e01b8152600401611a3991906130ed565b60206040518083038186803b158015611a5157600080fd5b505af4158015611a65573d6000803e3d6000fd5b505050506040513d601f19601f82011682018060405250810190611a89919061283d565b9050600160009054906101000a900473ffffffffffffffffffffffffffffffffffffffff1673ffffffffffffffffffffffffffffffffffffffff1663b2acbc1382336040518363ffffffff1660e01b8152600401611ae892919061314c565b60206040518083038186803b158015611b0057600080fd5b505afa158015611b14573d6000803e3d6000fd5b505050506040513d601f19601f82011682018060405250810190611b389190612737565b611b77576040517f08c379a0000000000000000000000000000000000000000000000000000000008152600401611b6e90613175565b60405180910390fd5b8115611c6e57600115156000809054906101000a900473ffffffffffffffffffffffffffffffffffffffff1673ffffffffffffffffffffffffffffffffffffffff16635c36901c856040518263ffffffff1660e01b8152600401611bdb91906130d2565b60206040518083038186803b158015611bf357600080fd5b505afa158015611c07573d6000803e3d6000fd5b505050506040513d601f19601f82011682018060405250810190611c2b9190612737565b151514611c6d576040517f08c379a0000000000000000000000000000000000000000000000000000000008152600401611c6490613275565b60405180910390fd5b5b60038460ff1610611cb4576040517f08c379a0000000000000000000000000000000000000000000000000000000008152600401611cab90613255565b60405180910390fd5b836002600087815260200190815260200160002060000160026101000a81548160ff021916908360ff1602179055505050505050565b3373ffffffffffffffffffffffffffffffffffffffff16600160009054906101000a900473ffffffffffffffffffffffffffffffffffffffff1673ffffffffffffffffffffffffffffffffffffffff166351c8aa99600360008673ffffffffffffffffffffffffffffffffffffffff1673ffffffffffffffffffffffffffffffffffffffff16815260200190815260200160002060000160019054906101000a900460c01b6040518263ffffffff1660e01b8152600401611dab9190613108565b60206040518083038186803b158015611dc357600080fd5b505afa158015611dd7573d6000803e3d6000fd5b505050506040513d601f19601f82011682018060405250810190611dfb919061260b565b73ffffffffffffffffffffffffffffffffffffffff1614611e51576040517f08c379a0000000000000000000000000000000000000000000000000000000008152600401611e48906131b5565b60405180910390fd5b60048160ff1610611e97576040517f08c379a0000000000000000000000000000000000000000000000000000000008152600401611e8e90613295565b60405180910390fd5b80600360008473ffffffffffffffffffffffffffffffffffffffff1673ffffffffffffffffffffffffffffffffffffffff16815260200190815260200160002060030160006101000a81548160ff021916908360ff1602179055505050565b611efe612324565b611f06612288565b600360008473ffffffffffffffffffffffffffffffffffffffff1673ffffffffffffffffffffffffffffffffffffffff1681526020019081526020016000206040518060a00160405290816000820160009054906101000a900460ff161515151581526020016000820160019054906101000a900460c01b77ffffffffffffffffffffffffffffffffffffffffffffffff191677ffffffffffffffffffffffffffffffffffffffffffffffff191681526020016001820180548060200260200160405190810160405280929190818152602001828054801561200757602002820191906000526020600020905b815481526020019060010190808311611ff3575b50505050508152602001600282015481526020016003820160009054906101000a900460ff1660ff1660ff16815250509050612041612324565b81600001518160000190151590811515815250508160200151816020019077ffffffffffffffffffffffffffffffffffffffffffffffff1916908177ffffffffffffffffffffffffffffffffffffffffffffffff1916815250508160600151816040018181525050600360008573ffffffffffffffffffffffffffffffffffffffff1673ffffffffffffffffffffffffffffffffffffffff168152602001908152602001600020600101805490508160600181815250508160800151816080019060ff16908160ff16815250508092505050919050565b8260028101928215612147579160200282015b8281111561214657825182559160200191906001019061212b565b5b5090506121549190612373565b5090565b604051806101400160405280600a905b612170612398565b8152602001906001900390816121685790505090565b604051806040016040528060008019168152602001600081525090565b604051806101800160405280600015158152602001600015158152602001600060ff1681526020016121d36123b5565b8152602001600063ffffffff16815260200160001515815260200160001515815260200160008152602001600081526020016000815260200160008152602001600073ffffffffffffffffffffffffffffffffffffffff1681525090565b6040518060e0016040528060001515815260200160001515815260200160008152602001600081526020016000815260200160008152602001600073ffffffffffffffffffffffffffffffffffffffff1681525090565b6040518060a00160405280600015158152602001600077ffffffffffffffffffffffffffffffffffffffffffffffff191681526020016060815260200160008152602001600060ff1681525090565b828054828255906000526020600020908101928215612313579160200282015b828111156123125782518255916020019190600101906122f7565b5b5090506123209190612373565b5090565b6040518060a00160405280600015158152602001600077ffffffffffffffffffffffffffffffffffffffffffffffff191681526020016000815260200160008152602001600060ff1681525090565b61239591905b80821115612391576000816000905550600101612379565b5090565b90565b604051806040016040528060008019168152602001600081525090565b6040518060400160405280600290602082028036833780820191505090505090565b6000813590506123e6816134d7565b92915050565b6000815190506123fb816134d7565b92915050565b600082601f83011261241257600080fd5b600261242561242082613379565b61334c565b9150818385602084028201111561243b57600080fd5b60005b8381101561246b5781612451888261249f565b84526020840193506020830192505060018101905061243e565b5050505092915050565b600081359050612484816134ee565b92915050565b600081519050612499816134ee565b92915050565b6000813590506124ae81613505565b92915050565b6000813590506124c38161351c565b92915050565b6000815190506124d88161351c565b92915050565b600060e082840312156124f057600080fd5b6124fa60e061334c565b9050600061250a8482850161248a565b600083015250602061251e8482850161248a565b6020830152506040612532848285016125a3565b6040830152506060612546848285016125a3565b606083015250608061255a848285016125a3565b60808301525060a061256e848285016125a3565b60a08301525060c0612582848285016123ec565b60c08301525092915050565b60008135905061259d81613533565b92915050565b6000815190506125b281613533565b92915050565b6000813590506125c78161354a565b92915050565b6000813590506125dc81613561565b92915050565b6000602082840312156125f457600080fd5b6000612602848285016123d7565b91505092915050565b60006020828403121561261d57600080fd5b600061262b848285016123ec565b91505092915050565b6000806040838503121561264757600080fd5b6000612655858286016123d7565b925050602061266685828601612475565b9150509250929050565b60008060006060848603121561268557600080fd5b6000612693868287016123d7565b93505060206126a4868287016124b4565b92505060406126b586828701612475565b9150509250925092565b600080604083850312156126d257600080fd5b60006126e0858286016123d7565b92505060206126f18582860161258e565b9150509250929050565b6000806040838503121561270e57600080fd5b600061271c858286016123d7565b925050602061272d858286016125cd565b9150509250929050565b60006020828403121561274957600080fd5b60006127578482850161248a565b91505092915050565b60006020828403121561277257600080fd5b60006127808482850161249f565b91505092915050565b6000806060838503121561279c57600080fd5b60006127aa8582860161249f565b92505060206127bb85828601612401565b9150509250929050565b600080604083850312156127d857600080fd5b60006127e68582860161249f565b92505060206127f7858286016125b8565b9150509250929050565b6000806040838503121561281457600080fd5b60006128228582860161249f565b9250506020612833858286016125cd565b9150509250929050565b60006020828403121561284f57600080fd5b600061285d848285016124c9565b91505092915050565b60008060006060848603121561287b57600080fd5b6000612889868287016124b4565b935050602061289a868287016123d7565b92505060406128ab868287016125cd565b9150509250925092565b600060e082840312156128c757600080fd5b60006128d5848285016124de565b91505092915050565b60006128ea8383612a07565b60208301905092915050565b60006129028383613021565b60408301905092915050565b612917816134a1565b82525050565b61292681613406565b82525050565b61293581613406565b82525050565b612944816133af565b61294e81846133df565b92506129598261339b565b8060005b8381101561298a57815161297187826128de565b965061297c836133c5565b92505060018101905061295d565b505050505050565b61299b816133ba565b6129a581846133ea565b92506129b0826133a5565b8060005b838110156129e15781516129c887826128f6565b96506129d3836133d2565b9250506001810190506129b4565b505050505050565b6129f281613418565b82525050565b612a0181613418565b82525050565b612a1081613424565b82525050565b612a1f81613424565b82525050565b612a2e81613424565b82525050565b612a3d8161342e565b82525050565b612a4c8161342e565b82525050565b6000612a5f6023836133f5565b91507f4f6e6c79207075626c697368657220697320616c6c6f77656420746f206d6f6460008301527f69667900000000000000000000000000000000000000000000000000000000006020830152604082019050919050565b6000612ac5601f836133f5565b91507f556e6b6e6f776e207075626c6973686572206f72206e6f7420616374697665006000830152602082019050919050565b6000612b056027836133f5565b91507f4f6e6c79207075626c69736865722063616e206d6f64696679205472616e736660008301527f6572204c6f636b000000000000000000000000000000000000000000000000006020830152604082019050919050565b6000612b6b600e836133f5565b91507f4163636f756e74206578697374730000000000000000000000000000000000006000830152602082019050919050565b6000612bab602b836133f5565b91507f436c6f7365642077686974656c6973742c206f6e6c79207075626c697368657260008301527f2063616e206d6f646966790000000000000000000000000000000000000000006020830152604082019050919050565b6000612c11601b836133f5565b91507f496e76616c6964206c6f636b2d6d6f64652073706563696669656400000000006000830152602082019050919050565b6000612c516021836133f5565b91507f57616c6c6574206e6f7420696e2077686974656c697374206c6f636b206d6f6460008301527f65000000000000000000000000000000000000000000000000000000000000006020830152604082019050919050565b6000612cb76023836133f5565b91507f496e76616c6964205472616e736665724c6f636b204d6f64652073706563696660008301527f69656400000000000000000000000000000000000000000000000000000000006020830152604082019050919050565b6000612d1d6028836133f5565b91507f41737365742064697361626c6564206d6f64696669636174696f6e73206e6f7460008301527f20616c6c6f7765640000000000000000000000000000000000000000000000006020830152604082019050919050565b6000612d83601f836133f5565b91507f496e76616c6964205472616e73666572204c6f636b20737065636966696564006000830152602082019050919050565b6000612dc3600d836133f5565b91507f556e6b6e6f776e206173736574000000000000000000000000000000000000006000830152602082019050919050565b6000612e036021836133f5565b91507f43616e206f6e6c79206265206d6f646966696564206279207075626c6973686560008301527f72000000000000000000000000000000000000000000000000000000000000006020830152604082019050919050565b6000612e696031836133f5565b91507f43616e206f6e6c79206265206d6f6469666965642062792077616c6c6574206f60008301527f776e6572206f72207075626c69736865720000000000000000000000000000006020830152604082019050919050565b60a082016000820151612ed860008501826129e9565b506020820151612eeb6020850182612a34565b506040820151612efe6040850182613050565b506060820151612f116060850182613050565b506080820151612f24608085018261307d565b50505050565b6101a082016000820151612f4160008501826129e9565b506020820151612f5460208501826129e9565b506040820151612f67604085018261307d565b506060820151612f7a606085018261293b565b506080820151612f8d60a085018261306e565b5060a0820151612fa060c08501826129e9565b5060c0820151612fb360e08501826129e9565b5060e0820151612fc7610100850182613050565b50610100820151612fdc610120850182613050565b50610120820151612ff1610140850182613050565b50610140820151613006610160850182613050565b5061016082015161301b61018085018261291d565b50505050565b6040820160008201516130376000850182612a07565b50602082015161304a6020850182613050565b50505050565b6130598161347a565b82525050565b6130688161347a565b82525050565b61307781613484565b82525050565b61308681613494565b82525050565b60006102a0820190506130a26000830185612992565b6130b061028083018461305f565b9392505050565b60006020820190506130cc60008301846129f8565b92915050565b60006020820190506130e76000830184612a16565b92915050565b60006020820190506131026000830184612a25565b92915050565b600060208201905061311d6000830184612a43565b92915050565b60006040820190506131386000830185612a43565b613145602083018461292c565b9392505050565b60006040820190506131616000830185612a43565b61316e602083018461290e565b9392505050565b6000602082019050818103600083015261318e81612a52565b9050919050565b600060208201905081810360008301526131ae81612ab8565b9050919050565b600060208201905081810360008301526131ce81612af8565b9050919050565b600060208201905081810360008301526131ee81612b5e565b9050919050565b6000602082019050818103600083015261320e81612b9e565b9050919050565b6000602082019050818103600083015261322e81612c04565b9050919050565b6000602082019050818103600083015261324e81612c44565b9050919050565b6000602082019050818103600083015261326e81612caa565b9050919050565b6000602082019050818103600083015261328e81612d10565b9050919050565b600060208201905081810360008301526132ae81612d76565b9050919050565b600060208201905081810360008301526132ce81612db6565b9050919050565b600060208201905081810360008301526132ee81612df6565b9050919050565b6000602082019050818103600083015261330e81612e5c565b9050919050565b600060a08201905061332a6000830184612ec2565b92915050565b60006101a0820190506133466000830184612f2a565b92915050565b6000604051905081810181811067ffffffffffffffff8211171561336f57600080fd5b8060405250919050565b600067ffffffffffffffff82111561339057600080fd5b602082029050919050565b6000819050919050565b6000819050919050565b600060029050919050565b6000600a9050919050565b6000602082019050919050565b6000602082019050919050565b600081905092915050565b600081905092915050565b600082825260208201905092915050565b60006134118261345a565b9050919050565b60008115159050919050565b6000819050919050565b60007fffffffffffffffff00000000000000000000000000000000000000000000000082169050919050565b600073ffffffffffffffffffffffffffffffffffffffff82169050919050565b6000819050919050565b600063ffffffff82169050919050565b600060ff82169050919050565b60006134ac826134b3565b9050919050565b60006134be826134c5565b9050919050565b60006134d08261345a565b9050919050565b6134e081613406565b81146134eb57600080fd5b50565b6134f781613418565b811461350257600080fd5b50565b61350e81613424565b811461351957600080fd5b50565b6135258161342e565b811461353057600080fd5b50565b61353c8161347a565b811461354757600080fd5b50565b61355381613484565b811461355e57600080fd5b50565b61356a81613494565b811461357557600080fd5b5056fea2646970667358221220c7dcd21c378a24fd15803be76554dbbfca5ad7ebb56090b2e41b90e566a2043264736f6c63430006040033",
  "source": "pragma solidity 0.6.4;\npragma experimental ABIEncoderV2;\n\nimport \"./ExtendedAssets.sol\";\n\n\ncontract Accounts is ExtendedAssets {\n\n    using SafeMath for uint256;\n\n    // when opening account\n    event OpenAccount(address indexed owner, bytes8 indexed publisher);\n\n    /**\n    *\n    * Transfer Lock:\n    *           * 0 : open => Assets from every publisher are allowed\n    *           * 1 : open-whitelist => Every whitelisted asset-publisher is allowed (owner can modify)\n    *           * 2 : whitelist => As above, but only publisher can modify it\n    *           * 3 : closed => Only assets from publisher are allowed\n    */\n    struct Account {\n        bool active;\n        bytes8 publisher;\n        bytes32[] assets;\n        uint256 created;\n        uint8 transferLock;                     // 0 = open ; 1 = open-whitelist ; 2 = whitelist ; 3 = closed\n        mapping(bytes8 => bool) whitelist;\n        mapping(bytes8 => bool) blacklist;\n        mapping(bytes32 => uint256) balance;\n    }\n\n    mapping(address => Account) internal _accounts;\n\n    // ----------------------------------------------------------------------------------------------------------\n    // ------------------------------------------------ CONSTRUCTOR ---------------------------------------------\n    // ----------------------------------------------------------------------------------------------------------\n\n\n    constructor(address publishersAddress, address assetsAddress)\n        ExtendedAssets(publishersAddress, assetsAddress) public {\n    }\n\n    // ----------------------------------------------------------------------------------------------------------\n    // ------------------------------------------------ MODIFIERS -----------------------------------------------\n    // ----------------------------------------------------------------------------------------------------------\n\n    modifier _isOwnerOrPublisher(address account, address sender){\n        require(\n            _publishers.isOwner(_accounts[account].publisher, sender) || account == sender,\n            \"Can only be modified by wallet owner or publisher\"\n        );\n        _;\n    }\n\n    // ----------------------------------------------------------------------------------------------------------\n    // ------------------------------------------------ SETTERS -------------------------------------------------\n    // ----------------------------------------------------------------------------------------------------------\n\n    /**\n     * Open new account\n     */\n    function open(bytes8 publisher, address account, uint8 transferLock) public payable returns (bool) {\n\n        // check if valid publisher\n        require(\n            _publishers.isAvailable(publisher),\n            \"Unknown publisher or not active\"\n        );\n\n        // check if called by publisher\n        require(\n            _publishers.isOwner(publisher, msg.sender),\n            \"Can only be modified by publisher\"\n        );\n\n        // check if not already exists\n        require(\n            _accounts[account].created == 0,\n            \"Account exists\"\n        );\n\n        // check if valid transferLock was given\n        require(transferLock < 4, \"Invalid lock-mode specified\");\n\n        Account memory _account;\n        _account.created = block.timestamp;\n        _account.active = true;\n        _account.transferLock = transferLock;\n        _account.publisher = publisher;\n        _accounts[account] = _account;\n\n        emit OpenAccount(account, publisher);\n\n        return true;\n    }\n\n    /**\n     *  Change transfer lock => only allowed by publisher\n     */\n    function setAccountTransferLock(address account, uint8 transferLock) public payable {\n\n        require(\n            _publishers.getOwner(_accounts[account].publisher) == msg.sender,\n            \"Only publisher can modify Transfer Lock\"\n        );\n\n        require(transferLock < 4, \"Invalid Transfer Lock specified\");\n\n        _accounts[account].transferLock = transferLock;\n    }\n\n    /**\n      *  Modify whitelist\n      *  owner: Address of wallet\n      *  targetPublisher: Assets from publishers to grant transfer\n      *  remove: Add or remove target from whitelist\n      */\n    function whitelist(address account, bytes8 targetPublisher, bool listed)\n        public payable _isOwnerOrPublisher(account, msg.sender){\n\n        require(\n            _accounts[account].transferLock != 0 && _accounts[account].transferLock != 3,\n            \"Wallet not in whitelist lock mode\"\n        );\n\n        if (_accounts[account].transferLock == 2) {\n            require(\n                _publishers.isOwner(_accounts[account].publisher, msg.sender),\n                \"Closed whitelist, only publisher can modify\"\n            );\n        }\n\n        _accounts[account].whitelist[targetPublisher] = listed;\n    }\n\n    /**\n      *  Modify blacklist\n      *  owner: Address of wallet\n      *  targetPublisher: Assets from publishers to deny transfer\n      *  remove: Add or remove target from blacklist\n      */\n    function blacklist(address account, bytes8 targetPublisher, bool listed)\n        public payable _isOwnerOrPublisher(account, msg.sender){\n\n        // TODO: Only if transferLock == 0\n        _accounts[account].blacklist[targetPublisher] = listed;\n    }\n\n    function setActive(address account,bool active) public _isOwnerOrPublisher(account, msg.sender){\n        _accounts[account].active = active;\n    }\n\n    // ----------------------------------------------------------------------------------------------------------\n    // ------------------------------------------------ GETTERS -------------------------------------------------\n    // ----------------------------------------------------------------------------------------------------------\n\n    struct Balance {\n        bytes32 asset;\n        uint256 balance;\n    }\n\n\n    function getBalance(address account, uint offset) public view returns(Balance[10] memory, uint256) {\n        Balance[10] memory stores;\n        uint count = _accounts[account].assets.length;\n        uint index = 0;\n\n        for (uint a = 0;a < count; a++) {\n            //Skip data if there is offset\n            if (offset > a) continue;\n\n            Balance memory _store;\n            _store.asset = _accounts[account].assets[a];\n            _store.balance = _accounts[account].balance[_store.asset];\n            stores[index++] = _store;\n\n            // exit loop after 10 rounds\n            if (index == 10) break;\n        }\n\n        return (stores, count);\n    }\n\n    struct AccountInfo {\n        bool active;\n        bytes8 publisher;\n        uint256 created;\n        uint256 assets;\n        uint8 transferLock;\n    }\n\n    /*\n     *   Return wallet info\n     */\n    function getAccount(address account) public view returns (AccountInfo memory){\n        Account memory wallet = _accounts[account];\n        AccountInfo memory info;\n        info.active = wallet.active;\n        info.publisher = wallet.publisher;\n        info.created = wallet.created;\n        info.assets = _accounts[account].assets.length;\n        info.transferLock = wallet.transferLock;\n        //info.whitelist = wallet.whitelist;\n        //info.blacklist = wallet.whitelist;\n        return info;\n    }\n\n}\n",
  "sourcePath": "/home/michael/development/juicechain-contracts/contracts/networks/orange/Accounts.sol",
  "compiler": {
    "name": "solc",
    "version": "0.6.4+commit.1dca32f3.Emscripten.clang"
  },
  "schemaVersion": "3.1.0",
  "updatedAt": "2020-05-23T17:22:01.490Z",
  "devdoc": {
    "methods": {}
  },
  "userdoc": {
    "methods": {
      "blacklist(address,bytes8,bool)": {
        "notice": "Modify blacklist owner: Address of wallet targetPublisher: Assets from publishers to deny transfer remove: Add or remove target from blacklist"
      },
      "open(bytes8,address,uint8)": {
        "notice": "Open new account"
      },
      "setAccountTransferLock(address,uint8)": {
        "notice": "Change transfer lock => only allowed by publisher"
      },
      "setAssetTransferLock(bytes32,uint8)": {
        "notice": "Modify TransferLock Mode"
      },
      "setChecksum(bytes32,bytes32[2])": {
        "notice": "Set hash verification of the \"real-life\" content. TODO: Implement usage of isValidHash"
      },
      "setValidation(bytes32,uint32)": {
        "notice": "Update validation state"
      },
      "whitelist(address,bytes8,bool)": {
        "notice": "Modify whitelist owner: Address of wallet targetPublisher: Assets from publishers to grant transfer remove: Add or remove target from whitelist"
      }
    }
  }
}