{
  "contractName": "ExtendedAssets",
  "abi": [
    {
      "inputs": [
        {
          "internalType": "address",
          "name": "publishersAddress",
          "type": "address"
        },
        {
          "internalType": "address",
          "name": "assetsAddress",
          "type": "address"
        }
      ],
      "stateMutability": "nonpayable",
      "type": "constructor"
    },
    {
      "inputs": [
        {
          "internalType": "bytes32",
          "name": "id",
          "type": "bytes32"
        },
        {
          "internalType": "uint32",
          "name": "validation",
          "type": "uint32"
        }
      ],
      "name": "setValidation",
      "outputs": [],
      "stateMutability": "payable",
      "type": "function"
    },
    {
      "inputs": [
        {
          "internalType": "bytes32",
          "name": "id",
          "type": "bytes32"
        },
        {
          "internalType": "uint8",
          "name": "transferLock",
          "type": "uint8"
        }
      ],
      "name": "setAssetTransferLock",
      "outputs": [],
      "stateMutability": "payable",
      "type": "function"
    },
    {
      "inputs": [
        {
          "internalType": "bytes32",
          "name": "id",
          "type": "bytes32"
        },
        {
          "internalType": "bytes32[2]",
          "name": "checksum",
          "type": "bytes32[2]"
        }
      ],
      "name": "setChecksum",
      "outputs": [],
      "stateMutability": "payable",
      "type": "function"
    },
    {
      "inputs": [
        {
          "internalType": "bytes32",
          "name": "id",
          "type": "bytes32"
        }
      ],
      "name": "getAsset",
      "outputs": [
        {
          "components": [
            {
              "internalType": "bool",
              "name": "exists",
              "type": "bool"
            },
            {
              "internalType": "bool",
              "name": "chargeable",
              "type": "bool"
            },
            {
              "internalType": "uint8",
              "name": "transferLock",
              "type": "uint8"
            },
            {
              "internalType": "bytes32[2]",
              "name": "checksum",
              "type": "bytes32[2]"
            },
            {
              "internalType": "uint32",
              "name": "validation",
              "type": "uint32"
            },
            {
              "internalType": "bool",
              "name": "active",
              "type": "bool"
            },
            {
              "internalType": "bool",
              "name": "root",
              "type": "bool"
            },
            {
              "internalType": "uint256",
              "name": "quantity",
              "type": "uint256"
            },
            {
              "internalType": "uint256",
              "name": "nfaLimit",
              "type": "uint256"
            },
            {
              "internalType": "uint256",
              "name": "nfaQuantity",
              "type": "uint256"
            },
            {
              "internalType": "uint256",
              "name": "created",
              "type": "uint256"
            },
            {
              "internalType": "address",
              "name": "network",
              "type": "address"
            }
          ],
          "internalType": "struct ExtendedAssets.AssetInfo",
          "name": "",
          "type": "tuple"
        }
      ],
      "stateMutability": "view",
      "type": "function"
    }
  ],
  "bytecode": "0x60806040523480156200001157600080fd5b5060405162001978380380620019788339818101604052810190620000379190620000d7565b81600160006101000a81548173ffffffffffffffffffffffffffffffffffffffff021916908373ffffffffffffffffffffffffffffffffffffffff160217905550806000806101000a81548173ffffffffffffffffffffffffffffffffffffffff021916908373ffffffffffffffffffffffffffffffffffffffff160217905550505062000166565b600081519050620000d1816200014c565b92915050565b60008060408385031215620000eb57600080fd5b6000620000fb85828601620000c0565b92505060206200010e85828601620000c0565b9150509250929050565b600062000125826200012c565b9050919050565b600073ffffffffffffffffffffffffffffffffffffffff82169050919050565b620001578162000118565b81146200016357600080fd5b50565b61180280620001766000396000f3fe60806040526004361061003f5760003560e01c806305e5a92c146100445780632cc3ce8014610060578063776ba7a61461009d578063d2c82eeb146100b9575b600080fd5b61005e6004803603810190610059919061105e565b6100d5565b005b34801561006c57600080fd5b5061008760048036038101906100829190611035565b6103dc565b60405161009491906115b1565b60405180910390f35b6100b760048036038101906100b2919061109a565b61067d565b005b6100d360048036038101906100ce91906110d6565b610993565b005b8160018015156002600084815260200190815260200160002060000160009054906101000a900460ff16151514610141576040517f08c379a000000000000000000000000000000000000000000000000000000000815260040161013890611591565b60405180910390fd5b600073__Shared________________________________6339f05272846040518263ffffffff1660e01b815260040161017a91906114ed565b60206040518083038186803b15801561019257600080fd5b505af41580156101a6573d6000803e3d6000fd5b505050506040513d601f19601f820116820180604052508101906101ca9190611112565b9050600160009054906101000a900473ffffffffffffffffffffffffffffffffffffffff1673ffffffffffffffffffffffffffffffffffffffff1663b2acbc1382336040518363ffffffff1660e01b8152600401610229929190611508565b60206040518083038186803b15801561024157600080fd5b505afa158015610255573d6000803e3d6000fd5b505050506040513d601f19601f82011682018060405250810190610279919061100c565b6102b8576040517f08c379a00000000000000000000000000000000000000000000000000000000081526004016102af90611531565b60405180910390fd5b81156103af57600115156000809054906101000a900473ffffffffffffffffffffffffffffffffffffffff1673ffffffffffffffffffffffffffffffffffffffff16635c36901c856040518263ffffffff1660e01b815260040161031c91906114d2565b60206040518083038186803b15801561033457600080fd5b505afa158015610348573d6000803e3d6000fd5b505050506040513d601f19601f8201168201806040525081019061036c919061100c565b1515146103ae576040517f08c379a00000000000000000000000000000000000000000000000000000000081526004016103a590611571565b60405180910390fd5b5b83600260008781526020019081526020016000206001019060026103d4929190610ce9565b505050505050565b6103e4610d29565b6103ec610db7565b6000809054906101000a900473ffffffffffffffffffffffffffffffffffffffff1673ffffffffffffffffffffffffffffffffffffffff16638eaa6ac0846040518263ffffffff1660e01b815260040161044691906114d2565b60e06040518083038186803b15801561045e57600080fd5b505afa158015610472573d6000803e3d6000fd5b505050506040513d601f19601f82011682018060405250810190610496919061113b565b90506104a0610d29565b81602001518160c001901515908115158152505081600001518160a001901515908115158152505081604001518160e00181815250508160600151816101000181815250508160800151816101200181815250506002600085815260200190815260200160002060030160009054906101000a900463ffffffff16816080019063ffffffff16908163ffffffff16815250508160a00151816101400181815250506002600085815260200190815260200160002060000160009054906101000a900460ff168160000190151590811515815250506002600085815260200190815260200160002060000160019054906101000a900460ff168160200190151590811515815250506002600085815260200190815260200160002060000160029054906101000a900460ff16816040019060ff16908160ff168152505060026000858152602001908152602001600020600101600280602002604051908101604052809291908260028015610629576020028201915b815481526020019060010190808311610615575b505050505081606001819052508160c0015181610160019073ffffffffffffffffffffffffffffffffffffffff16908173ffffffffffffffffffffffffffffffffffffffff16815250508092505050919050565b8160018015156002600084815260200190815260200160002060000160009054906101000a900460ff161515146106e9576040517f08c379a00000000000000000000000000000000000000000000000000000000081526004016106e090611591565b60405180910390fd5b600073__Shared________________________________6339f05272846040518263ffffffff1660e01b815260040161072291906114ed565b60206040518083038186803b15801561073a57600080fd5b505af415801561074e573d6000803e3d6000fd5b505050506040513d601f19601f820116820180604052508101906107729190611112565b9050600160009054906101000a900473ffffffffffffffffffffffffffffffffffffffff1673ffffffffffffffffffffffffffffffffffffffff1663b2acbc1382336040518363ffffffff1660e01b81526004016107d1929190611508565b60206040518083038186803b1580156107e957600080fd5b505afa1580156107fd573d6000803e3d6000fd5b505050506040513d601f19601f82011682018060405250810190610821919061100c565b610860576040517f08c379a000000000000000000000000000000000000000000000000000000000815260040161085790611531565b60405180910390fd5b811561095757600115156000809054906101000a900473ffffffffffffffffffffffffffffffffffffffff1673ffffffffffffffffffffffffffffffffffffffff16635c36901c856040518263ffffffff1660e01b81526004016108c491906114d2565b60206040518083038186803b1580156108dc57600080fd5b505afa1580156108f0573d6000803e3d6000fd5b505050506040513d601f19601f82011682018060405250810190610914919061100c565b151514610956576040517f08c379a000000000000000000000000000000000000000000000000000000000815260040161094d90611571565b60405180910390fd5b5b836002600087815260200190815260200160002060030160006101000a81548163ffffffff021916908363ffffffff1602179055505050505050565b8160018015156002600084815260200190815260200160002060000160009054906101000a900460ff161515146109ff576040517f08c379a00000000000000000000000000000000000000000000000000000000081526004016109f690611591565b60405180910390fd5b600073__Shared________________________________6339f05272846040518263ffffffff1660e01b8152600401610a3891906114ed565b60206040518083038186803b158015610a5057600080fd5b505af4158015610a64573d6000803e3d6000fd5b505050506040513d601f19601f82011682018060405250810190610a889190611112565b9050600160009054906101000a900473ffffffffffffffffffffffffffffffffffffffff1673ffffffffffffffffffffffffffffffffffffffff1663b2acbc1382336040518363ffffffff1660e01b8152600401610ae7929190611508565b60206040518083038186803b158015610aff57600080fd5b505afa158015610b13573d6000803e3d6000fd5b505050506040513d601f19601f82011682018060405250810190610b37919061100c565b610b76576040517f08c379a0000000000000000000000000000000000000000000000000000000008152600401610b6d90611531565b60405180910390fd5b8115610c6d57600115156000809054906101000a900473ffffffffffffffffffffffffffffffffffffffff1673ffffffffffffffffffffffffffffffffffffffff16635c36901c856040518263ffffffff1660e01b8152600401610bda91906114d2565b60206040518083038186803b158015610bf257600080fd5b505afa158015610c06573d6000803e3d6000fd5b505050506040513d601f19601f82011682018060405250810190610c2a919061100c565b151514610c6c576040517f08c379a0000000000000000000000000000000000000000000000000000000008152600401610c6390611571565b60405180910390fd5b5b60038460ff1610610cb3576040517f08c379a0000000000000000000000000000000000000000000000000000000008152600401610caa90611551565b60405180910390fd5b836002600087815260200190815260200160002060000160026101000a81548160ff021916908360ff1602179055505050505050565b8260028101928215610d18579160200282015b82811115610d17578251825591602001919060010190610cfc565b5b509050610d259190610e0e565b5090565b604051806101800160405280600015158152602001600015158152602001600060ff168152602001610d59610e33565b8152602001600063ffffffff16815260200160001515815260200160001515815260200160008152602001600081526020016000815260200160008152602001600073ffffffffffffffffffffffffffffffffffffffff1681525090565b6040518060e0016040528060001515815260200160001515815260200160008152602001600081526020016000815260200160008152602001600073ffffffffffffffffffffffffffffffffffffffff1681525090565b610e3091905b80821115610e2c576000816000905550600101610e14565b5090565b90565b6040518060400160405280600290602082028036833780820191505090505090565b600081519050610e648161172b565b92915050565b600082601f830112610e7b57600080fd5b6002610e8e610e89826115fa565b6115cd565b91508183856020840282011115610ea457600080fd5b60005b83811015610ed45781610eba8882610ef3565b845260208401935060208301925050600181019050610ea7565b5050505092915050565b600081519050610eed81611742565b92915050565b600081359050610f0281611759565b92915050565b600081519050610f1781611770565b92915050565b600060e08284031215610f2f57600080fd5b610f3960e06115cd565b90506000610f4984828501610ede565b6000830152506020610f5d84828501610ede565b6020830152506040610f7184828501610fcd565b6040830152506060610f8584828501610fcd565b6060830152506080610f9984828501610fcd565b60808301525060a0610fad84828501610fcd565b60a08301525060c0610fc184828501610e55565b60c08301525092915050565b600081519050610fdc81611787565b92915050565b600081359050610ff18161179e565b92915050565b600081359050611006816117b5565b92915050565b60006020828403121561101e57600080fd5b600061102c84828501610ede565b91505092915050565b60006020828403121561104757600080fd5b600061105584828501610ef3565b91505092915050565b6000806060838503121561107157600080fd5b600061107f85828601610ef3565b925050602061109085828601610e6a565b9150509250929050565b600080604083850312156110ad57600080fd5b60006110bb85828601610ef3565b92505060206110cc85828601610fe2565b9150509250929050565b600080604083850312156110e957600080fd5b60006110f785828601610ef3565b925050602061110885828601610ff7565b9150509250929050565b60006020828403121561112457600080fd5b600061113284828501610f08565b91505092915050565b600060e0828403121561114d57600080fd5b600061115b84828501610f1d565b91505092915050565b60006111708383611200565b60208301905092915050565b611185816116f5565b82525050565b6111948161165a565b82525050565b6111a381611626565b6111ad818461163e565b92506111b88261161c565b8060005b838110156111e95781516111d08782611164565b96506111db83611631565b9250506001810190506111bc565b505050505050565b6111fa8161166c565b82525050565b61120981611678565b82525050565b61121881611678565b82525050565b61122781611678565b82525050565b61123681611682565b82525050565b6000611249602383611649565b91507f4f6e6c79207075626c697368657220697320616c6c6f77656420746f206d6f6460008301527f69667900000000000000000000000000000000000000000000000000000000006020830152604082019050919050565b60006112af602383611649565b91507f496e76616c6964205472616e736665724c6f636b204d6f64652073706563696660008301527f69656400000000000000000000000000000000000000000000000000000000006020830152604082019050919050565b6000611315602883611649565b91507f41737365742064697361626c6564206d6f64696669636174696f6e73206e6f7460008301527f20616c6c6f7765640000000000000000000000000000000000000000000000006020830152604082019050919050565b600061137b600d83611649565b91507f556e6b6e6f776e206173736574000000000000000000000000000000000000006000830152602082019050919050565b6101a0820160008201516113c560008501826111f1565b5060208201516113d860208501826111f1565b5060408201516113eb60408501826114c3565b5060608201516113fe606085018261119a565b50608082015161141160a08501826114b4565b5060a082015161142460c08501826111f1565b5060c082015161143760e08501826111f1565b5060e082015161144b6101008501826114a5565b506101008201516114606101208501826114a5565b506101208201516114756101408501826114a5565b5061014082015161148a6101608501826114a5565b5061016082015161149f61018085018261118b565b50505050565b6114ae816116ce565b82525050565b6114bd816116d8565b82525050565b6114cc816116e8565b82525050565b60006020820190506114e7600083018461120f565b92915050565b6000602082019050611502600083018461121e565b92915050565b600060408201905061151d600083018561122d565b61152a602083018461117c565b9392505050565b6000602082019050818103600083015261154a8161123c565b9050919050565b6000602082019050818103600083015261156a816112a2565b9050919050565b6000602082019050818103600083015261158a81611308565b9050919050565b600060208201905081810360008301526115aa8161136e565b9050919050565b60006101a0820190506115c760008301846113ae565b92915050565b6000604051905081810181811067ffffffffffffffff821117156115f057600080fd5b8060405250919050565b600067ffffffffffffffff82111561161157600080fd5b602082029050919050565b6000819050919050565b600060029050919050565b6000602082019050919050565b600081905092915050565b600082825260208201905092915050565b6000611665826116ae565b9050919050565b60008115159050919050565b6000819050919050565b60007fffffffffffffffff00000000000000000000000000000000000000000000000082169050919050565b600073ffffffffffffffffffffffffffffffffffffffff82169050919050565b6000819050919050565b600063ffffffff82169050919050565b600060ff82169050919050565b600061170082611707565b9050919050565b600061171282611719565b9050919050565b6000611724826116ae565b9050919050565b6117348161165a565b811461173f57600080fd5b50565b61174b8161166c565b811461175657600080fd5b50565b61176281611678565b811461176d57600080fd5b50565b61177981611682565b811461178457600080fd5b50565b611790816116ce565b811461179b57600080fd5b50565b6117a7816116d8565b81146117b257600080fd5b50565b6117be816116e8565b81146117c957600080fd5b5056fea26469706673582212206fb96459e3dfda1fc5ae1b1cc67d3be02e6d0cbd07d4477a532fc694798198f764736f6c63430006040033",
  "source": "pragma solidity 0.6.4;\npragma experimental ABIEncoderV2;\n\nimport \"../../core/Publishers.sol\";\nimport \"../../core/Assets.sol\";\n\ncontract ExtendedAssets {\n\n    /**\n  *   -validation:   Asset dynamic validation (can be changed from publisher)\n  *   -chargeable: transferFrom is allowed with this asset\n  *                 This must be set on issue-time and cannot be changed after !!!\n  *   -transferLock: * 00 : None (From any wallet to any wallets)\n  *                  * 01 : Wallet (From publisher wallets to publishers wallets)\n  *                  * 02 : Publisher (Only publisher can transfer into wallets, owner can return to publisher)\n  *   -checksum: 64 Char Hash-signature of real-content\n */\n    struct Asset {\n        bool exists;\n        bool chargeable;\n        uint8 transferLock;\n        bytes32[2] checksum;\n        uint32 validation;\n    }\n\n    Assets internal _assets;\n    Publishers internal _publishers;\n\n    // internal assets\n    mapping(bytes32 => Asset) internal assets;\n\n\n    // ------------------------------------------------------------------------------------------------\n    // ------------------------------------------------------------------------------------------------\n\n    constructor(address publishersAddress, address assetsAddress) public {\n        _publishers = Publishers(publishersAddress);\n        _assets = Assets(assetsAddress);\n    }\n\n    // ------------------------------------------------------------------------------------------------\n    // ------------------------------------------------------------------------------------------------\n\n    /**\n    *  Verify sender is owner\n    *  additionally require the asset to be active.\n    *\n    *  active: true when assets needs to be active to proceed\n    */\n    modifier isOwner(bytes32 id, bool active) {\n\n        // verify asset exists\n        require(assets[id].exists == true, \"Unknown asset\");\n\n        // verify publisher is calling\n        bytes8 publisher = Shared.extractPublisher(id);\n        require(_publishers.isOwner(publisher, msg.sender), \"Only publisher is allowed to modify\");\n\n        // check (optional) if asset was disabled\n        if (active)\n            require(_assets.isActive(id) == true, \"Asset disabled modifications not allowed\");\n\n        _;\n    }\n\n    // -------------------------------------------------------------------------------------------------\n    // ------------------------------------ SETTERS ----------------------------------------------------\n    // -------------------------------------------------------------------------------------------------\n\n    /**\n     * Update validation state\n     */\n    function setValidation(bytes32 id, uint32 validation) public payable isOwner(id, true) {\n        assets[id].validation = validation;\n    }\n\n    /**\n      * Modify TransferLock Mode\n      */\n    function setAssetTransferLock(bytes32 id, uint8 transferLock) public payable isOwner(id, true) {\n        require(transferLock < 3, \"Invalid TransferLock Mode specified\");\n\n        assets[id].transferLock = transferLock;\n    }\n\n    /**\n      * Set hash verification of the \"real-life\" content.\n      * TODO: Implement usage of isValidHash\n      */\n    function setChecksum(bytes32 id, bytes32[2] memory checksum) public payable isOwner(id, true) {\n        //require(isValidHash(id), \"Only hash values are allowed\");\n        assets[id].checksum = checksum;\n    }\n\n    struct AssetInfo {\n        bool exists;\n        bool chargeable;\n        uint8 transferLock;\n        bytes32[2] checksum;\n        uint32 validation;\n        bool active;\n        bool root;\n        uint256 quantity;\n        uint256 nfaLimit;\n        uint256 nfaQuantity;\n        uint256 created;\n        address network;\n    }\n\n    function getAsset(bytes32 id) public view returns (AssetInfo memory){\n        Assets.Asset memory a = _assets.get(id);\n\n        AssetInfo memory asset;\n        asset.root = a.root;\n        asset.active = a.active;\n        asset.quantity = a.quantity;\n        asset.nfaLimit = a.nfaLimit;\n        asset.nfaQuantity = a.nfaQuantity;\n        asset.validation = assets[id].validation;\n        asset.created = a.created;\n        asset.exists = assets[id].exists;\n        asset.chargeable = assets[id].chargeable;\n        asset.transferLock = assets[id].transferLock;\n        asset.checksum = assets[id].checksum;\n        asset.network = a.network;\n\n\n        return asset;\n    }\n\n}\n",
  "sourcePath": "/home/michael/development/juicechain-contracts/contracts/networks/orange/ExtendedAssets.sol",
  "compiler": {
    "name": "solc",
    "version": "0.6.4+commit.1dca32f3.Emscripten.clang"
  },
  "schemaVersion": "3.1.0",
  "updatedAt": "2020-05-23T17:22:01.498Z",
  "devdoc": {
    "methods": {}
  },
  "userdoc": {
    "methods": {
      "setAssetTransferLock(bytes32,uint8)": {
        "notice": "Modify TransferLock Mode"
      },
      "setChecksum(bytes32,bytes32[2])": {
        "notice": "Set hash verification of the \"real-life\" content. TODO: Implement usage of isValidHash"
      },
      "setValidation(bytes32,uint32)": {
        "notice": "Update validation state"
      }
    }
  }
}