{
  "contractName": "Orange",
  "abi": [
    {
      "inputs": [
        {
          "internalType": "address",
          "name": "juiceAddress",
          "type": "address"
        },
        {
          "internalType": "address",
          "name": "consortiumAddress",
          "type": "address"
        },
        {
          "internalType": "address",
          "name": "publishersAddress",
          "type": "address"
        },
        {
          "internalType": "address",
          "name": "assetsAddress",
          "type": "address"
        }
      ],
      "stateMutability": "nonpayable",
      "type": "constructor"
    },
    {
      "anonymous": false,
      "inputs": [
        {
          "indexed": true,
          "internalType": "address",
          "name": "receiver",
          "type": "address"
        },
        {
          "indexed": false,
          "internalType": "bytes32",
          "name": "assetId",
          "type": "bytes32"
        },
        {
          "indexed": false,
          "internalType": "uint256",
          "name": "quantity",
          "type": "uint256"
        }
      ],
      "name": "Deposit",
      "type": "event"
    },
    {
      "anonymous": false,
      "inputs": [
        {
          "indexed": true,
          "internalType": "address",
          "name": "owner",
          "type": "address"
        },
        {
          "indexed": true,
          "internalType": "bytes8",
          "name": "publisher",
          "type": "bytes8"
        }
      ],
      "name": "OpenAccount",
      "type": "event"
    },
    {
      "inputs": [
        {
          "internalType": "address",
          "name": "account",
          "type": "address"
        },
        {
          "internalType": "bytes8",
          "name": "targetPublisher",
          "type": "bytes8"
        },
        {
          "internalType": "bool",
          "name": "listed",
          "type": "bool"
        }
      ],
      "name": "blacklist",
      "outputs": [],
      "stateMutability": "payable",
      "type": "function",
      "payable": true
    },
    {
      "inputs": [
        {
          "internalType": "address",
          "name": "account",
          "type": "address"
        }
      ],
      "name": "getAccount",
      "outputs": [
        {
          "components": [
            {
              "internalType": "bool",
              "name": "active",
              "type": "bool"
            },
            {
              "internalType": "bytes8",
              "name": "publisher",
              "type": "bytes8"
            },
            {
              "internalType": "uint256",
              "name": "created",
              "type": "uint256"
            },
            {
              "internalType": "uint256",
              "name": "assets",
              "type": "uint256"
            },
            {
              "internalType": "uint8",
              "name": "transferLock",
              "type": "uint8"
            }
          ],
          "internalType": "struct Accounts.AccountInfo",
          "name": "",
          "type": "tuple"
        }
      ],
      "stateMutability": "view",
      "type": "function",
      "constant": true
    },
    {
      "inputs": [
        {
          "internalType": "bytes32",
          "name": "id",
          "type": "bytes32"
        }
      ],
      "name": "getAsset",
      "outputs": [
        {
          "components": [
            {
              "internalType": "bool",
              "name": "exists",
              "type": "bool"
            },
            {
              "internalType": "bool",
              "name": "chargeable",
              "type": "bool"
            },
            {
              "internalType": "uint8",
              "name": "transferLock",
              "type": "uint8"
            },
            {
              "internalType": "bytes32[2]",
              "name": "checksum",
              "type": "bytes32[2]"
            },
            {
              "internalType": "uint32",
              "name": "validation",
              "type": "uint32"
            },
            {
              "internalType": "bool",
              "name": "active",
              "type": "bool"
            },
            {
              "internalType": "bool",
              "name": "root",
              "type": "bool"
            },
            {
              "internalType": "uint256",
              "name": "quantity",
              "type": "uint256"
            },
            {
              "internalType": "uint256",
              "name": "nfaLimit",
              "type": "uint256"
            },
            {
              "internalType": "uint256",
              "name": "nfaQuantity",
              "type": "uint256"
            },
            {
              "internalType": "uint256",
              "name": "created",
              "type": "uint256"
            },
            {
              "internalType": "address",
              "name": "network",
              "type": "address"
            }
          ],
          "internalType": "struct ExtendedAssets.AssetInfo",
          "name": "",
          "type": "tuple"
        }
      ],
      "stateMutability": "view",
      "type": "function",
      "constant": true
    },
    {
      "inputs": [
        {
          "internalType": "address",
          "name": "account",
          "type": "address"
        },
        {
          "internalType": "uint256",
          "name": "offset",
          "type": "uint256"
        }
      ],
      "name": "getBalance",
      "outputs": [
        {
          "components": [
            {
              "internalType": "bytes32",
              "name": "asset",
              "type": "bytes32"
            },
            {
              "internalType": "uint256",
              "name": "balance",
              "type": "uint256"
            }
          ],
          "internalType": "struct Accounts.Balance[10]",
          "name": "",
          "type": "tuple[10]"
        },
        {
          "internalType": "uint256",
          "name": "",
          "type": "uint256"
        }
      ],
      "stateMutability": "view",
      "type": "function",
      "constant": true
    },
    {
      "inputs": [
        {
          "internalType": "bytes8",
          "name": "publisher",
          "type": "bytes8"
        },
        {
          "internalType": "address",
          "name": "account",
          "type": "address"
        },
        {
          "internalType": "uint8",
          "name": "transferLock",
          "type": "uint8"
        }
      ],
      "name": "open",
      "outputs": [
        {
          "internalType": "bool",
          "name": "",
          "type": "bool"
        }
      ],
      "stateMutability": "payable",
      "type": "function",
      "payable": true
    },
    {
      "inputs": [
        {
          "internalType": "address",
          "name": "account",
          "type": "address"
        },
        {
          "internalType": "uint8",
          "name": "transferLock",
          "type": "uint8"
        }
      ],
      "name": "setAccountTransferLock",
      "outputs": [],
      "stateMutability": "payable",
      "type": "function",
      "payable": true
    },
    {
      "inputs": [
        {
          "internalType": "address",
          "name": "account",
          "type": "address"
        },
        {
          "internalType": "bool",
          "name": "active",
          "type": "bool"
        }
      ],
      "name": "setActive",
      "outputs": [],
      "stateMutability": "nonpayable",
      "type": "function"
    },
    {
      "inputs": [
        {
          "internalType": "bytes32",
          "name": "id",
          "type": "bytes32"
        },
        {
          "internalType": "uint8",
          "name": "transferLock",
          "type": "uint8"
        }
      ],
      "name": "setAssetTransferLock",
      "outputs": [],
      "stateMutability": "payable",
      "type": "function",
      "payable": true
    },
    {
      "inputs": [
        {
          "internalType": "bytes32",
          "name": "id",
          "type": "bytes32"
        },
        {
          "internalType": "bytes32[2]",
          "name": "checksum",
          "type": "bytes32[2]"
        }
      ],
      "name": "setChecksum",
      "outputs": [],
      "stateMutability": "payable",
      "type": "function",
      "payable": true
    },
    {
      "inputs": [
        {
          "internalType": "bytes32",
          "name": "id",
          "type": "bytes32"
        },
        {
          "internalType": "uint32",
          "name": "validation",
          "type": "uint32"
        }
      ],
      "name": "setValidation",
      "outputs": [],
      "stateMutability": "payable",
      "type": "function",
      "payable": true
    },
    {
      "inputs": [
        {
          "internalType": "address",
          "name": "account",
          "type": "address"
        },
        {
          "internalType": "bytes8",
          "name": "targetPublisher",
          "type": "bytes8"
        },
        {
          "internalType": "bool",
          "name": "listed",
          "type": "bool"
        }
      ],
      "name": "whitelist",
      "outputs": [],
      "stateMutability": "payable",
      "type": "function",
      "payable": true
    },
    {
      "inputs": [
        {
          "internalType": "bytes32",
          "name": "assetId",
          "type": "bytes32"
        },
        {
          "internalType": "address",
          "name": "receiver",
          "type": "address"
        },
        {
          "internalType": "uint256",
          "name": "quantity",
          "type": "uint256"
        }
      ],
      "name": "allocate",
      "outputs": [
        {
          "internalType": "bool",
          "name": "",
          "type": "bool"
        }
      ],
      "stateMutability": "nonpayable",
      "type": "function"
    },
    {
      "inputs": [
        {
          "internalType": "address",
          "name": "receiver",
          "type": "address"
        },
        {
          "internalType": "bytes32",
          "name": "assetId",
          "type": "bytes32"
        },
        {
          "internalType": "uint256",
          "name": "amount",
          "type": "uint256"
        }
      ],
      "name": "transfer",
      "outputs": [
        {
          "internalType": "bool",
          "name": "",
          "type": "bool"
        }
      ],
      "stateMutability": "payable",
      "type": "function",
      "payable": true
    },
    {
      "inputs": [
        {
          "internalType": "bytes32",
          "name": "assetId",
          "type": "bytes32"
        },
        {
          "internalType": "address",
          "name": "account",
          "type": "address"
        }
      ],
      "name": "getAssetBalance",
      "outputs": [
        {
          "internalType": "uint256",
          "name": "",
          "type": "uint256"
        }
      ],
      "stateMutability": "view",
      "type": "function",
      "constant": true
    }
  ],
  "bytecode": "0x60806040523480156200001157600080fd5b5060405162005286380380620052868339818101604052810190620000379190620001a4565b8181818181600160006101000a81548173ffffffffffffffffffffffffffffffffffffffff021916908373ffffffffffffffffffffffffffffffffffffffff160217905550806000806101000a81548173ffffffffffffffffffffffffffffffffffffffff021916908373ffffffffffffffffffffffffffffffffffffffff1602179055505050505080600660006101000a81548173ffffffffffffffffffffffffffffffffffffffff021916908373ffffffffffffffffffffffffffffffffffffffff16021790555083600460006101000a81548173ffffffffffffffffffffffffffffffffffffffff021916908373ffffffffffffffffffffffffffffffffffffffff16021790555082600560006101000a81548173ffffffffffffffffffffffffffffffffffffffff021916908373ffffffffffffffffffffffffffffffffffffffff160217905550505050506200025e565b6000815190506200019e8162000244565b92915050565b60008060008060808587031215620001bb57600080fd5b6000620001cb878288016200018d565b9450506020620001de878288016200018d565b9350506040620001f1878288016200018d565b925050606062000204878288016200018d565b91505092959194509250565b60006200021d8262000224565b9050919050565b600073ffffffffffffffffffffffffffffffffffffffff82169050919050565b6200024f8162000210565b81146200025b57600080fd5b50565b615018806200026e6000396000f3fe6080604052600436106100dd5760003560e01c8063776ba7a61161007f578063b2abfe8f11610059578063b2abfe8f146102a0578063d2c82eeb146102d0578063d4d0f1dd146102ec578063fbcbc0f114610308576100dd565b8063776ba7a61461023857806383f163ee146102545780639fde30b714610270576100dd565b80632ce962cf116100bb5780632ce962cf146101795780634e7c4101146101a25780635127c4ae146101be5780635905c072146101fb576100dd565b806305e5a92c146100e25780632b04e840146100fe5780632cc3ce801461013c575b600080fd5b6100fc60048036038101906100f79190613cbb565b610345565b005b34801561010a57600080fd5b5061012560048036038101906101209190613b66565b61064c565b604051610133929190614921565b60405180910390f35b34801561014857600080fd5b50610163600480360381019061015e9190613c07565b6107dc565b6040516101709190614d30565b60405180910390f35b34801561018557600080fd5b506101a0600480360381019061019b9190613a8c565b610a7d565b005b6101bc60048036038101906101b79190613b17565b610c50565b005b3480156101ca57600080fd5b506101e560048036038101906101e09190613c6c565b6110f6565b6040516101f2919061494c565b60405180910390f35b34801561020757600080fd5b50610222600480360381019061021d9190613c30565b61129c565b60405161022f9190614d4c565b60405180910390f35b610252600480360381019061024d9190613cf7565b6112fa565b005b61026e60048036038101906102699190613b17565b611610565b005b61028a60048036038101906102859190613ac8565b61182b565b604051610297919061494c565b60405180910390f35b6102ba60048036038101906102b59190613d98565b6119a7565b6040516102c7919061494c565b60405180910390f35b6102ea60048036038101906102e59190613d33565b611dff565b005b61030660048036038101906103019190613ba2565b612155565b005b34801561031457600080fd5b5061032f600480360381019061032a9190613a3a565b612361565b60405161033c9190614d15565b60405180910390f35b8160018015156002600084815260200190815260200160002060000160009054906101000a900460ff161515146103b1576040517f08c379a00000000000000000000000000000000000000000000000000000000081526004016103a890614c75565b60405180910390fd5b600073__Shared________________________________6339f05272846040518263ffffffff1660e01b81526004016103ea9190614982565b60206040518083038186803b15801561040257600080fd5b505af4158015610416573d6000803e3d6000fd5b505050506040513d601f19601f8201168201806040525081019061043a9190613d6f565b9050600160009054906101000a900473ffffffffffffffffffffffffffffffffffffffff1673ffffffffffffffffffffffffffffffffffffffff1663b2acbc1382336040518363ffffffff1660e01b8152600401610499929190614a0a565b60206040518083038186803b1580156104b157600080fd5b505afa1580156104c5573d6000803e3d6000fd5b505050506040513d601f19601f820116820180604052508101906104e99190613bde565b610528576040517f08c379a000000000000000000000000000000000000000000000000000000000815260040161051f90614a55565b60405180910390fd5b811561061f57600115156000809054906101000a900473ffffffffffffffffffffffffffffffffffffffff1673ffffffffffffffffffffffffffffffffffffffff16635c36901c856040518263ffffffff1660e01b815260040161058c9190614967565b60206040518083038186803b1580156105a457600080fd5b505afa1580156105b8573d6000803e3d6000fd5b505050506040513d601f19601f820116820180604052508101906105dc9190613bde565b15151461061e576040517f08c379a000000000000000000000000000000000000000000000000000000000815260040161061590614c35565b60405180910390fd5b5b83600260008781526020019081526020016000206001019060026106449291906134ee565b505050505050565b61065461352e565b600061065e61352e565b6000600360008773ffffffffffffffffffffffffffffffffffffffff1673ffffffffffffffffffffffffffffffffffffffff168152602001908152602001600020600101805490509050600080905060008090505b828110156107cb57808711156106c8576107be565b6106d061355c565b600360008a73ffffffffffffffffffffffffffffffffffffffff1673ffffffffffffffffffffffffffffffffffffffff168152602001908152602001600020600101828154811061071d57fe5b9060005260206000200154816000018181525050600360008a73ffffffffffffffffffffffffffffffffffffffff1673ffffffffffffffffffffffffffffffffffffffff16815260200190815260200160002060060160008260000151815260200190815260200160002054816020018181525050808584806001019550600a81106107a557fe5b6020020181905250600a8314156107bc57506107cb565b505b80806001019150506106b3565b508282945094505050509250929050565b6107e4613579565b6107ec613607565b6000809054906101000a900473ffffffffffffffffffffffffffffffffffffffff1673ffffffffffffffffffffffffffffffffffffffff16638eaa6ac0846040518263ffffffff1660e01b81526004016108469190614967565b60e06040518083038186803b15801561085e57600080fd5b505afa158015610872573d6000803e3d6000fd5b505050506040513d601f19601f820116820180604052508101906108969190613de7565b90506108a0613579565b81602001518160c001901515908115158152505081600001518160a001901515908115158152505081604001518160e00181815250508160600151816101000181815250508160800151816101200181815250506002600085815260200190815260200160002060030160009054906101000a900463ffffffff16816080019063ffffffff16908163ffffffff16815250508160a00151816101400181815250506002600085815260200190815260200160002060000160009054906101000a900460ff168160000190151590811515815250506002600085815260200190815260200160002060000160019054906101000a900460ff168160200190151590811515815250506002600085815260200190815260200160002060000160029054906101000a900460ff16816040019060ff16908160ff168152505060026000858152602001908152602001600020600101600280602002604051908101604052809291908260028015610a29576020028201915b815481526020019060010190808311610a15575b505050505081606001819052508160c0015181610160019073ffffffffffffffffffffffffffffffffffffffff16908173ffffffffffffffffffffffffffffffffffffffff16815250508092505050919050565b8133600160009054906101000a900473ffffffffffffffffffffffffffffffffffffffff1673ffffffffffffffffffffffffffffffffffffffff1663b2acbc13600360008573ffffffffffffffffffffffffffffffffffffffff1673ffffffffffffffffffffffffffffffffffffffff16815260200190815260200160002060000160019054906101000a900460c01b836040518363ffffffff1660e01b8152600401610b2b9291906149e1565b60206040518083038186803b158015610b4357600080fd5b505afa158015610b57573d6000803e3d6000fd5b505050506040513d601f19601f82011682018060405250810190610b7b9190613bde565b80610bb157508073ffffffffffffffffffffffffffffffffffffffff168273ffffffffffffffffffffffffffffffffffffffff16145b610bf0576040517f08c379a0000000000000000000000000000000000000000000000000000000008152600401610be790614cf5565b60405180910390fd5b82600360008673ffffffffffffffffffffffffffffffffffffffff1673ffffffffffffffffffffffffffffffffffffffff16815260200190815260200160002060000160006101000a81548160ff02191690831515021790555050505050565b8233600160009054906101000a900473ffffffffffffffffffffffffffffffffffffffff1673ffffffffffffffffffffffffffffffffffffffff1663b2acbc13600360008573ffffffffffffffffffffffffffffffffffffffff1673ffffffffffffffffffffffffffffffffffffffff16815260200190815260200160002060000160019054906101000a900460c01b836040518363ffffffff1660e01b8152600401610cfe9291906149e1565b60206040518083038186803b158015610d1657600080fd5b505afa158015610d2a573d6000803e3d6000fd5b505050506040513d601f19601f82011682018060405250810190610d4e9190613bde565b80610d8457508073ffffffffffffffffffffffffffffffffffffffff168273ffffffffffffffffffffffffffffffffffffffff16145b610dc3576040517f08c379a0000000000000000000000000000000000000000000000000000000008152600401610dba90614cf5565b60405180910390fd5b6000600360008773ffffffffffffffffffffffffffffffffffffffff1673ffffffffffffffffffffffffffffffffffffffff16815260200190815260200160002060030160009054906101000a900460ff1660ff1614158015610e78575060038060008773ffffffffffffffffffffffffffffffffffffffff1673ffffffffffffffffffffffffffffffffffffffff16815260200190815260200160002060030160009054906101000a900460ff1660ff1614155b610eb7576040517f08c379a0000000000000000000000000000000000000000000000000000000008152600401610eae90614b95565b60405180910390fd5b6002600360008773ffffffffffffffffffffffffffffffffffffffff1673ffffffffffffffffffffffffffffffffffffffff16815260200190815260200160002060030160009054906101000a900460ff1660ff16141561104e57600160009054906101000a900473ffffffffffffffffffffffffffffffffffffffff1673ffffffffffffffffffffffffffffffffffffffff1663b2acbc13600360008873ffffffffffffffffffffffffffffffffffffffff1673ffffffffffffffffffffffffffffffffffffffff16815260200190815260200160002060000160019054906101000a900460c01b336040518363ffffffff1660e01b8152600401610fbe929190614a0a565b60206040518083038186803b158015610fd657600080fd5b505afa158015610fea573d6000803e3d6000fd5b505050506040513d601f19601f8201168201806040525081019061100e9190613bde565b61104d576040517f08c379a000000000000000000000000000000000000000000000000000000000815260040161104490614b35565b60405180910390fd5b5b82600360008773ffffffffffffffffffffffffffffffffffffffff1673ffffffffffffffffffffffffffffffffffffffff16815260200190815260200160002060040160008677ffffffffffffffffffffffffffffffffffffffffffffffff191677ffffffffffffffffffffffffffffffffffffffffffffffff1916815260200190815260200160002060006101000a81548160ff0219169083151502179055505050505050565b6000600660009054906101000a900473ffffffffffffffffffffffffffffffffffffffff1673ffffffffffffffffffffffffffffffffffffffff163373ffffffffffffffffffffffffffffffffffffffff1614611188576040517f08c379a000000000000000000000000000000000000000000000000000000000815260040161117f90614bb5565b60405180910390fd5b61119061365e565b600181600001901515908115158152505060018160200190151590811515815250506000816040019060ff16908160ff1681525050806002600087815260200190815260200160002060008201518160000160006101000a81548160ff02191690831515021790555060208201518160000160016101000a81548160ff02191690831515021790555060408201518160000160026101000a81548160ff021916908360ff1602179055506060820151816001019060026112519291906136a0565b5060808201518160030160006101000a81548163ffffffff021916908363ffffffff1602179055509050506112868585612583565b5061129284868561291e565b9150509392505050565b6000600360008373ffffffffffffffffffffffffffffffffffffffff1673ffffffffffffffffffffffffffffffffffffffff168152602001908152602001600020600601600084815260200190815260200160002054905092915050565b8160018015156002600084815260200190815260200160002060000160009054906101000a900460ff16151514611366576040517f08c379a000000000000000000000000000000000000000000000000000000000815260040161135d90614c75565b60405180910390fd5b600073__Shared________________________________6339f05272846040518263ffffffff1660e01b815260040161139f9190614982565b60206040518083038186803b1580156113b757600080fd5b505af41580156113cb573d6000803e3d6000fd5b505050506040513d601f19601f820116820180604052508101906113ef9190613d6f565b9050600160009054906101000a900473ffffffffffffffffffffffffffffffffffffffff1673ffffffffffffffffffffffffffffffffffffffff1663b2acbc1382336040518363ffffffff1660e01b815260040161144e929190614a0a565b60206040518083038186803b15801561146657600080fd5b505afa15801561147a573d6000803e3d6000fd5b505050506040513d601f19601f8201168201806040525081019061149e9190613bde565b6114dd576040517f08c379a00000000000000000000000000000000000000000000000000000000081526004016114d490614a55565b60405180910390fd5b81156115d457600115156000809054906101000a900473ffffffffffffffffffffffffffffffffffffffff1673ffffffffffffffffffffffffffffffffffffffff16635c36901c856040518263ffffffff1660e01b81526004016115419190614967565b60206040518083038186803b15801561155957600080fd5b505afa15801561156d573d6000803e3d6000fd5b505050506040513d601f19601f820116820180604052508101906115919190613bde565b1515146115d3576040517f08c379a00000000000000000000000000000000000000000000000000000000081526004016115ca90614c35565b60405180910390fd5b5b836002600087815260200190815260200160002060030160006101000a81548163ffffffff021916908363ffffffff1602179055505050505050565b8233600160009054906101000a900473ffffffffffffffffffffffffffffffffffffffff1673ffffffffffffffffffffffffffffffffffffffff1663b2acbc13600360008573ffffffffffffffffffffffffffffffffffffffff1673ffffffffffffffffffffffffffffffffffffffff16815260200190815260200160002060000160019054906101000a900460c01b836040518363ffffffff1660e01b81526004016116be9291906149e1565b60206040518083038186803b1580156116d657600080fd5b505afa1580156116ea573d6000803e3d6000fd5b505050506040513d601f19601f8201168201806040525081019061170e9190613bde565b8061174457508073ffffffffffffffffffffffffffffffffffffffff168273ffffffffffffffffffffffffffffffffffffffff16145b611783576040517f08c379a000000000000000000000000000000000000000000000000000000000815260040161177a90614cf5565b60405180910390fd5b82600360008773ffffffffffffffffffffffffffffffffffffffff1673ffffffffffffffffffffffffffffffffffffffff16815260200190815260200160002060050160008677ffffffffffffffffffffffffffffffffffffffffffffffff191677ffffffffffffffffffffffffffffffffffffffffffffffff1916815260200190815260200160002060006101000a81548160ff0219169083151502179055505050505050565b60006118378385612583565b50600460009054906101000a900473ffffffffffffffffffffffffffffffffffffffff1673ffffffffffffffffffffffffffffffffffffffff1663a3ffa9cd33600560009054906101000a900473ffffffffffffffffffffffffffffffffffffffff1673ffffffffffffffffffffffffffffffffffffffff1663acb2ad6f6040518163ffffffff1660e01b815260040160206040518083038186803b1580156118df57600080fd5b505afa1580156118f3573d6000803e3d6000fd5b505050506040513d601f19601f820116820180604052508101906119179190613e10565b6040518363ffffffff1660e01b81526004016119349291906148f8565b602060405180830381600087803b15801561194e57600080fd5b505af1158015611962573d6000803e3d6000fd5b505050506040513d601f19601f820116820180604052508101906119869190613bde565b50611992338484612c2a565b5061199e84848461291e565b90509392505050565b6000600160009054906101000a900473ffffffffffffffffffffffffffffffffffffffff1673ffffffffffffffffffffffffffffffffffffffff1663121e9cda856040518263ffffffff1660e01b8152600401611a0491906149c6565b60206040518083038186803b158015611a1c57600080fd5b505afa158015611a30573d6000803e3d6000fd5b505050506040513d601f19601f82011682018060405250810190611a549190613bde565b611a93576040517f08c379a0000000000000000000000000000000000000000000000000000000008152600401611a8a90614a75565b60405180910390fd5b600160009054906101000a900473ffffffffffffffffffffffffffffffffffffffff1673ffffffffffffffffffffffffffffffffffffffff1663b2acbc1385336040518363ffffffff1660e01b8152600401611af0929190614a0a565b60206040518083038186803b158015611b0857600080fd5b505afa158015611b1c573d6000803e3d6000fd5b505050506040513d601f19601f82011682018060405250810190611b409190613bde565b611b7f576040517f08c379a0000000000000000000000000000000000000000000000000000000008152600401611b7690614cb5565b60405180910390fd5b6000600360008573ffffffffffffffffffffffffffffffffffffffff1673ffffffffffffffffffffffffffffffffffffffff1681526020019081526020016000206002015414611c04576040517f08c379a0000000000000000000000000000000000000000000000000000000008152600401611bfb90614ab5565b60405180910390fd5b60048260ff1610611c4a576040517f08c379a0000000000000000000000000000000000000000000000000000000008152600401611c4190614b75565b60405180910390fd5b611c526136e0565b42816060018181525050600181600001901515908115158152505082816080019060ff16908160ff168152505084816020019077ffffffffffffffffffffffffffffffffffffffffffffffff1916908177ffffffffffffffffffffffffffffffffffffffffffffffff19168152505080600360008673ffffffffffffffffffffffffffffffffffffffff1673ffffffffffffffffffffffffffffffffffffffff16815260200190815260200160002060008201518160000160006101000a81548160ff02191690831515021790555060208201518160000160016101000a81548167ffffffffffffffff021916908360c01c02179055506040820151816001019080519060200190611d6592919061372f565b506060820151816002015560808201518160030160006101000a81548160ff021916908360ff1602179055509050508477ffffffffffffffffffffffffffffffffffffffffffffffff19168473ffffffffffffffffffffffffffffffffffffffff167fddc047324f676cad248d072e655be9091e92e78ea4e344a3fb0ce7855128933460405160405180910390a360019150509392505050565b8160018015156002600084815260200190815260200160002060000160009054906101000a900460ff16151514611e6b576040517f08c379a0000000000000000000000000000000000000000000000000000000008152600401611e6290614c75565b60405180910390fd5b600073__Shared________________________________6339f05272846040518263ffffffff1660e01b8152600401611ea49190614982565b60206040518083038186803b158015611ebc57600080fd5b505af4158015611ed0573d6000803e3d6000fd5b505050506040513d601f19601f82011682018060405250810190611ef49190613d6f565b9050600160009054906101000a900473ffffffffffffffffffffffffffffffffffffffff1673ffffffffffffffffffffffffffffffffffffffff1663b2acbc1382336040518363ffffffff1660e01b8152600401611f53929190614a0a565b60206040518083038186803b158015611f6b57600080fd5b505afa158015611f7f573d6000803e3d6000fd5b505050506040513d601f19601f82011682018060405250810190611fa39190613bde565b611fe2576040517f08c379a0000000000000000000000000000000000000000000000000000000008152600401611fd990614a55565b60405180910390fd5b81156120d957600115156000809054906101000a900473ffffffffffffffffffffffffffffffffffffffff1673ffffffffffffffffffffffffffffffffffffffff16635c36901c856040518263ffffffff1660e01b81526004016120469190614967565b60206040518083038186803b15801561205e57600080fd5b505afa158015612072573d6000803e3d6000fd5b505050506040513d601f19601f820116820180604052508101906120969190613bde565b1515146120d8576040517f08c379a00000000000000000000000000000000000000000000000000000000081526004016120cf90614c35565b60405180910390fd5b5b60038460ff161061211f576040517f08c379a000000000000000000000000000000000000000000000000000000000815260040161211690614c15565b60405180910390fd5b836002600087815260200190815260200160002060000160026101000a81548160ff021916908360ff1602179055505050505050565b3373ffffffffffffffffffffffffffffffffffffffff16600160009054906101000a900473ffffffffffffffffffffffffffffffffffffffff1673ffffffffffffffffffffffffffffffffffffffff166351c8aa99600360008673ffffffffffffffffffffffffffffffffffffffff1673ffffffffffffffffffffffffffffffffffffffff16815260200190815260200160002060000160019054906101000a900460c01b6040518263ffffffff1660e01b815260040161221691906149c6565b60206040518083038186803b15801561222e57600080fd5b505afa158015612242573d6000803e3d6000fd5b505050506040513d601f19601f820116820180604052508101906122669190613a63565b73ffffffffffffffffffffffffffffffffffffffff16146122bc576040517f08c379a00000000000000000000000000000000000000000000000000000000081526004016122b390614a95565b60405180910390fd5b60048160ff1610612302576040517f08c379a00000000000000000000000000000000000000000000000000000000081526004016122f990614c55565b60405180910390fd5b80600360008473ffffffffffffffffffffffffffffffffffffffff1673ffffffffffffffffffffffffffffffffffffffff16815260200190815260200160002060030160006101000a81548160ff021916908360ff1602179055505050565b61236961377c565b6123716136e0565b600360008473ffffffffffffffffffffffffffffffffffffffff1673ffffffffffffffffffffffffffffffffffffffff1681526020019081526020016000206040518060a00160405290816000820160009054906101000a900460ff161515151581526020016000820160019054906101000a900460c01b77ffffffffffffffffffffffffffffffffffffffffffffffff191677ffffffffffffffffffffffffffffffffffffffffffffffff191681526020016001820180548060200260200160405190810160405280929190818152602001828054801561247257602002820191906000526020600020905b81548152602001906001019080831161245e575b50505050508152602001600282015481526020016003820160009054906101000a900460ff1660ff1660ff168152505090506124ac61377c565b81600001518160000190151590811515815250508160200151816020019077ffffffffffffffffffffffffffffffffffffffffffffffff1916908177ffffffffffffffffffffffffffffffffffffffffffffffff1916815250508160600151816040018181525050600360008573ffffffffffffffffffffffffffffffffffffffff1673ffffffffffffffffffffffffffffffffffffffff168152602001908152602001600020600101805490508160600181815250508160800151816080019060ff16908160ff16815250508092505050919050565b600061258d61365e565b600260008581526020019081526020016000206040518060a00160405290816000820160009054906101000a900460ff161515151581526020016000820160019054906101000a900460ff161515151581526020016000820160029054906101000a900460ff1660ff1660ff1681526020016001820160028060200260405190810160405280929190826002801561263a576020028201915b815481526020019060010190808311612626575b505050505081526020016003820160009054906101000a900463ffffffff1663ffffffff1663ffffffff168152505090506000816040015160ff161461291357600073__Shared________________________________6339f05272866040518263ffffffff1660e01b81526004016126b39190614982565b60206040518083038186803b1580156126cb57600080fd5b505af41580156126df573d6000803e3d6000fd5b505050506040513d601f19601f820116820180604052508101906127039190613d6f565b90506001826040015160ff1614156127e7576000600360008673ffffffffffffffffffffffffffffffffffffffff1673ffffffffffffffffffffffffffffffffffffffff16815260200190815260200160002060000160019054906101000a900460c01b90508077ffffffffffffffffffffffffffffffffffffffffffffffff19168277ffffffffffffffffffffffffffffffffffffffffffffffff1916146127e1576040517f08c379a00000000000000000000000000000000000000000000000000000000081526004016127d890614cd5565b60405180910390fd5b50612911565b6002826040015160ff16141561291057600160009054906101000a900473ffffffffffffffffffffffffffffffffffffffff1673ffffffffffffffffffffffffffffffffffffffff166351c8aa99826040518263ffffffff1660e01b815260040161285291906149c6565b60206040518083038186803b15801561286a57600080fd5b505afa15801561287e573d6000803e3d6000fd5b505050506040513d601f19601f820116820180604052508101906128a29190613a63565b73ffffffffffffffffffffffffffffffffffffffff163373ffffffffffffffffffffffffffffffffffffffff161461290f576040517f08c379a000000000000000000000000000000000000000000000000000000000815260040161290690614bf5565b60405180910390fd5b5b5b505b600191505092915050565b600060011515600360008673ffffffffffffffffffffffffffffffffffffffff1673ffffffffffffffffffffffffffffffffffffffff16815260200190815260200160002060000160009054906101000a900460ff161515146129b6576040517f08c379a00000000000000000000000000000000000000000000000000000000081526004016129ad90614b55565b60405180910390fd5b600073__Shared________________________________6339f05272856040518263ffffffff1660e01b81526004016129ef9190614982565b60206040518083038186803b158015612a0757600080fd5b505af4158015612a1b573d6000803e3d6000fd5b505050506040513d601f19601f82011682018060405250810190612a3f9190613d6f565b9050612a4b8186612fce565b6000600360008773ffffffffffffffffffffffffffffffffffffffff1673ffffffffffffffffffffffffffffffffffffffff1681526020019081526020016000206006016000868152602001908152602001600020541415612b1157600360008673ffffffffffffffffffffffffffffffffffffffff1673ffffffffffffffffffffffffffffffffffffffff1681526020019081526020016000206001018490806001815401808255809150506001900390600052602060002001600090919091909150555b612b7783600360008873ffffffffffffffffffffffffffffffffffffffff1673ffffffffffffffffffffffffffffffffffffffff1681526020019081526020016000206006016000878152602001908152602001600020546133f490919063ffffffff16565b600360008773ffffffffffffffffffffffffffffffffffffffff1673ffffffffffffffffffffffffffffffffffffffff1681526020019081526020016000206006016000868152602001908152602001600020819055508473ffffffffffffffffffffffffffffffffffffffff167f19dacbf83c5de6658e14cbf7bcae5c15eca2eedecf1c66fbca928e4d351bea0f8585604051612c1692919061499d565b60405180910390a260019150509392505050565b600081600360008673ffffffffffffffffffffffffffffffffffffffff1673ffffffffffffffffffffffffffffffffffffffff1681526020019081526020016000206006016000858152602001908152602001600020541015612cc2576040517f08c379a0000000000000000000000000000000000000000000000000000000008152600401612cb990614b15565b60405180910390fd5b612d2882600360008773ffffffffffffffffffffffffffffffffffffffff1673ffffffffffffffffffffffffffffffffffffffff16815260200190815260200160002060060160008681526020019081526020016000205461344990919063ffffffff16565b600360008673ffffffffffffffffffffffffffffffffffffffff1673ffffffffffffffffffffffffffffffffffffffff1681526020019081526020016000206006016000858152602001908152602001600020819055506000600360008673ffffffffffffffffffffffffffffffffffffffff1673ffffffffffffffffffffffffffffffffffffffff1681526020019081526020016000206006016000858152602001908152602001600020541115612de45760019050612fc7565b6000600360008673ffffffffffffffffffffffffffffffffffffffff1673ffffffffffffffffffffffffffffffffffffffff16815260200190815260200160002060010180549050905060008090505b81811015612f5f5784600360008873ffffffffffffffffffffffffffffffffffffffff1673ffffffffffffffffffffffffffffffffffffffff1681526020019081526020016000206001018281548110612e8a57fe5b90600052602060002001541415612f5257600360008773ffffffffffffffffffffffffffffffffffffffff1673ffffffffffffffffffffffffffffffffffffffff1681526020019081526020016000206001016001830381548110612eeb57fe5b9060005260206000200154600360008873ffffffffffffffffffffffffffffffffffffffff1673ffffffffffffffffffffffffffffffffffffffff1681526020019081526020016000206001018281548110612f4357fe5b90600052602060002001819055505b8080600101915050612e34565b50600360008673ffffffffffffffffffffffffffffffffffffffff1673ffffffffffffffffffffffffffffffffffffffff168152602001908152602001600020600101805480612fab57fe5b6001900381819060005260206000200160009055905560019150505b9392505050565b60001515600360008373ffffffffffffffffffffffffffffffffffffffff1673ffffffffffffffffffffffffffffffffffffffff16815260200190815260200160002060050160008477ffffffffffffffffffffffffffffffffffffffffffffffff191677ffffffffffffffffffffffffffffffffffffffffffffffff1916815260200190815260200160002060009054906101000a900460ff161515146130ab576040517f08c379a00000000000000000000000000000000000000000000000000000000081526004016130a290614af5565b60405180910390fd5b6001600360008373ffffffffffffffffffffffffffffffffffffffff1673ffffffffffffffffffffffffffffffffffffffff16815260200190815260200160002060030160009054906101000a900460ff1660ff16148061315e57506002600360008373ffffffffffffffffffffffffffffffffffffffff1673ffffffffffffffffffffffffffffffffffffffff16815260200190815260200160002060030160009054906101000a900460ff1660ff16145b156132ce578177ffffffffffffffffffffffffffffffffffffffffffffffff1916600360008373ffffffffffffffffffffffffffffffffffffffff1673ffffffffffffffffffffffffffffffffffffffff16815260200190815260200160002060000160019054906101000a900460c01b77ffffffffffffffffffffffffffffffffffffffffffffffff1916146132cd5760011515600360008373ffffffffffffffffffffffffffffffffffffffff1673ffffffffffffffffffffffffffffffffffffffff16815260200190815260200160002060040160008477ffffffffffffffffffffffffffffffffffffffffffffffff191677ffffffffffffffffffffffffffffffffffffffffffffffff1916815260200190815260200160002060009054906101000a900460ff161515146132cc576040517f08c379a00000000000000000000000000000000000000000000000000000000081526004016132c390614c95565b60405180910390fd5b5b5b60038060008373ffffffffffffffffffffffffffffffffffffffff1673ffffffffffffffffffffffffffffffffffffffff16815260200190815260200160002060030160009054906101000a900460ff1660ff1614156133f0578177ffffffffffffffffffffffffffffffffffffffffffffffff1916600360008373ffffffffffffffffffffffffffffffffffffffff1673ffffffffffffffffffffffffffffffffffffffff16815260200190815260200160002060000160019054906101000a900460c01b77ffffffffffffffffffffffffffffffffffffffffffffffff1916146133ef576040517f08c379a00000000000000000000000000000000000000000000000000000000081526004016133e690614bd5565b60405180910390fd5b5b5050565b60008082840190508381101561343f576040517f08c379a000000000000000000000000000000000000000000000000000000000815260040161343690614ad5565b60405180910390fd5b8091505092915050565b600061348b83836040518060400160405280601e81526020017f536166654d6174683a207375627472616374696f6e206f766572666c6f770000815250613493565b905092915050565b60008383111582906134db576040517f08c379a00000000000000000000000000000000000000000000000000000000081526004016134d29190614a33565b60405180910390fd5b5060008385039050809150509392505050565b826002810192821561351d579160200282015b8281111561351c578251825591602001919060010190613501565b5b50905061352a91906137cb565b5090565b604051806101400160405280600a905b6135466137f0565b81526020019060019003908161353e5790505090565b604051806040016040528060008019168152602001600081525090565b604051806101800160405280600015158152602001600015158152602001600060ff1681526020016135a961380d565b8152602001600063ffffffff16815260200160001515815260200160001515815260200160008152602001600081526020016000815260200160008152602001600073ffffffffffffffffffffffffffffffffffffffff1681525090565b6040518060e0016040528060001515815260200160001515815260200160008152602001600081526020016000815260200160008152602001600073ffffffffffffffffffffffffffffffffffffffff1681525090565b6040518060a00160405280600015158152602001600015158152602001600060ff16815260200161368d61380d565b8152602001600063ffffffff1681525090565b82600281019282156136cf579160200282015b828111156136ce5782518255916020019190600101906136b3565b5b5090506136dc91906137cb565b5090565b6040518060a00160405280600015158152602001600077ffffffffffffffffffffffffffffffffffffffffffffffff191681526020016060815260200160008152602001600060ff1681525090565b82805482825590600052602060002090810192821561376b579160200282015b8281111561376a57825182559160200191906001019061374f565b5b50905061377891906137cb565b5090565b6040518060a00160405280600015158152602001600077ffffffffffffffffffffffffffffffffffffffffffffffff191681526020016000815260200160008152602001600060ff1681525090565b6137ed91905b808211156137e95760008160009055506001016137d1565b5090565b90565b604051806040016040528060008019168152602001600081525090565b6040518060400160405280600290602082028036833780820191505090505090565b60008135905061383e81614f41565b92915050565b60008151905061385381614f41565b92915050565b600082601f83011261386a57600080fd5b600261387d61387882614d94565b614d67565b9150818385602084028201111561389357600080fd5b60005b838110156138c357816138a988826138f7565b845260208401935060208301925050600181019050613896565b5050505092915050565b6000813590506138dc81614f58565b92915050565b6000815190506138f181614f58565b92915050565b60008135905061390681614f6f565b92915050565b60008135905061391b81614f86565b92915050565b60008151905061393081614f86565b92915050565b600060e0828403121561394857600080fd5b61395260e0614d67565b90506000613962848285016138e2565b6000830152506020613976848285016138e2565b602083015250604061398a848285016139fb565b604083015250606061399e848285016139fb565b60608301525060806139b2848285016139fb565b60808301525060a06139c6848285016139fb565b60a08301525060c06139da84828501613844565b60c08301525092915050565b6000813590506139f581614f9d565b92915050565b600081519050613a0a81614f9d565b92915050565b600081359050613a1f81614fb4565b92915050565b600081359050613a3481614fcb565b92915050565b600060208284031215613a4c57600080fd5b6000613a5a8482850161382f565b91505092915050565b600060208284031215613a7557600080fd5b6000613a8384828501613844565b91505092915050565b60008060408385031215613a9f57600080fd5b6000613aad8582860161382f565b9250506020613abe858286016138cd565b9150509250929050565b600080600060608486031215613add57600080fd5b6000613aeb8682870161382f565b9350506020613afc868287016138f7565b9250506040613b0d868287016139e6565b9150509250925092565b600080600060608486031215613b2c57600080fd5b6000613b3a8682870161382f565b9350506020613b4b8682870161390c565b9250506040613b5c868287016138cd565b9150509250925092565b60008060408385031215613b7957600080fd5b6000613b878582860161382f565b9250506020613b98858286016139e6565b9150509250929050565b60008060408385031215613bb557600080fd5b6000613bc38582860161382f565b9250506020613bd485828601613a25565b9150509250929050565b600060208284031215613bf057600080fd5b6000613bfe848285016138e2565b91505092915050565b600060208284031215613c1957600080fd5b6000613c27848285016138f7565b91505092915050565b60008060408385031215613c4357600080fd5b6000613c51858286016138f7565b9250506020613c628582860161382f565b9150509250929050565b600080600060608486031215613c8157600080fd5b6000613c8f868287016138f7565b9350506020613ca08682870161382f565b9250506040613cb1868287016139e6565b9150509250925092565b60008060608385031215613cce57600080fd5b6000613cdc858286016138f7565b9250506020613ced85828601613859565b9150509250929050565b60008060408385031215613d0a57600080fd5b6000613d18858286016138f7565b9250506020613d2985828601613a10565b9150509250929050565b60008060408385031215613d4657600080fd5b6000613d54858286016138f7565b9250506020613d6585828601613a25565b9150509250929050565b600060208284031215613d8157600080fd5b6000613d8f84828501613921565b91505092915050565b600080600060608486031215613dad57600080fd5b6000613dbb8682870161390c565b9350506020613dcc8682870161382f565b9250506040613ddd86828701613a25565b9150509250925092565b600060e08284031215613df957600080fd5b6000613e0784828501613936565b91505092915050565b600060208284031215613e2257600080fd5b6000613e30848285016139fb565b91505092915050565b6000613e458383613f62565b60208301905092915050565b6000613e5d838361488d565b60408301905092915050565b613e7281614ec7565b82525050565b613e8181614e2c565b82525050565b613e9081614e2c565b82525050565b613e9f81614dca565b613ea98184614e05565b9250613eb482614db6565b8060005b83811015613ee5578151613ecc8782613e39565b9650613ed783614deb565b925050600181019050613eb8565b505050505050565b613ef681614dd5565b613f008184614e10565b9250613f0b82614dc0565b8060005b83811015613f3c578151613f238782613e51565b9650613f2e83614df8565b925050600181019050613f0f565b505050505050565b613f4d81614e3e565b82525050565b613f5c81614e3e565b82525050565b613f6b81614e4a565b82525050565b613f7a81614e4a565b82525050565b613f8981614e4a565b82525050565b613f9881614e54565b82525050565b613fa781614e54565b82525050565b6000613fb882614de0565b613fc28185614e1b565b9350613fd2818560208601614efd565b613fdb81614f30565b840191505092915050565b6000613ff3602383614e1b565b91507f4f6e6c79207075626c697368657220697320616c6c6f77656420746f206d6f6460008301527f69667900000000000000000000000000000000000000000000000000000000006020830152604082019050919050565b6000614059601f83614e1b565b91507f556e6b6e6f776e207075626c6973686572206f72206e6f7420616374697665006000830152602082019050919050565b6000614099602783614e1b565b91507f4f6e6c79207075626c69736865722063616e206d6f64696679205472616e736660008301527f6572204c6f636b000000000000000000000000000000000000000000000000006020830152604082019050919050565b60006140ff600e83614e1b565b91507f4163636f756e74206578697374730000000000000000000000000000000000006000830152602082019050919050565b600061413f601b83614e1b565b91507f536166654d6174683a206164646974696f6e206f766572666c6f7700000000006000830152602082019050919050565b600061417f601583614e1b565b91507f5075626c697368657220626c61636b6c697374656400000000000000000000006000830152602082019050919050565b60006141bf601483614e1b565b91507f496e73756666696369656e742062616c616e63650000000000000000000000006000830152602082019050919050565b60006141ff602b83614e1b565b91507f436c6f7365642077686974656c6973742c206f6e6c79207075626c697368657260008301527f2063616e206d6f646966790000000000000000000000000000000000000000006020830152604082019050919050565b6000614265601983614e1b565b91507f556e6b6e6f776e206f7220696e76616c69642077616c6c6574000000000000006000830152602082019050919050565b60006142a5601b83614e1b565b91507f496e76616c6964206c6f636b2d6d6f64652073706563696669656400000000006000830152602082019050919050565b60006142e5602183614e1b565b91507f57616c6c6574206e6f7420696e2077686974656c697374206c6f636b206d6f6460008301527f65000000000000000000000000000000000000000000000000000000000000006020830152604082019050919050565b600061434b602783614e1b565b91507f416c6c6f636174652063616e206f6e6c792062652063616c6c65642066726f6d60008301527f20417373657473000000000000000000000000000000000000000000000000006020830152604082019050919050565b60006143b1602c83614e1b565b91507f4f6e6c79206173736574732066726f6d207075626c697368657220616c6c6f7760008301527f656420696e2077616c6c657400000000000000000000000000000000000000006020830152604082019050919050565b6000614417602283614e1b565b91507f5472616e73666572206f6e6c7920616c6c6f776564206279207075626c69736860008301527f65720000000000000000000000000000000000000000000000000000000000006020830152604082019050919050565b600061447d602383614e1b565b91507f496e76616c6964205472616e736665724c6f636b204d6f64652073706563696660008301527f69656400000000000000000000000000000000000000000000000000000000006020830152604082019050919050565b60006144e3602883614e1b565b91507f41737365742064697361626c6564206d6f64696669636174696f6e73206e6f7460008301527f20616c6c6f7765640000000000000000000000000000000000000000000000006020830152604082019050919050565b6000614549601f83614e1b565b91507f496e76616c6964205472616e73666572204c6f636b20737065636966696564006000830152602082019050919050565b6000614589600d83614e1b565b91507f556e6b6e6f776e206173736574000000000000000000000000000000000000006000830152602082019050919050565b60006145c9601a83614e1b565b91507f5075626c6973686572206e6f742077686974652d6c69737465640000000000006000830152602082019050919050565b6000614609602183614e1b565b91507f43616e206f6e6c79206265206d6f646966696564206279207075626c6973686560008301527f72000000000000000000000000000000000000000000000000000000000000006020830152604082019050919050565b600061466f602a83614e1b565b91507f5472616e73666572206f6e6c7920746f207075626c69736865722077616c6c6560008301527f747320616c6c6f776564000000000000000000000000000000000000000000006020830152604082019050919050565b60006146d5603183614e1b565b91507f43616e206f6e6c79206265206d6f6469666965642062792077616c6c6574206f60008301527f776e6572206f72207075626c69736865720000000000000000000000000000006020830152604082019050919050565b60a0820160008201516147446000850182613f44565b5060208201516147576020850182613f8f565b50604082015161476a60408501826148bc565b50606082015161477d60608501826148bc565b50608082015161479060808501826148e9565b50505050565b6101a0820160008201516147ad6000850182613f44565b5060208201516147c06020850182613f44565b5060408201516147d360408501826148e9565b5060608201516147e66060850182613e96565b5060808201516147f960a08501826148da565b5060a082015161480c60c0850182613f44565b5060c082015161481f60e0850182613f44565b5060e08201516148336101008501826148bc565b506101008201516148486101208501826148bc565b5061012082015161485d6101408501826148bc565b506101408201516148726101608501826148bc565b50610160820151614887610180850182613e78565b50505050565b6040820160008201516148a36000850182613f62565b5060208201516148b660208501826148bc565b50505050565b6148c581614ea0565b82525050565b6148d481614ea0565b82525050565b6148e381614eaa565b82525050565b6148f281614eba565b82525050565b600060408201905061490d6000830185613e69565b61491a60208301846148cb565b9392505050565b60006102a0820190506149376000830185613eed565b6149456102808301846148cb565b9392505050565b60006020820190506149616000830184613f53565b92915050565b600060208201905061497c6000830184613f71565b92915050565b60006020820190506149976000830184613f80565b92915050565b60006040820190506149b26000830185613f71565b6149bf60208301846148cb565b9392505050565b60006020820190506149db6000830184613f9e565b92915050565b60006040820190506149f66000830185613f9e565b614a036020830184613e87565b9392505050565b6000604082019050614a1f6000830185613f9e565b614a2c6020830184613e69565b9392505050565b60006020820190508181036000830152614a4d8184613fad565b905092915050565b60006020820190508181036000830152614a6e81613fe6565b9050919050565b60006020820190508181036000830152614a8e8161404c565b9050919050565b60006020820190508181036000830152614aae8161408c565b9050919050565b60006020820190508181036000830152614ace816140f2565b9050919050565b60006020820190508181036000830152614aee81614132565b9050919050565b60006020820190508181036000830152614b0e81614172565b9050919050565b60006020820190508181036000830152614b2e816141b2565b9050919050565b60006020820190508181036000830152614b4e816141f2565b9050919050565b60006020820190508181036000830152614b6e81614258565b9050919050565b60006020820190508181036000830152614b8e81614298565b9050919050565b60006020820190508181036000830152614bae816142d8565b9050919050565b60006020820190508181036000830152614bce8161433e565b9050919050565b60006020820190508181036000830152614bee816143a4565b9050919050565b60006020820190508181036000830152614c0e8161440a565b9050919050565b60006020820190508181036000830152614c2e81614470565b9050919050565b60006020820190508181036000830152614c4e816144d6565b9050919050565b60006020820190508181036000830152614c6e8161453c565b9050919050565b60006020820190508181036000830152614c8e8161457c565b9050919050565b60006020820190508181036000830152614cae816145bc565b9050919050565b60006020820190508181036000830152614cce816145fc565b9050919050565b60006020820190508181036000830152614cee81614662565b9050919050565b60006020820190508181036000830152614d0e816146c8565b9050919050565b600060a082019050614d2a600083018461472e565b92915050565b60006101a082019050614d466000830184614796565b92915050565b6000602082019050614d6160008301846148cb565b92915050565b6000604051905081810181811067ffffffffffffffff82111715614d8a57600080fd5b8060405250919050565b600067ffffffffffffffff821115614dab57600080fd5b602082029050919050565b6000819050919050565b6000819050919050565b600060029050919050565b6000600a9050919050565b600081519050919050565b6000602082019050919050565b6000602082019050919050565b600081905092915050565b600081905092915050565b600082825260208201905092915050565b6000614e3782614e80565b9050919050565b60008115159050919050565b6000819050919050565b60007fffffffffffffffff00000000000000000000000000000000000000000000000082169050919050565b600073ffffffffffffffffffffffffffffffffffffffff82169050919050565b6000819050919050565b600063ffffffff82169050919050565b600060ff82169050919050565b6000614ed282614ed9565b9050919050565b6000614ee482614eeb565b9050919050565b6000614ef682614e80565b9050919050565b60005b83811015614f1b578082015181840152602081019050614f00565b83811115614f2a576000848401525b50505050565b6000601f19601f8301169050919050565b614f4a81614e2c565b8114614f5557600080fd5b50565b614f6181614e3e565b8114614f6c57600080fd5b50565b614f7881614e4a565b8114614f8357600080fd5b50565b614f8f81614e54565b8114614f9a57600080fd5b50565b614fa681614ea0565b8114614fb157600080fd5b50565b614fbd81614eaa565b8114614fc857600080fd5b50565b614fd481614eba565b8114614fdf57600080fd5b5056fea26469706673582212209ca3ea06d121b8751930bc26e987b35f453bf97f9de049a7bb76df10b775a0ac64736f6c63430006040033",
  "source": "pragma solidity 0.6.4;\npragma experimental ABIEncoderV2;\n\nimport \"../../core/INetwork.sol\";\nimport \"./ExtendedAssets.sol\";\nimport \"./Accounts.sol\";\n\ncontract Orange is INetwork, Accounts {\n    using SafeMath for uint256;\n\n    event Deposit(address indexed receiver, bytes32 assetId, uint256 quantity);\n\n    Juice internal _juice;\n    Consortium internal _consortium;\n    address _assetsAddress;\n\n    // transaction filters\n    mapping(bytes16 => address) private filters;\n\n    constructor(address juiceAddress, address consortiumAddress, address publishersAddress, address assetsAddress)\n        Accounts(publishersAddress, assetsAddress) public {\n\n        _assetsAddress = assetsAddress;\n        _juice = Juice(juiceAddress);\n        _consortium = Consortium(consortiumAddress);\n    }\n\n    // ----------------------------------------------------------------------------------------------------------\n    // ------------------------------------------------ PUBLIC --------------------------------------------------\n    // ----------------------------------------------------------------------------------------------------------\n\n    /**\n     *  Allocate new asset (created in assets contract)\n     */\n    function allocate(bytes32 assetId, address receiver, uint256 quantity) public override returns(bool){\n\n        require(\n            msg.sender == _assetsAddress,\n            \"Allocate can only be called from Assets\"\n        );\n\n        // create local asset\n        Asset memory asset;\n        asset.exists = true;\n        asset.chargeable = true;\n        asset.transferLock = 0;\n        assets[assetId] = asset;\n\n        // check if transfer is allowed\n        verifyTransferable(assetId, receiver);\n\n        // deposit in wallet\n        return deposit(receiver, assetId, quantity);\n    }\n\n    /**\n     * Transfer Digital Asset\n     *\n     * sender: Address of sender\n     * receiver: Address of receiver\n     * node: Name of node\n     * name: Name of asset\n     * amount: Amount of assets to be transferred\n    */\n    function transfer(address receiver, bytes32 assetId, uint256 amount) public payable returns (bool) {\n\n        // check if transfer is allowed\n        verifyTransferable(assetId, receiver);\n\n        // charge for transferFee\n        _juice.charge(msg.sender, _consortium.transferFee());\n\n        // withdraw\n        withdraw(msg.sender, assetId, amount);\n\n        // deposit\n        return deposit(receiver, assetId, amount);\n    }\n\n    // ----------------------------------------------------------------------------------------------------------\n    // ------------------------------------------------ INTERNAL ------------------------------------------------\n    // ----------------------------------------------------------------------------------------------------------\n\n    // *   -transferLock: * 00 : None (From any wallet to any wallets)\n    // *                  * 01 : Wallet (From publisher wallets to publishers wallets)\n    // *                  * 02 : Publisher (Only publisher can transfer into wallets, owner can return to publisher)\n    function verifyTransferable(bytes32 assetId, address receiver) internal view returns (bool) {\n        Asset memory a = assets[assetId];\n\n        if (a.transferLock != 0){                                   // 00 : No regulations\n\n            bytes8 publisher = Shared.extractPublisher(assetId);\n\n            if (a.transferLock == 1){                               // 01 : Only Wallet\n                bytes8 walletPublisher = _accounts[receiver].publisher;\n                require(\n                    publisher == walletPublisher,\n                    \"Transfer only to publisher wallets allowed\"\n                );\n            } else if (a.transferLock == 2){                        // 02 : None   (Only from publisher)\n                require(\n                    msg.sender == _publishers.getOwner(publisher),\n                    \"Transfer only allowed by publisher\"\n                );\n            }\n        }\n\n        return true;\n    }\n\n\n    /**\n     * Deposit assets to wallet\n     */\n    function deposit(address receiver, bytes32 assetId, uint256 amount) internal returns (bool){\n\n        require(\n            _accounts[receiver].active == true,\n            \"Unknown or invalid wallet\"\n        );\n\n        // extract assets publisher\n        bytes8 publisher = Shared.extractPublisher(assetId);\n\n        // verify transfer is allowed (wallet)\n        verifyWalletTransferAllowed(publisher, receiver);\n\n        // add asset to known assets if not owned before\n        // (if balance == 0, asset yet not owned)\n        if (_accounts[receiver].balance[assetId] == 0) {\n            _accounts[receiver].assets.push(assetId);\n        }\n\n        // deposit balance\n        _accounts[receiver].balance[assetId] = _accounts[receiver].balance[assetId].add(amount);\n\n        // emit event\n        emit Deposit(receiver, assetId, amount);\n\n        return true;\n    }\n\n    /**\n      * Withdraw asset from owner\n      *  - remove asset from known assets\n      */\n    function withdraw(address owner, bytes32 assetId, uint256 amount) internal returns (bool){\n\n        // check if owner has fund\n        require(_accounts[owner].balance[assetId] >= amount, \"Insufficient balance\");\n\n\n        // withdraw amount from senders wallet\n        _accounts[owner].balance[assetId] = _accounts[owner].balance[assetId].sub(amount);\n\n        // if owner is left with no assets (of kind) remove from the owning list\n        if (_accounts[owner].balance[assetId] > 0)\n            return true;\n\n        // TODO: add limit option to wallet to avoid to high gas-cost (max amount of assets)\n        uint arrayLength = _accounts[owner].assets.length;\n\n        // shift last entry to empty space\n        for (uint i = 0; i < arrayLength; i++) {\n            if (_accounts[owner].assets[i] == assetId) {\n                _accounts[owner].assets[i] = _accounts[owner].assets[arrayLength - 1];\n            }\n        }\n\n        // pop the last entry\n        _accounts[owner].assets.pop();\n\n        return true;\n    }\n\n    // ------------------------------------------------------------------------------------------------\n    // ------------------------------------------------------------------------------------------------\n\n    /**\n   *  Check if the asset can be transferred into wallet\n   *  according to specified transferLock mode\n   */\n    function verifyWalletTransferAllowed(bytes8 assetPublisher, address receiver) internal view {\n\n        // check blacklist\n        require(_accounts[receiver].blacklist[assetPublisher] == false, \"Publisher blacklisted\");\n\n        // only whitelist\n        if (_accounts[receiver].transferLock == 1 || _accounts[receiver].transferLock == 2) {\n            // Publisher is always allowed to transfer into wallet\n            if (_accounts[receiver].publisher != assetPublisher) {\n                // All others need to be whitelisted\n                require(\n                    _accounts[receiver].whitelist[assetPublisher] == true,\n                    \"Publisher not white-listed\"\n                );\n            }\n        }\n\n        // only publishers\n        if (_accounts[receiver].transferLock == 3) {\n            require(\n                _accounts[receiver].publisher == assetPublisher,\n                \"Only assets from publisher allowed in wallet\"\n            );\n        }\n\n    }\n\n    /**\n     *  Get wallet balance of specific asset\n     */\n    function getAssetBalance(bytes32 assetId, address account) public view returns(uint256) {\n        return _accounts[account].balance[assetId];\n    }\n\n}\n\n\n/***\n     *  Batch Issue NFT's\n     *\n     *  Limited to some quantity\n     *\nfunction batchIssueNFT(bytes32 rootAssetId, uint32 from, uint32 to, uint256 amount) public payable\n_validWallet(msg.sender) _isValidIssuer(rootAssetId, msg.sender) returns (bool) {\n\n// check spread size\n// TODO: Weak check !! needs to be with safeMath\nuint32 spread = to - from;\nrequire(spread <= maxIssueBatchSize, \"Exceeds maximum b\");\n\n// charge publisher the fee\ncharge(issueFee * spread);\n\n// generate AssetID's\nfor (uint32 i=from;i < to; i++) {\n\n// combine index with root assets Id\nbytes32 assetId = attachIndex(rootAssetId, i);\n\n// Check if asset exists\nrequire(assetExists(assetId) == false, \"Asset already issued\");\n\n// Create asset\ncreateAsset(assetId, false, 0, false, amount);\n\n// deposit new asset into account\ndeposit(msg.sender, assetId, amount);\n}\n\nreturn true;\n}*/\n",
  "sourcePath": "/home/michael/development/juicechain-contracts/contracts/networks/orange/Orange.sol",
  "compiler": {
    "name": "solc",
    "version": "0.6.4+commit.1dca32f3.Emscripten.clang"
  },
  "schemaVersion": "3.1.0",
  "updatedAt": "2020-06-11T09:58:42.331Z",
  "networkType": "ethereum",
  "devdoc": {
    "methods": {}
  },
  "userdoc": {
    "methods": {
      "allocate(bytes32,address,uint256)": {
        "notice": "Allocate new asset (created in assets contract)"
      },
      "blacklist(address,bytes8,bool)": {
        "notice": "Modify blacklist owner: Address of wallet targetPublisher: Assets from publishers to deny transfer remove: Add or remove target from blacklist"
      },
      "getAssetBalance(bytes32,address)": {
        "notice": "Get wallet balance of specific asset"
      },
      "open(bytes8,address,uint8)": {
        "notice": "Open new account"
      },
      "setAccountTransferLock(address,uint8)": {
        "notice": "Change transfer lock => only allowed by publisher"
      },
      "setAssetTransferLock(bytes32,uint8)": {
        "notice": "Modify TransferLock Mode"
      },
      "setChecksum(bytes32,bytes32[2])": {
        "notice": "Set hash verification of the \"real-life\" content. TODO: Implement usage of isValidHash"
      },
      "setValidation(bytes32,uint32)": {
        "notice": "Update validation state"
      },
      "transfer(address,bytes32,uint256)": {
        "notice": "Transfer Digital Asset     * sender: Address of sender receiver: Address of receiver node: Name of node name: Name of asset amount: Amount of assets to be transferred"
      },
      "whitelist(address,bytes8,bool)": {
        "notice": "Modify whitelist owner: Address of wallet targetPublisher: Assets from publishers to grant transfer remove: Add or remove target from whitelist"
      }
    }
  }
}