{
  "contractName": "Shared",
  "abi": [
    {
      "inputs": [
        {
          "internalType": "bytes32",
          "name": "source",
          "type": "bytes32"
        }
      ],
      "name": "extractPublisher",
      "outputs": [
        {
          "internalType": "bytes8",
          "name": "",
          "type": "bytes8"
        }
      ],
      "stateMutability": "pure",
      "type": "function",
      "constant": true
    },
    {
      "inputs": [
        {
          "internalType": "bytes32",
          "name": "source",
          "type": "bytes32"
        }
      ],
      "name": "extractRootId",
      "outputs": [
        {
          "internalType": "bytes32",
          "name": "",
          "type": "bytes32"
        }
      ],
      "stateMutability": "pure",
      "type": "function",
      "constant": true
    },
    {
      "inputs": [
        {
          "internalType": "bytes32",
          "name": "source",
          "type": "bytes32"
        }
      ],
      "name": "extractIndex",
      "outputs": [
        {
          "internalType": "bytes4",
          "name": "",
          "type": "bytes4"
        }
      ],
      "stateMutability": "pure",
      "type": "function",
      "constant": true
    },
    {
      "inputs": [
        {
          "internalType": "bytes32",
          "name": "assetId",
          "type": "bytes32"
        },
        {
          "internalType": "uint32",
          "name": "index",
          "type": "uint32"
        }
      ],
      "name": "attachIndex",
      "outputs": [
        {
          "internalType": "bytes32",
          "name": "",
          "type": "bytes32"
        }
      ],
      "stateMutability": "pure",
      "type": "function",
      "constant": true
    },
    {
      "inputs": [
        {
          "internalType": "bytes",
          "name": "b",
          "type": "bytes"
        }
      ],
      "name": "isValidHash",
      "outputs": [
        {
          "internalType": "bool",
          "name": "",
          "type": "bool"
        }
      ],
      "stateMutability": "pure",
      "type": "function",
      "constant": true
    }
  ],
  "bytecode": "0x61071c610026600b82828239805160001a60731461001957fe5b30600052607381538281f3fe73000000000000000000000000000000000000000030146080604052600436106100615760003560e01c806339f05272146100665780635809d12b146100de5780639776ec5b146101b1578063a2ac939f146101f3578063d92ae23514610273575b600080fd5b6100926004803603602081101561007c57600080fd5b81019080803590602001909291905050506102c5565b604051808277ffffffffffffffffffffffffffffffffffffffffffffffff191677ffffffffffffffffffffffffffffffffffffffffffffffff1916815260200191505060405180910390f35b610197600480360360208110156100f457600080fd5b810190808035906020019064010000000081111561011157600080fd5b82018360208201111561012357600080fd5b8035906020019184600183028401116401000000008311171561014557600080fd5b91908080601f016020809104026020016040519081016040528093929190818152602001838380828437600081840152601f19601f82011690508083019250505050505050919291929050505061034b565b604051808215151515815260200191505060405180910390f35b6101dd600480360360208110156101c757600080fd5b8101908080359060200190929190505050610527565b6040518082815260200191505060405180910390f35b61021f6004803603602081101561020957600080fd5b8101908080359060200190929190505050610592565b60405180827bffffffffffffffffffffffffffffffffffffffffffffffffffffffff19167bffffffffffffffffffffffffffffffffffffffffffffffffffffffff1916815260200191505060405180910390f35b6102af6004803603604081101561028957600080fd5b8101908080359060200190929190803563ffffffff16906020019092919050505061061d565b6040518082815260200191505060405180910390f35b60008060008090505b6008811015610341576008810260ff60f81b8583602081106102ec57fe5b1a60f81b167effffffffffffffffffffffffffffffffffffffffffffffffffffffffffffff191677ffffffffffffffffffffffffffffffffffffffffffffffff1916901c8217915080806001019150506102ce565b5080915050919050565b6000604082511461035f5760009050610522565b60008090505b604081101561051c577f300000000000000000000000000000000000000000000000000000000000000083828151811061039b57fe5b602001015160f81c60f81b7effffffffffffffffffffffffffffffffffffffffffffffffffffffffffffff191610156103d8576000915050610522565b7f390000000000000000000000000000000000000000000000000000000000000083828151811061040557fe5b602001015160f81c60f81b7effffffffffffffffffffffffffffffffffffffffffffffffffffffffffffff191611801561049657507f610000000000000000000000000000000000000000000000000000000000000083828151811061046757fe5b602001015160f81c60f81b7effffffffffffffffffffffffffffffffffffffffffffffffffffffffffffff1916105b156104a5576000915050610522565b7f66000000000000000000000000000000000000000000000000000000000000008382815181106104d257fe5b602001015160f81c60f81b7effffffffffffffffffffffffffffffffffffffffffffffffffffffffffffff1916111561050f576000915050610522565b8080600101915050610365565b50600190505b919050565b60008060008090505b601c811015610588576008810260ff60f81b85836020811061054e57fe5b1a60f81b167effffffffffffffffffffffffffffffffffffffffffffffffffffffffffffff1916901c821791508080600101915050610530565b5080915050919050565b6000806000601c90505b6020811015610613576008810260ff60f81b8583602081106105ba57fe5b1a60f81b167effffffffffffffffffffffffffffffffffffffffffffffffffffffffffffff19167bffffffffffffffffffffffffffffffffffffffffffffffffffffffff1916901c82179150808060010191505061059c565b5080915050919050565b60008060008360e01b905060008090505b60208110156106da57601c811015610687576008810260ff60f81b87836020811061065557fe5b1a60f81b167effffffffffffffffffffffffffffffffffffffffffffffffffffffffffffff1916901c831792506106cd565b6008810260ff60f81b83601c84036004811061069f57fe5b1a60f81b167effffffffffffffffffffffffffffffffffffffffffffffffffffffffffffff1916901c831792505b808060010191505061062e565b5081925050509291505056fea2646970667358221220ac0a6572143828813695c00f18431cdfe7b65b3fef6dcd490f3ba1bc2a97cb3164736f6c63430006040033",
  "source": "pragma solidity 0.6.4;\n\nlibrary Shared {\n\n    /**\n     *   Extract PublishersId from AssetId\n     */\n    function extractPublisher(bytes32 source) public pure returns (bytes8) {\n        bytes8 out;\n        for (uint i = 0; i < 8; i++) {\n            out |= bytes8(source[i] & 0xFF) >> (i * 8);\n        }\n        return out;\n    }\n\n    /**\n     *   Extract Root-ID from AssetId\n     */\n    function extractRootId(bytes32 source) public pure returns (bytes32) {\n        bytes32 out;\n        for (uint i = 0; i < 28; i++) {\n            out |= bytes32(source[i] & 0xFF) >> (i * 8);\n        }\n        return out;\n    }\n\n    /**\n     *  Extract Index from NFA AssetId\n     *  (Last 4 Bytes)\n     */\n    function extractIndex(bytes32 source) public pure returns (bytes4) {\n        bytes4 out;\n        for (uint i = 28; i < 32; i++) {\n            out |= bytes4(source[i] & 0xFF) >> (i * 8);\n        }\n        return out;\n    }\n\n    /**\n     *  Attach Index to Root-Assets ID\n     */\n    function attachIndex(bytes32 assetId, uint32 index) public pure returns (bytes32) {\n        bytes32 out;\n        bytes4 bytesIndex = bytes4(index);\n        for (uint i = 0; i < 32; i++) {\n            if (i < 28) {\n                out |= bytes32(assetId[i] & 0xFF) >> (i * 8);\n            } else {\n                out |= bytes32(bytesIndex[i-28] & 0xFF) >> (i * 8);\n            }\n        }\n        return out;\n    }\n\n    function isValidHash(bytes memory b) public pure returns (bool) {\n        if(b.length != 64) return false;\n\n        for (uint i = 0; i<64; i++) {\n            if (b[i] < \"0\") return false;\n            if (b[i] > \"9\" && b[i] < \"a\") return false;\n            if (b[i] > \"f\") return false;\n        }\n\n        return true;\n    }\n\n    \n}\n",
  "sourcePath": "/home/michael/development/juicechain-contracts/contracts/libs/Shared.sol",
  "compiler": {
    "name": "solc",
    "version": "0.6.4+commit.1dca32f3.Emscripten.clang"
  },
  "schemaVersion": "3.1.0",
  "updatedAt": "2020-06-11T09:58:42.353Z",
  "networkType": "ethereum",
  "devdoc": {
    "methods": {}
  },
  "userdoc": {
    "methods": {
      "attachIndex(bytes32,uint32)": {
        "notice": "Attach Index to Root-Assets ID"
      },
      "extractIndex(bytes32)": {
        "notice": "Extract Index from NFA AssetId (Last 4 Bytes)"
      },
      "extractPublisher(bytes32)": {
        "notice": "Extract PublishersId from AssetId"
      },
      "extractRootId(bytes32)": {
        "notice": "Extract Root-ID from AssetId"
      }
    }
  }
}